
PowerUpStateReader.elf:     file format elf32-littlearm

Sections:
Idx Name          Size      VMA       LMA       File off  Algn
  0 .isr_vector   000001c4  08000000  08000000  00010000  2**0
                  CONTENTS, ALLOC, LOAD, READONLY, DATA
  1 .text         0000244c  080001d0  080001d0  000101d0  2**4
                  CONTENTS, ALLOC, LOAD, READONLY, CODE
  2 .rodata       000000cc  0800261c  0800261c  0001261c  2**0
                  CONTENTS, ALLOC, LOAD, READONLY, DATA
  3 .ARM.extab    00000000  080026e8  080026e8  00020080  2**0
                  CONTENTS
  4 .ARM          00000008  080026e8  080026e8  000126e8  2**2
                  CONTENTS, ALLOC, LOAD, READONLY, DATA
  5 .preinit_array 00000000  080026f0  080026f0  00020080  2**0
                  CONTENTS, ALLOC, LOAD, DATA
  6 .init_array   00000004  080026f0  080026f0  000126f0  2**2
                  CONTENTS, ALLOC, LOAD, DATA
  7 .fini_array   00000004  080026f4  080026f4  000126f4  2**2
                  CONTENTS, ALLOC, LOAD, DATA
  8 .data         00000080  20000000  080026f8  00020000  2**2
                  CONTENTS, ALLOC, LOAD, DATA
  9 .bss          000000a4  20000080  08002778  00020080  2**2
                  ALLOC
 10 ._user_heap_stack 00000604  20000124  08002778  00020124  2**0
                  ALLOC
 11 .ARM.attributes 00000030  00000000  00000000  00020080  2**0
                  CONTENTS, READONLY
 12 .comment      00000053  00000000  00000000  000200b0  2**0
                  CONTENTS, READONLY
 13 .debug_frame  000004a4  00000000  00000000  00020104  2**2
                  CONTENTS, READONLY, DEBUGGING, OCTETS

Disassembly of section .text:

080001d0 <__do_global_dtors_aux>:
 80001d0:	b510      	push	{r4, lr}
 80001d2:	4c05      	ldr	r4, [pc, #20]	; (80001e8 <__do_global_dtors_aux+0x18>)
 80001d4:	7823      	ldrb	r3, [r4, #0]
 80001d6:	b933      	cbnz	r3, 80001e6 <__do_global_dtors_aux+0x16>
 80001d8:	4b04      	ldr	r3, [pc, #16]	; (80001ec <__do_global_dtors_aux+0x1c>)
 80001da:	b113      	cbz	r3, 80001e2 <__do_global_dtors_aux+0x12>
 80001dc:	4804      	ldr	r0, [pc, #16]	; (80001f0 <__do_global_dtors_aux+0x20>)
 80001de:	f3af 8000 	nop.w
 80001e2:	2301      	movs	r3, #1
 80001e4:	7023      	strb	r3, [r4, #0]
 80001e6:	bd10      	pop	{r4, pc}
 80001e8:	20000080 	.word	0x20000080
 80001ec:	00000000 	.word	0x00000000
 80001f0:	08002604 	.word	0x08002604

080001f4 <frame_dummy>:
 80001f4:	b508      	push	{r3, lr}
 80001f6:	4b03      	ldr	r3, [pc, #12]	; (8000204 <frame_dummy+0x10>)
 80001f8:	b11b      	cbz	r3, 8000202 <frame_dummy+0xe>
 80001fa:	4903      	ldr	r1, [pc, #12]	; (8000208 <frame_dummy+0x14>)
 80001fc:	4803      	ldr	r0, [pc, #12]	; (800020c <frame_dummy+0x18>)
 80001fe:	f3af 8000 	nop.w
 8000202:	bd08      	pop	{r3, pc}
 8000204:	00000000 	.word	0x00000000
 8000208:	20000084 	.word	0x20000084
 800020c:	08002604 	.word	0x08002604

08000210 <strlen>:
 8000210:	4603      	mov	r3, r0
 8000212:	f813 2b01 	ldrb.w	r2, [r3], #1
 8000216:	2a00      	cmp	r2, #0
 8000218:	d1fb      	bne.n	8000212 <strlen+0x2>
 800021a:	1a18      	subs	r0, r3, r0
 800021c:	3801      	subs	r0, #1
 800021e:	4770      	bx	lr

08000220 <memchr>:
 8000220:	f001 01ff 	and.w	r1, r1, #255	; 0xff
 8000224:	2a10      	cmp	r2, #16
 8000226:	db2b      	blt.n	8000280 <memchr+0x60>
 8000228:	f010 0f07 	tst.w	r0, #7
 800022c:	d008      	beq.n	8000240 <memchr+0x20>
 800022e:	f810 3b01 	ldrb.w	r3, [r0], #1
 8000232:	3a01      	subs	r2, #1
 8000234:	428b      	cmp	r3, r1
 8000236:	d02d      	beq.n	8000294 <memchr+0x74>
 8000238:	f010 0f07 	tst.w	r0, #7
 800023c:	b342      	cbz	r2, 8000290 <memchr+0x70>
 800023e:	d1f6      	bne.n	800022e <memchr+0xe>
 8000240:	b4f0      	push	{r4, r5, r6, r7}
 8000242:	ea41 2101 	orr.w	r1, r1, r1, lsl #8
 8000246:	ea41 4101 	orr.w	r1, r1, r1, lsl #16
 800024a:	f022 0407 	bic.w	r4, r2, #7
 800024e:	f07f 0700 	mvns.w	r7, #0
 8000252:	2300      	movs	r3, #0
 8000254:	e8f0 5602 	ldrd	r5, r6, [r0], #8
 8000258:	3c08      	subs	r4, #8
 800025a:	ea85 0501 	eor.w	r5, r5, r1
 800025e:	ea86 0601 	eor.w	r6, r6, r1
 8000262:	fa85 f547 	uadd8	r5, r5, r7
 8000266:	faa3 f587 	sel	r5, r3, r7
 800026a:	fa86 f647 	uadd8	r6, r6, r7
 800026e:	faa5 f687 	sel	r6, r5, r7
 8000272:	b98e      	cbnz	r6, 8000298 <memchr+0x78>
 8000274:	d1ee      	bne.n	8000254 <memchr+0x34>
 8000276:	bcf0      	pop	{r4, r5, r6, r7}
 8000278:	f001 01ff 	and.w	r1, r1, #255	; 0xff
 800027c:	f002 0207 	and.w	r2, r2, #7
 8000280:	b132      	cbz	r2, 8000290 <memchr+0x70>
 8000282:	f810 3b01 	ldrb.w	r3, [r0], #1
 8000286:	3a01      	subs	r2, #1
 8000288:	ea83 0301 	eor.w	r3, r3, r1
 800028c:	b113      	cbz	r3, 8000294 <memchr+0x74>
 800028e:	d1f8      	bne.n	8000282 <memchr+0x62>
 8000290:	2000      	movs	r0, #0
 8000292:	4770      	bx	lr
 8000294:	3801      	subs	r0, #1
 8000296:	4770      	bx	lr
 8000298:	2d00      	cmp	r5, #0
 800029a:	bf06      	itte	eq
 800029c:	4635      	moveq	r5, r6
 800029e:	3803      	subeq	r0, #3
 80002a0:	3807      	subne	r0, #7
 80002a2:	f015 0f01 	tst.w	r5, #1
 80002a6:	d107      	bne.n	80002b8 <memchr+0x98>
 80002a8:	3001      	adds	r0, #1
 80002aa:	f415 7f80 	tst.w	r5, #256	; 0x100
 80002ae:	bf02      	ittt	eq
 80002b0:	3001      	addeq	r0, #1
 80002b2:	f415 3fc0 	tsteq.w	r5, #98304	; 0x18000
 80002b6:	3001      	addeq	r0, #1
 80002b8:	bcf0      	pop	{r4, r5, r6, r7}
 80002ba:	3801      	subs	r0, #1
 80002bc:	4770      	bx	lr
 80002be:	bf00      	nop

080002c0 <__aeabi_uldivmod>:
 80002c0:	b953      	cbnz	r3, 80002d8 <__aeabi_uldivmod+0x18>
 80002c2:	b94a      	cbnz	r2, 80002d8 <__aeabi_uldivmod+0x18>
 80002c4:	2900      	cmp	r1, #0
 80002c6:	bf08      	it	eq
 80002c8:	2800      	cmpeq	r0, #0
 80002ca:	bf1c      	itt	ne
 80002cc:	f04f 31ff 	movne.w	r1, #4294967295
 80002d0:	f04f 30ff 	movne.w	r0, #4294967295
 80002d4:	f000 b96e 	b.w	80005b4 <__aeabi_idiv0>
 80002d8:	f1ad 0c08 	sub.w	ip, sp, #8
 80002dc:	e96d ce04 	strd	ip, lr, [sp, #-16]!
 80002e0:	f000 f806 	bl	80002f0 <__udivmoddi4>
 80002e4:	f8dd e004 	ldr.w	lr, [sp, #4]
 80002e8:	e9dd 2302 	ldrd	r2, r3, [sp, #8]
 80002ec:	b004      	add	sp, #16
 80002ee:	4770      	bx	lr

080002f0 <__udivmoddi4>:
 80002f0:	e92d 47f0 	stmdb	sp!, {r4, r5, r6, r7, r8, r9, sl, lr}
 80002f4:	9d08      	ldr	r5, [sp, #32]
 80002f6:	4604      	mov	r4, r0
 80002f8:	468c      	mov	ip, r1
 80002fa:	2b00      	cmp	r3, #0
 80002fc:	f040 8083 	bne.w	8000406 <__udivmoddi4+0x116>
 8000300:	428a      	cmp	r2, r1
 8000302:	4617      	mov	r7, r2
 8000304:	d947      	bls.n	8000396 <__udivmoddi4+0xa6>
 8000306:	fab2 f282 	clz	r2, r2
 800030a:	b142      	cbz	r2, 800031e <__udivmoddi4+0x2e>
 800030c:	f1c2 0020 	rsb	r0, r2, #32
 8000310:	fa24 f000 	lsr.w	r0, r4, r0
 8000314:	4091      	lsls	r1, r2
 8000316:	4097      	lsls	r7, r2
 8000318:	ea40 0c01 	orr.w	ip, r0, r1
 800031c:	4094      	lsls	r4, r2
 800031e:	ea4f 4817 	mov.w	r8, r7, lsr #16
 8000322:	0c23      	lsrs	r3, r4, #16
 8000324:	fbbc f6f8 	udiv	r6, ip, r8
 8000328:	fa1f fe87 	uxth.w	lr, r7
 800032c:	fb08 c116 	mls	r1, r8, r6, ip
 8000330:	ea43 4301 	orr.w	r3, r3, r1, lsl #16
 8000334:	fb06 f10e 	mul.w	r1, r6, lr
 8000338:	4299      	cmp	r1, r3
 800033a:	d909      	bls.n	8000350 <__udivmoddi4+0x60>
 800033c:	18fb      	adds	r3, r7, r3
 800033e:	f106 30ff 	add.w	r0, r6, #4294967295
 8000342:	f080 8119 	bcs.w	8000578 <__udivmoddi4+0x288>
 8000346:	4299      	cmp	r1, r3
 8000348:	f240 8116 	bls.w	8000578 <__udivmoddi4+0x288>
 800034c:	3e02      	subs	r6, #2
 800034e:	443b      	add	r3, r7
 8000350:	1a5b      	subs	r3, r3, r1
 8000352:	b2a4      	uxth	r4, r4
 8000354:	fbb3 f0f8 	udiv	r0, r3, r8
 8000358:	fb08 3310 	mls	r3, r8, r0, r3
 800035c:	ea44 4403 	orr.w	r4, r4, r3, lsl #16
 8000360:	fb00 fe0e 	mul.w	lr, r0, lr
 8000364:	45a6      	cmp	lr, r4
 8000366:	d909      	bls.n	800037c <__udivmoddi4+0x8c>
 8000368:	193c      	adds	r4, r7, r4
 800036a:	f100 33ff 	add.w	r3, r0, #4294967295
 800036e:	f080 8105 	bcs.w	800057c <__udivmoddi4+0x28c>
 8000372:	45a6      	cmp	lr, r4
 8000374:	f240 8102 	bls.w	800057c <__udivmoddi4+0x28c>
 8000378:	3802      	subs	r0, #2
 800037a:	443c      	add	r4, r7
 800037c:	ea40 4006 	orr.w	r0, r0, r6, lsl #16
 8000380:	eba4 040e 	sub.w	r4, r4, lr
 8000384:	2600      	movs	r6, #0
 8000386:	b11d      	cbz	r5, 8000390 <__udivmoddi4+0xa0>
 8000388:	40d4      	lsrs	r4, r2
 800038a:	2300      	movs	r3, #0
 800038c:	e9c5 4300 	strd	r4, r3, [r5]
 8000390:	4631      	mov	r1, r6
 8000392:	e8bd 87f0 	ldmia.w	sp!, {r4, r5, r6, r7, r8, r9, sl, pc}
 8000396:	b902      	cbnz	r2, 800039a <__udivmoddi4+0xaa>
 8000398:	deff      	udf	#255	; 0xff
 800039a:	fab2 f282 	clz	r2, r2
 800039e:	2a00      	cmp	r2, #0
 80003a0:	d150      	bne.n	8000444 <__udivmoddi4+0x154>
 80003a2:	1bcb      	subs	r3, r1, r7
 80003a4:	ea4f 4e17 	mov.w	lr, r7, lsr #16
 80003a8:	fa1f f887 	uxth.w	r8, r7
 80003ac:	2601      	movs	r6, #1
 80003ae:	fbb3 fcfe 	udiv	ip, r3, lr
 80003b2:	0c21      	lsrs	r1, r4, #16
 80003b4:	fb0e 331c 	mls	r3, lr, ip, r3
 80003b8:	ea41 4103 	orr.w	r1, r1, r3, lsl #16
 80003bc:	fb08 f30c 	mul.w	r3, r8, ip
 80003c0:	428b      	cmp	r3, r1
 80003c2:	d907      	bls.n	80003d4 <__udivmoddi4+0xe4>
 80003c4:	1879      	adds	r1, r7, r1
 80003c6:	f10c 30ff 	add.w	r0, ip, #4294967295
 80003ca:	d202      	bcs.n	80003d2 <__udivmoddi4+0xe2>
 80003cc:	428b      	cmp	r3, r1
 80003ce:	f200 80e9 	bhi.w	80005a4 <__udivmoddi4+0x2b4>
 80003d2:	4684      	mov	ip, r0
 80003d4:	1ac9      	subs	r1, r1, r3
 80003d6:	b2a3      	uxth	r3, r4
 80003d8:	fbb1 f0fe 	udiv	r0, r1, lr
 80003dc:	fb0e 1110 	mls	r1, lr, r0, r1
 80003e0:	ea43 4401 	orr.w	r4, r3, r1, lsl #16
 80003e4:	fb08 f800 	mul.w	r8, r8, r0
 80003e8:	45a0      	cmp	r8, r4
 80003ea:	d907      	bls.n	80003fc <__udivmoddi4+0x10c>
 80003ec:	193c      	adds	r4, r7, r4
 80003ee:	f100 33ff 	add.w	r3, r0, #4294967295
 80003f2:	d202      	bcs.n	80003fa <__udivmoddi4+0x10a>
 80003f4:	45a0      	cmp	r8, r4
 80003f6:	f200 80d9 	bhi.w	80005ac <__udivmoddi4+0x2bc>
 80003fa:	4618      	mov	r0, r3
 80003fc:	eba4 0408 	sub.w	r4, r4, r8
 8000400:	ea40 400c 	orr.w	r0, r0, ip, lsl #16
 8000404:	e7bf      	b.n	8000386 <__udivmoddi4+0x96>
 8000406:	428b      	cmp	r3, r1
 8000408:	d909      	bls.n	800041e <__udivmoddi4+0x12e>
 800040a:	2d00      	cmp	r5, #0
 800040c:	f000 80b1 	beq.w	8000572 <__udivmoddi4+0x282>
 8000410:	2600      	movs	r6, #0
 8000412:	e9c5 0100 	strd	r0, r1, [r5]
 8000416:	4630      	mov	r0, r6
 8000418:	4631      	mov	r1, r6
 800041a:	e8bd 87f0 	ldmia.w	sp!, {r4, r5, r6, r7, r8, r9, sl, pc}
 800041e:	fab3 f683 	clz	r6, r3
 8000422:	2e00      	cmp	r6, #0
 8000424:	d14a      	bne.n	80004bc <__udivmoddi4+0x1cc>
 8000426:	428b      	cmp	r3, r1
 8000428:	d302      	bcc.n	8000430 <__udivmoddi4+0x140>
 800042a:	4282      	cmp	r2, r0
 800042c:	f200 80b8 	bhi.w	80005a0 <__udivmoddi4+0x2b0>
 8000430:	1a84      	subs	r4, r0, r2
 8000432:	eb61 0103 	sbc.w	r1, r1, r3
 8000436:	2001      	movs	r0, #1
 8000438:	468c      	mov	ip, r1
 800043a:	2d00      	cmp	r5, #0
 800043c:	d0a8      	beq.n	8000390 <__udivmoddi4+0xa0>
 800043e:	e9c5 4c00 	strd	r4, ip, [r5]
 8000442:	e7a5      	b.n	8000390 <__udivmoddi4+0xa0>
 8000444:	f1c2 0320 	rsb	r3, r2, #32
 8000448:	fa20 f603 	lsr.w	r6, r0, r3
 800044c:	4097      	lsls	r7, r2
 800044e:	fa01 f002 	lsl.w	r0, r1, r2
 8000452:	ea4f 4e17 	mov.w	lr, r7, lsr #16
 8000456:	40d9      	lsrs	r1, r3
 8000458:	4330      	orrs	r0, r6
 800045a:	0c03      	lsrs	r3, r0, #16
 800045c:	fbb1 f6fe 	udiv	r6, r1, lr
 8000460:	fa1f f887 	uxth.w	r8, r7
 8000464:	fb0e 1116 	mls	r1, lr, r6, r1
 8000468:	ea43 4301 	orr.w	r3, r3, r1, lsl #16
 800046c:	fb06 f108 	mul.w	r1, r6, r8
 8000470:	4299      	cmp	r1, r3
 8000472:	fa04 f402 	lsl.w	r4, r4, r2
 8000476:	d909      	bls.n	800048c <__udivmoddi4+0x19c>
 8000478:	18fb      	adds	r3, r7, r3
 800047a:	f106 3cff 	add.w	ip, r6, #4294967295
 800047e:	f080 808d 	bcs.w	800059c <__udivmoddi4+0x2ac>
 8000482:	4299      	cmp	r1, r3
 8000484:	f240 808a 	bls.w	800059c <__udivmoddi4+0x2ac>
 8000488:	3e02      	subs	r6, #2
 800048a:	443b      	add	r3, r7
 800048c:	1a5b      	subs	r3, r3, r1
 800048e:	b281      	uxth	r1, r0
 8000490:	fbb3 f0fe 	udiv	r0, r3, lr
 8000494:	fb0e 3310 	mls	r3, lr, r0, r3
 8000498:	ea41 4103 	orr.w	r1, r1, r3, lsl #16
 800049c:	fb00 f308 	mul.w	r3, r0, r8
 80004a0:	428b      	cmp	r3, r1
 80004a2:	d907      	bls.n	80004b4 <__udivmoddi4+0x1c4>
 80004a4:	1879      	adds	r1, r7, r1
 80004a6:	f100 3cff 	add.w	ip, r0, #4294967295
 80004aa:	d273      	bcs.n	8000594 <__udivmoddi4+0x2a4>
 80004ac:	428b      	cmp	r3, r1
 80004ae:	d971      	bls.n	8000594 <__udivmoddi4+0x2a4>
 80004b0:	3802      	subs	r0, #2
 80004b2:	4439      	add	r1, r7
 80004b4:	1acb      	subs	r3, r1, r3
 80004b6:	ea40 4606 	orr.w	r6, r0, r6, lsl #16
 80004ba:	e778      	b.n	80003ae <__udivmoddi4+0xbe>
 80004bc:	f1c6 0c20 	rsb	ip, r6, #32
 80004c0:	fa03 f406 	lsl.w	r4, r3, r6
 80004c4:	fa22 f30c 	lsr.w	r3, r2, ip
 80004c8:	431c      	orrs	r4, r3
 80004ca:	fa20 f70c 	lsr.w	r7, r0, ip
 80004ce:	fa01 f306 	lsl.w	r3, r1, r6
 80004d2:	ea4f 4e14 	mov.w	lr, r4, lsr #16
 80004d6:	fa21 f10c 	lsr.w	r1, r1, ip
 80004da:	431f      	orrs	r7, r3
 80004dc:	0c3b      	lsrs	r3, r7, #16
 80004de:	fbb1 f9fe 	udiv	r9, r1, lr
 80004e2:	fa1f f884 	uxth.w	r8, r4
 80004e6:	fb0e 1119 	mls	r1, lr, r9, r1
 80004ea:	ea43 4101 	orr.w	r1, r3, r1, lsl #16
 80004ee:	fb09 fa08 	mul.w	sl, r9, r8
 80004f2:	458a      	cmp	sl, r1
 80004f4:	fa02 f206 	lsl.w	r2, r2, r6
 80004f8:	fa00 f306 	lsl.w	r3, r0, r6
 80004fc:	d908      	bls.n	8000510 <__udivmoddi4+0x220>
 80004fe:	1861      	adds	r1, r4, r1
 8000500:	f109 30ff 	add.w	r0, r9, #4294967295
 8000504:	d248      	bcs.n	8000598 <__udivmoddi4+0x2a8>
 8000506:	458a      	cmp	sl, r1
 8000508:	d946      	bls.n	8000598 <__udivmoddi4+0x2a8>
 800050a:	f1a9 0902 	sub.w	r9, r9, #2
 800050e:	4421      	add	r1, r4
 8000510:	eba1 010a 	sub.w	r1, r1, sl
 8000514:	b2bf      	uxth	r7, r7
 8000516:	fbb1 f0fe 	udiv	r0, r1, lr
 800051a:	fb0e 1110 	mls	r1, lr, r0, r1
 800051e:	ea47 4701 	orr.w	r7, r7, r1, lsl #16
 8000522:	fb00 f808 	mul.w	r8, r0, r8
 8000526:	45b8      	cmp	r8, r7
 8000528:	d907      	bls.n	800053a <__udivmoddi4+0x24a>
 800052a:	19e7      	adds	r7, r4, r7
 800052c:	f100 31ff 	add.w	r1, r0, #4294967295
 8000530:	d22e      	bcs.n	8000590 <__udivmoddi4+0x2a0>
 8000532:	45b8      	cmp	r8, r7
 8000534:	d92c      	bls.n	8000590 <__udivmoddi4+0x2a0>
 8000536:	3802      	subs	r0, #2
 8000538:	4427      	add	r7, r4
 800053a:	ea40 4009 	orr.w	r0, r0, r9, lsl #16
 800053e:	eba7 0708 	sub.w	r7, r7, r8
 8000542:	fba0 8902 	umull	r8, r9, r0, r2
 8000546:	454f      	cmp	r7, r9
 8000548:	46c6      	mov	lr, r8
 800054a:	4649      	mov	r1, r9
 800054c:	d31a      	bcc.n	8000584 <__udivmoddi4+0x294>
 800054e:	d017      	beq.n	8000580 <__udivmoddi4+0x290>
 8000550:	b15d      	cbz	r5, 800056a <__udivmoddi4+0x27a>
 8000552:	ebb3 020e 	subs.w	r2, r3, lr
 8000556:	eb67 0701 	sbc.w	r7, r7, r1
 800055a:	fa07 fc0c 	lsl.w	ip, r7, ip
 800055e:	40f2      	lsrs	r2, r6
 8000560:	ea4c 0202 	orr.w	r2, ip, r2
 8000564:	40f7      	lsrs	r7, r6
 8000566:	e9c5 2700 	strd	r2, r7, [r5]
 800056a:	2600      	movs	r6, #0
 800056c:	4631      	mov	r1, r6
 800056e:	e8bd 87f0 	ldmia.w	sp!, {r4, r5, r6, r7, r8, r9, sl, pc}
 8000572:	462e      	mov	r6, r5
 8000574:	4628      	mov	r0, r5
 8000576:	e70b      	b.n	8000390 <__udivmoddi4+0xa0>
 8000578:	4606      	mov	r6, r0
 800057a:	e6e9      	b.n	8000350 <__udivmoddi4+0x60>
 800057c:	4618      	mov	r0, r3
 800057e:	e6fd      	b.n	800037c <__udivmoddi4+0x8c>
 8000580:	4543      	cmp	r3, r8
 8000582:	d2e5      	bcs.n	8000550 <__udivmoddi4+0x260>
 8000584:	ebb8 0e02 	subs.w	lr, r8, r2
 8000588:	eb69 0104 	sbc.w	r1, r9, r4
 800058c:	3801      	subs	r0, #1
 800058e:	e7df      	b.n	8000550 <__udivmoddi4+0x260>
 8000590:	4608      	mov	r0, r1
 8000592:	e7d2      	b.n	800053a <__udivmoddi4+0x24a>
 8000594:	4660      	mov	r0, ip
 8000596:	e78d      	b.n	80004b4 <__udivmoddi4+0x1c4>
 8000598:	4681      	mov	r9, r0
 800059a:	e7b9      	b.n	8000510 <__udivmoddi4+0x220>
 800059c:	4666      	mov	r6, ip
 800059e:	e775      	b.n	800048c <__udivmoddi4+0x19c>
 80005a0:	4630      	mov	r0, r6
 80005a2:	e74a      	b.n	800043a <__udivmoddi4+0x14a>
 80005a4:	f1ac 0c02 	sub.w	ip, ip, #2
 80005a8:	4439      	add	r1, r7
 80005aa:	e713      	b.n	80003d4 <__udivmoddi4+0xe4>
 80005ac:	3802      	subs	r0, #2
 80005ae:	443c      	add	r4, r7
 80005b0:	e724      	b.n	80003fc <__udivmoddi4+0x10c>
 80005b2:	bf00      	nop

080005b4 <__aeabi_idiv0>:
 80005b4:	4770      	bx	lr
 80005b6:	bf00      	nop

080005b8 <print>:
 80005b8:	b507      	push	{r0, r1, r2, lr}
 80005ba:	4b09      	ldr	r3, [pc, #36]	; (80005e0 <print+0x28>)
 80005bc:	781b      	ldrb	r3, [r3, #0]
 80005be:	b15b      	cbz	r3, 80005d8 <print+0x20>
 80005c0:	9001      	str	r0, [sp, #4]
 80005c2:	f7ff fe25 	bl	8000210 <strlen>
 80005c6:	4b07      	ldr	r3, [pc, #28]	; (80005e4 <print+0x2c>)
 80005c8:	9901      	ldr	r1, [sp, #4]
 80005ca:	b282      	uxth	r2, r0
 80005cc:	4806      	ldr	r0, [pc, #24]	; (80005e8 <print+0x30>)
 80005ce:	b003      	add	sp, #12
 80005d0:	f85d eb04 	ldr.w	lr, [sp], #4
 80005d4:	f001 bb60 	b.w	8001c98 <HAL_UART_Transmit>
 80005d8:	b003      	add	sp, #12
 80005da:	f85d fb04 	ldr.w	pc, [sp], #4
 80005de:	bf00      	nop
 80005e0:	2000009d 	.word	0x2000009d
 80005e4:	00119400 	.word	0x00119400
 80005e8:	200000cc 	.word	0x200000cc

080005ec <printSRAM>:
 80005ec:	b5f0      	push	{r4, r5, r6, r7, lr}
 80005ee:	2000      	movs	r0, #0
 80005f0:	b08b      	sub	sp, #44	; 0x2c
 80005f2:	f000 fa85 	bl	8000b00 <BSP_LED_On>
 80005f6:	4b2c      	ldr	r3, [pc, #176]	; (80006a8 <printSRAM+0xbc>)
 80005f8:	4d2c      	ldr	r5, [pc, #176]	; (80006ac <printSRAM+0xc0>)
 80005fa:	781b      	ldrb	r3, [r3, #0]
 80005fc:	bb7b      	cbnz	r3, 800065e <printSRAM+0x72>
 80005fe:	482c      	ldr	r0, [pc, #176]	; (80006b0 <printSRAM+0xc4>)
 8000600:	f7ff ffda 	bl	80005b8 <print>
 8000604:	6829      	ldr	r1, [r5, #0]
 8000606:	482b      	ldr	r0, [pc, #172]	; (80006b4 <printSRAM+0xc8>)
 8000608:	f04f 33ff 	mov.w	r3, #4294967295
 800060c:	f44f 4200 	mov.w	r2, #32768	; 0x8000
 8000610:	f001 fb42 	bl	8001c98 <HAL_UART_Transmit>
 8000614:	6829      	ldr	r1, [r5, #0]
 8000616:	4827      	ldr	r0, [pc, #156]	; (80006b4 <printSRAM+0xc8>)
 8000618:	f44f 4200 	mov.w	r2, #32768	; 0x8000
 800061c:	4411      	add	r1, r2
 800061e:	f04f 33ff 	mov.w	r3, #4294967295
 8000622:	f001 fb39 	bl	8001c98 <HAL_UART_Transmit>
 8000626:	6829      	ldr	r1, [r5, #0]
 8000628:	4822      	ldr	r0, [pc, #136]	; (80006b4 <printSRAM+0xc8>)
 800062a:	f04f 33ff 	mov.w	r3, #4294967295
 800062e:	f44f 4200 	mov.w	r2, #32768	; 0x8000
 8000632:	f501 3180 	add.w	r1, r1, #65536	; 0x10000
 8000636:	f001 fb2f 	bl	8001c98 <HAL_UART_Transmit>
 800063a:	6829      	ldr	r1, [r5, #0]
 800063c:	481d      	ldr	r0, [pc, #116]	; (80006b4 <printSRAM+0xc8>)
 800063e:	f04f 33ff 	mov.w	r3, #4294967295
 8000642:	f44f 4200 	mov.w	r2, #32768	; 0x8000
 8000646:	f501 31c0 	add.w	r1, r1, #98304	; 0x18000
 800064a:	f001 fb25 	bl	8001c98 <HAL_UART_Transmit>
 800064e:	481a      	ldr	r0, [pc, #104]	; (80006b8 <printSRAM+0xcc>)
 8000650:	f7ff ffb2 	bl	80005b8 <print>
 8000654:	2000      	movs	r0, #0
 8000656:	f000 fa5d 	bl	8000b14 <BSP_LED_Off>
 800065a:	b00b      	add	sp, #44	; 0x2c
 800065c:	bdf0      	pop	{r4, r5, r6, r7, pc}
 800065e:	4917      	ldr	r1, [pc, #92]	; (80006bc <printSRAM+0xd0>)
 8000660:	4e17      	ldr	r6, [pc, #92]	; (80006c0 <printSRAM+0xd4>)
 8000662:	4f18      	ldr	r7, [pc, #96]	; (80006c4 <printSRAM+0xd8>)
 8000664:	f44f 7380 	mov.w	r3, #256	; 0x100
 8000668:	f44f 6200 	mov.w	r2, #2048	; 0x800
 800066c:	a802      	add	r0, sp, #8
 800066e:	f001 fb9b 	bl	8001da8 <siprintf>
 8000672:	a802      	add	r0, sp, #8
 8000674:	f7ff ffa0 	bl	80005b8 <print>
 8000678:	f44f 6400 	mov.w	r4, #2048	; 0x800
 800067c:	682b      	ldr	r3, [r5, #0]
 800067e:	4631      	mov	r1, r6
 8000680:	5d1a      	ldrb	r2, [r3, r4]
 8000682:	4668      	mov	r0, sp
 8000684:	f001 fb90 	bl	8001da8 <siprintf>
 8000688:	4668      	mov	r0, sp
 800068a:	f7ff ff95 	bl	80005b8 <print>
 800068e:	f004 0307 	and.w	r3, r4, #7
 8000692:	2b07      	cmp	r3, #7
 8000694:	d102      	bne.n	800069c <printSRAM+0xb0>
 8000696:	4638      	mov	r0, r7
 8000698:	f7ff ff8e 	bl	80005b8 <print>
 800069c:	3401      	adds	r4, #1
 800069e:	f5b4 6f10 	cmp.w	r4, #2304	; 0x900
 80006a2:	d1eb      	bne.n	800067c <printSRAM+0x90>
 80006a4:	4807      	ldr	r0, [pc, #28]	; (80006c4 <printSRAM+0xd8>)
 80006a6:	e7d3      	b.n	8000650 <printSRAM+0x64>
 80006a8:	2000009c 	.word	0x2000009c
 80006ac:	20000000 	.word	0x20000000
 80006b0:	0800261c 	.word	0x0800261c
 80006b4:	200000cc 	.word	0x200000cc
 80006b8:	08002629 	.word	0x08002629
 80006bc:	08002634 	.word	0x08002634
 80006c0:	08002650 	.word	0x08002650
 80006c4:	0800264d 	.word	0x0800264d

080006c8 <counterUp>:
 80006c8:	b510      	push	{r4, lr}
 80006ca:	4c06      	ldr	r4, [pc, #24]	; (80006e4 <counterUp+0x1c>)
 80006cc:	2101      	movs	r1, #1
 80006ce:	4620      	mov	r0, r4
 80006d0:	f001 fa1b 	bl	8001b0a <HAL_RTCEx_BKUPRead>
 80006d4:	2101      	movs	r1, #1
 80006d6:	1c42      	adds	r2, r0, #1
 80006d8:	4620      	mov	r0, r4
 80006da:	e8bd 4010 	ldmia.w	sp!, {r4, lr}
 80006de:	f001 ba0f 	b.w	8001b00 <HAL_RTCEx_BKUPWrite>
 80006e2:	bf00      	nop
 80006e4:	200000ac 	.word	0x200000ac

080006e8 <enterStandby>:
 80006e8:	4a0d      	ldr	r2, [pc, #52]	; (8000720 <enterStandby+0x38>)
 80006ea:	480e      	ldr	r0, [pc, #56]	; (8000724 <enterStandby+0x3c>)
 80006ec:	b508      	push	{r3, lr}
 80006ee:	6813      	ldr	r3, [r2, #0]
 80006f0:	f043 0304 	orr.w	r3, r3, #4
 80006f4:	6013      	str	r3, [r2, #0]
 80006f6:	6802      	ldr	r2, [r0, #0]
 80006f8:	68d3      	ldr	r3, [r2, #12]
 80006fa:	b2db      	uxtb	r3, r3
 80006fc:	f463 6390 	orn	r3, r3, #1152	; 0x480
 8000700:	60d3      	str	r3, [r2, #12]
 8000702:	21a0      	movs	r1, #160	; 0xa0
 8000704:	2200      	movs	r2, #0
 8000706:	f001 f993 	bl	8001a30 <HAL_RTCEx_SetWakeUpTimer_IT>
 800070a:	b108      	cbz	r0, 8000710 <enterStandby+0x28>
 800070c:	b672      	cpsid	i
 800070e:	e7fe      	b.n	800070e <enterStandby+0x26>
 8000710:	4805      	ldr	r0, [pc, #20]	; (8000728 <enterStandby+0x40>)
 8000712:	f7ff ff51 	bl	80005b8 <print>
 8000716:	e8bd 4008 	ldmia.w	sp!, {r3, lr}
 800071a:	f000 bc09 	b.w	8000f30 <HAL_PWR_EnterSTANDBYMode>
 800071e:	bf00      	nop
 8000720:	40007000 	.word	0x40007000
 8000724:	200000ac 	.word	0x200000ac
 8000728:	08002656 	.word	0x08002656

0800072c <printStep>:
 800072c:	b508      	push	{r3, lr}
 800072e:	f7ff ff5d 	bl	80005ec <printSRAM>
 8000732:	f7ff ffc9 	bl	80006c8 <counterUp>
 8000736:	f7ff ffd7 	bl	80006e8 <enterStandby>
 800073a:	4c06      	ldr	r4, [pc, #24]	; (8000754 <printStep+0x28>)
 800073c:	4620      	mov	r0, r4
 800073e:	f7ff ff3b 	bl	80005b8 <print>
 8000742:	f44f 70fa 	mov.w	r0, #500	; 0x1f4
 8000746:	f000 fa81 	bl	8000c4c <HAL_Delay>
 800074a:	2000      	movs	r0, #0
 800074c:	f000 f9ec 	bl	8000b28 <BSP_LED_Toggle>
 8000750:	e7f4      	b.n	800073c <printStep+0x10>
 8000752:	bf00      	nop
 8000754:	0800266e 	.word	0x0800266e

08000758 <SystemClock_Config>:
 8000758:	b530      	push	{r4, r5, lr}
 800075a:	2500      	movs	r5, #0
 800075c:	b095      	sub	sp, #84	; 0x54
 800075e:	2214      	movs	r2, #20
 8000760:	4629      	mov	r1, r5
 8000762:	a802      	add	r0, sp, #8
 8000764:	9508      	str	r5, [sp, #32]
 8000766:	f001 fb17 	bl	8001d98 <memset>
 800076a:	4b21      	ldr	r3, [pc, #132]	; (80007f0 <SystemClock_Config+0x98>)
 800076c:	9500      	str	r5, [sp, #0]
 800076e:	6c1a      	ldr	r2, [r3, #64]	; 0x40
 8000770:	f042 5280 	orr.w	r2, r2, #268435456	; 0x10000000
 8000774:	641a      	str	r2, [r3, #64]	; 0x40
 8000776:	6c1b      	ldr	r3, [r3, #64]	; 0x40
 8000778:	4a1e      	ldr	r2, [pc, #120]	; (80007f4 <SystemClock_Config+0x9c>)
 800077a:	f003 5380 	and.w	r3, r3, #268435456	; 0x10000000
 800077e:	9300      	str	r3, [sp, #0]
 8000780:	9b00      	ldr	r3, [sp, #0]
 8000782:	9501      	str	r5, [sp, #4]
 8000784:	6813      	ldr	r3, [r2, #0]
 8000786:	f423 4340 	bic.w	r3, r3, #49152	; 0xc000
 800078a:	f443 4380 	orr.w	r3, r3, #16384	; 0x4000
 800078e:	6013      	str	r3, [r2, #0]
 8000790:	6813      	ldr	r3, [r2, #0]
 8000792:	f403 4340 	and.w	r3, r3, #49152	; 0xc000
 8000796:	9301      	str	r3, [sp, #4]
 8000798:	9b01      	ldr	r3, [sp, #4]
 800079a:	230a      	movs	r3, #10
 800079c:	2210      	movs	r2, #16
 800079e:	9307      	str	r3, [sp, #28]
 80007a0:	2301      	movs	r3, #1
 80007a2:	2402      	movs	r4, #2
 80007a4:	e9cd 3309 	strd	r3, r3, [sp, #36]	; 0x24
 80007a8:	e9cd 230b 	strd	r2, r3, [sp, #44]	; 0x2c
 80007ac:	f44f 71a8 	mov.w	r1, #336	; 0x150
 80007b0:	2304      	movs	r3, #4
 80007b2:	a807      	add	r0, sp, #28
 80007b4:	e9cd 450d 	strd	r4, r5, [sp, #52]	; 0x34
 80007b8:	e9cd 1310 	strd	r1, r3, [sp, #64]	; 0x40
 80007bc:	e9cd 4412 	strd	r4, r4, [sp, #72]	; 0x48
 80007c0:	920f      	str	r2, [sp, #60]	; 0x3c
 80007c2:	f000 feef 	bl	80015a4 <HAL_RCC_OscConfig>
 80007c6:	b108      	cbz	r0, 80007cc <SystemClock_Config+0x74>
 80007c8:	b672      	cpsid	i
 80007ca:	e7fe      	b.n	80007ca <SystemClock_Config+0x72>
 80007cc:	f44f 5380 	mov.w	r3, #4096	; 0x1000
 80007d0:	e9cd 3005 	strd	r3, r0, [sp, #20]
 80007d4:	e9cd 4003 	strd	r4, r0, [sp, #12]
 80007d8:	230f      	movs	r3, #15
 80007da:	4621      	mov	r1, r4
 80007dc:	a802      	add	r0, sp, #8
 80007de:	9302      	str	r3, [sp, #8]
 80007e0:	f000 fbd0 	bl	8000f84 <HAL_RCC_ClockConfig>
 80007e4:	b108      	cbz	r0, 80007ea <SystemClock_Config+0x92>
 80007e6:	b672      	cpsid	i
 80007e8:	e7fe      	b.n	80007e8 <SystemClock_Config+0x90>
 80007ea:	b015      	add	sp, #84	; 0x54
 80007ec:	bd30      	pop	{r4, r5, pc}
 80007ee:	bf00      	nop
 80007f0:	40023800 	.word	0x40023800
 80007f4:	40007000 	.word	0x40007000

080007f8 <PWR_Init>:
 80007f8:	b507      	push	{r0, r1, r2, lr}
 80007fa:	f000 fb8b 	bl	8000f14 <HAL_PWR_EnableBkUpAccess>
 80007fe:	2300      	movs	r3, #0
 8000800:	9301      	str	r3, [sp, #4]
 8000802:	4b07      	ldr	r3, [pc, #28]	; (8000820 <PWR_Init+0x28>)
 8000804:	6b1a      	ldr	r2, [r3, #48]	; 0x30
 8000806:	f442 2280 	orr.w	r2, r2, #262144	; 0x40000
 800080a:	631a      	str	r2, [r3, #48]	; 0x30
 800080c:	6b1b      	ldr	r3, [r3, #48]	; 0x30
 800080e:	f403 2380 	and.w	r3, r3, #262144	; 0x40000
 8000812:	9301      	str	r3, [sp, #4]
 8000814:	9b01      	ldr	r3, [sp, #4]
 8000816:	b003      	add	sp, #12
 8000818:	f85d eb04 	ldr.w	lr, [sp], #4
 800081c:	f000 bb98 	b.w	8000f50 <HAL_PWREx_EnableBkUpReg>
 8000820:	40023800 	.word	0x40023800

08000824 <RTC_Init>:
 8000824:	4809      	ldr	r0, [pc, #36]	; (800084c <RTC_Init+0x28>)
 8000826:	4a0a      	ldr	r2, [pc, #40]	; (8000850 <RTC_Init+0x2c>)
 8000828:	b508      	push	{r3, lr}
 800082a:	2300      	movs	r3, #0
 800082c:	e9c0 2300 	strd	r2, r3, [r0]
 8000830:	217f      	movs	r1, #127	; 0x7f
 8000832:	22ff      	movs	r2, #255	; 0xff
 8000834:	e9c0 1202 	strd	r1, r2, [r0, #8]
 8000838:	e9c0 3304 	strd	r3, r3, [r0, #16]
 800083c:	6183      	str	r3, [r0, #24]
 800083e:	f001 f8a9 	bl	8001994 <HAL_RTC_Init>
 8000842:	b108      	cbz	r0, 8000848 <RTC_Init+0x24>
 8000844:	b672      	cpsid	i
 8000846:	e7fe      	b.n	8000846 <RTC_Init+0x22>
 8000848:	bd08      	pop	{r3, pc}
 800084a:	bf00      	nop
 800084c:	200000ac 	.word	0x200000ac
 8000850:	40002800 	.word	0x40002800

08000854 <UART_Init>:
 8000854:	480a      	ldr	r0, [pc, #40]	; (8000880 <UART_Init+0x2c>)
 8000856:	4a0b      	ldr	r2, [pc, #44]	; (8000884 <UART_Init+0x30>)
 8000858:	b508      	push	{r3, lr}
 800085a:	f44f 33e1 	mov.w	r3, #115200	; 0x1c200
 800085e:	e9c0 2300 	strd	r2, r3, [r0]
 8000862:	2300      	movs	r3, #0
 8000864:	220c      	movs	r2, #12
 8000866:	e9c0 3302 	strd	r3, r3, [r0, #8]
 800086a:	e9c0 2305 	strd	r2, r3, [r0, #20]
 800086e:	6103      	str	r3, [r0, #16]
 8000870:	61c3      	str	r3, [r0, #28]
 8000872:	f001 f9e3 	bl	8001c3c <HAL_UART_Init>
 8000876:	b108      	cbz	r0, 800087c <UART_Init+0x28>
 8000878:	b672      	cpsid	i
 800087a:	e7fe      	b.n	800087a <UART_Init+0x26>
 800087c:	bd08      	pop	{r3, pc}
 800087e:	bf00      	nop
 8000880:	200000cc 	.word	0x200000cc
 8000884:	40004400 	.word	0x40004400

08000888 <main>:
 8000888:	b510      	push	{r4, lr}
 800088a:	f000 f9bf 	bl	8000c0c <HAL_Init>
 800088e:	f7ff ff63 	bl	8000758 <SystemClock_Config>
 8000892:	f7ff ffdf 	bl	8000854 <UART_Init>
 8000896:	f7ff ffc5 	bl	8000824 <RTC_Init>
 800089a:	f7ff ffad 	bl	80007f8 <PWR_Init>
 800089e:	2000      	movs	r0, #0
 80008a0:	f000 f906 	bl	8000ab0 <BSP_LED_Init>
 80008a4:	2100      	movs	r1, #0
 80008a6:	4608      	mov	r0, r1
 80008a8:	4c13      	ldr	r4, [pc, #76]	; (80008f8 <main+0x70>)
 80008aa:	f000 f945 	bl	8000b38 <BSP_PB_Init>
 80008ae:	4813      	ldr	r0, [pc, #76]	; (80008fc <main+0x74>)
 80008b0:	f7ff fe82 	bl	80005b8 <print>
 80008b4:	6863      	ldr	r3, [r4, #4]
 80008b6:	079b      	lsls	r3, r3, #30
 80008b8:	d40c      	bmi.n	80008d4 <main+0x4c>
 80008ba:	2400      	movs	r4, #0
 80008bc:	2000      	movs	r0, #0
 80008be:	f000 f975 	bl	8000bac <BSP_PB_GetState>
 80008c2:	b9a8      	cbnz	r0, 80008f0 <main+0x68>
 80008c4:	b124      	cbz	r4, 80008d0 <main+0x48>
 80008c6:	2000      	movs	r0, #0
 80008c8:	f000 f970 	bl	8000bac <BSP_PB_GetState>
 80008cc:	2801      	cmp	r0, #1
 80008ce:	d00d      	beq.n	80008ec <main+0x64>
 80008d0:	2401      	movs	r4, #1
 80008d2:	e7f3      	b.n	80008bc <main+0x34>
 80008d4:	480a      	ldr	r0, [pc, #40]	; (8000900 <main+0x78>)
 80008d6:	2101      	movs	r1, #1
 80008d8:	f001 f917 	bl	8001b0a <HAL_RTCEx_BKUPRead>
 80008dc:	4b09      	ldr	r3, [pc, #36]	; (8000904 <main+0x7c>)
 80008de:	681b      	ldr	r3, [r3, #0]
 80008e0:	4283      	cmp	r3, r0
 80008e2:	d9ea      	bls.n	80008ba <main+0x32>
 80008e4:	6823      	ldr	r3, [r4, #0]
 80008e6:	f043 0308 	orr.w	r3, r3, #8
 80008ea:	6023      	str	r3, [r4, #0]
 80008ec:	f7ff ff1e 	bl	800072c <printStep>
 80008f0:	2c00      	cmp	r4, #0
 80008f2:	d0e3      	beq.n	80008bc <main+0x34>
 80008f4:	e7e7      	b.n	80008c6 <main+0x3e>
 80008f6:	bf00      	nop
 80008f8:	40007000 	.word	0x40007000
 80008fc:	0800267f 	.word	0x0800267f
 8000900:	200000ac 	.word	0x200000ac
 8000904:	20000004 	.word	0x20000004

08000908 <Error_Handler>:
 8000908:	b672      	cpsid	i
 800090a:	e7fe      	b.n	800090a <Error_Handler+0x2>

0800090c <HAL_MspInit>:
 800090c:	b082      	sub	sp, #8
 800090e:	4b0d      	ldr	r3, [pc, #52]	; (8000944 <HAL_MspInit+0x38>)
 8000910:	2100      	movs	r1, #0
 8000912:	9100      	str	r1, [sp, #0]
 8000914:	6c5a      	ldr	r2, [r3, #68]	; 0x44
 8000916:	f442 4280 	orr.w	r2, r2, #16384	; 0x4000
 800091a:	645a      	str	r2, [r3, #68]	; 0x44
 800091c:	6c5a      	ldr	r2, [r3, #68]	; 0x44
 800091e:	f402 4280 	and.w	r2, r2, #16384	; 0x4000
 8000922:	9200      	str	r2, [sp, #0]
 8000924:	9a00      	ldr	r2, [sp, #0]
 8000926:	9101      	str	r1, [sp, #4]
 8000928:	6c1a      	ldr	r2, [r3, #64]	; 0x40
 800092a:	f042 5280 	orr.w	r2, r2, #268435456	; 0x10000000
 800092e:	641a      	str	r2, [r3, #64]	; 0x40
 8000930:	6c1b      	ldr	r3, [r3, #64]	; 0x40
 8000932:	f003 5380 	and.w	r3, r3, #268435456	; 0x10000000
 8000936:	9301      	str	r3, [sp, #4]
 8000938:	9b01      	ldr	r3, [sp, #4]
 800093a:	2007      	movs	r0, #7
 800093c:	b002      	add	sp, #8
 800093e:	f000 b999 	b.w	8000c74 <HAL_NVIC_SetPriorityGrouping>
 8000942:	bf00      	nop
 8000944:	40023800 	.word	0x40023800

08000948 <HAL_RTC_MspInit>:
 8000948:	b510      	push	{r4, lr}
 800094a:	4604      	mov	r4, r0
 800094c:	b098      	sub	sp, #96	; 0x60
 800094e:	225c      	movs	r2, #92	; 0x5c
 8000950:	2100      	movs	r1, #0
 8000952:	a801      	add	r0, sp, #4
 8000954:	f001 fa20 	bl	8001d98 <memset>
 8000958:	6822      	ldr	r2, [r4, #0]
 800095a:	4b09      	ldr	r3, [pc, #36]	; (8000980 <HAL_RTC_MspInit+0x38>)
 800095c:	429a      	cmp	r2, r3
 800095e:	d10d      	bne.n	800097c <HAL_RTC_MspInit+0x34>
 8000960:	2320      	movs	r3, #32
 8000962:	9301      	str	r3, [sp, #4]
 8000964:	a801      	add	r0, sp, #4
 8000966:	f44f 7300 	mov.w	r3, #512	; 0x200
 800096a:	9311      	str	r3, [sp, #68]	; 0x44
 800096c:	f000 fbc6 	bl	80010fc <HAL_RCCEx_PeriphCLKConfig>
 8000970:	b108      	cbz	r0, 8000976 <HAL_RTC_MspInit+0x2e>
 8000972:	f7ff ffc9 	bl	8000908 <Error_Handler>
 8000976:	4b03      	ldr	r3, [pc, #12]	; (8000984 <HAL_RTC_MspInit+0x3c>)
 8000978:	2201      	movs	r2, #1
 800097a:	601a      	str	r2, [r3, #0]
 800097c:	b018      	add	sp, #96	; 0x60
 800097e:	bd10      	pop	{r4, pc}
 8000980:	40002800 	.word	0x40002800
 8000984:	42470e3c 	.word	0x42470e3c

08000988 <HAL_UART_MspInit>:
 8000988:	b510      	push	{r4, lr}
 800098a:	4604      	mov	r4, r0
 800098c:	b088      	sub	sp, #32
 800098e:	2214      	movs	r2, #20
 8000990:	2100      	movs	r1, #0
 8000992:	a803      	add	r0, sp, #12
 8000994:	f001 fa00 	bl	8001d98 <memset>
 8000998:	6822      	ldr	r2, [r4, #0]
 800099a:	4b14      	ldr	r3, [pc, #80]	; (80009ec <HAL_UART_MspInit+0x64>)
 800099c:	429a      	cmp	r2, r3
 800099e:	d123      	bne.n	80009e8 <HAL_UART_MspInit+0x60>
 80009a0:	f503 33fa 	add.w	r3, r3, #128000	; 0x1f400
 80009a4:	2200      	movs	r2, #0
 80009a6:	9201      	str	r2, [sp, #4]
 80009a8:	6c19      	ldr	r1, [r3, #64]	; 0x40
 80009aa:	f441 3100 	orr.w	r1, r1, #131072	; 0x20000
 80009ae:	6419      	str	r1, [r3, #64]	; 0x40
 80009b0:	6c19      	ldr	r1, [r3, #64]	; 0x40
 80009b2:	f401 3100 	and.w	r1, r1, #131072	; 0x20000
 80009b6:	9101      	str	r1, [sp, #4]
 80009b8:	9901      	ldr	r1, [sp, #4]
 80009ba:	9202      	str	r2, [sp, #8]
 80009bc:	6b19      	ldr	r1, [r3, #48]	; 0x30
 80009be:	f041 0101 	orr.w	r1, r1, #1
 80009c2:	6319      	str	r1, [r3, #48]	; 0x30
 80009c4:	6b1b      	ldr	r3, [r3, #48]	; 0x30
 80009c6:	9205      	str	r2, [sp, #20]
 80009c8:	f003 0301 	and.w	r3, r3, #1
 80009cc:	9302      	str	r3, [sp, #8]
 80009ce:	210c      	movs	r1, #12
 80009d0:	9b02      	ldr	r3, [sp, #8]
 80009d2:	2302      	movs	r3, #2
 80009d4:	e9cd 1303 	strd	r1, r3, [sp, #12]
 80009d8:	2003      	movs	r0, #3
 80009da:	2307      	movs	r3, #7
 80009dc:	e9cd 0306 	strd	r0, r3, [sp, #24]
 80009e0:	a903      	add	r1, sp, #12
 80009e2:	4803      	ldr	r0, [pc, #12]	; (80009f0 <HAL_UART_MspInit+0x68>)
 80009e4:	f000 f9ae 	bl	8000d44 <HAL_GPIO_Init>
 80009e8:	b008      	add	sp, #32
 80009ea:	bd10      	pop	{r4, pc}
 80009ec:	40004400 	.word	0x40004400
 80009f0:	40020000 	.word	0x40020000

080009f4 <NMI_Handler>:
 80009f4:	e7fe      	b.n	80009f4 <NMI_Handler>

080009f6 <HardFault_Handler>:
 80009f6:	e7fe      	b.n	80009f6 <HardFault_Handler>

080009f8 <MemManage_Handler>:
 80009f8:	e7fe      	b.n	80009f8 <MemManage_Handler>

080009fa <BusFault_Handler>:
 80009fa:	e7fe      	b.n	80009fa <BusFault_Handler>

080009fc <UsageFault_Handler>:
 80009fc:	e7fe      	b.n	80009fc <UsageFault_Handler>

080009fe <SVC_Handler>:
 80009fe:	4770      	bx	lr

08000a00 <DebugMon_Handler>:
 8000a00:	4770      	bx	lr

08000a02 <PendSV_Handler>:
 8000a02:	4770      	bx	lr

08000a04 <SysTick_Handler>:
 8000a04:	4770      	bx	lr
	...

08000a08 <_sbrk>:
 8000a08:	4b0b      	ldr	r3, [pc, #44]	; (8000a38 <_sbrk+0x30>)
 8000a0a:	6819      	ldr	r1, [r3, #0]
 8000a0c:	b510      	push	{r4, lr}
 8000a0e:	4602      	mov	r2, r0
 8000a10:	b909      	cbnz	r1, 8000a16 <_sbrk+0xe>
 8000a12:	490a      	ldr	r1, [pc, #40]	; (8000a3c <_sbrk+0x34>)
 8000a14:	6019      	str	r1, [r3, #0]
 8000a16:	6818      	ldr	r0, [r3, #0]
 8000a18:	4909      	ldr	r1, [pc, #36]	; (8000a40 <_sbrk+0x38>)
 8000a1a:	4c0a      	ldr	r4, [pc, #40]	; (8000a44 <_sbrk+0x3c>)
 8000a1c:	4402      	add	r2, r0
 8000a1e:	1b09      	subs	r1, r1, r4
 8000a20:	428a      	cmp	r2, r1
 8000a22:	d906      	bls.n	8000a32 <_sbrk+0x2a>
 8000a24:	f001 f98e 	bl	8001d44 <__errno>
 8000a28:	230c      	movs	r3, #12
 8000a2a:	6003      	str	r3, [r0, #0]
 8000a2c:	f04f 30ff 	mov.w	r0, #4294967295
 8000a30:	bd10      	pop	{r4, pc}
 8000a32:	601a      	str	r2, [r3, #0]
 8000a34:	e7fc      	b.n	8000a30 <_sbrk+0x28>
 8000a36:	bf00      	nop
 8000a38:	200000a0 	.word	0x200000a0
 8000a3c:	20000128 	.word	0x20000128
 8000a40:	20020000 	.word	0x20020000
 8000a44:	00000400 	.word	0x00000400

08000a48 <SystemInit>:
 8000a48:	4a03      	ldr	r2, [pc, #12]	; (8000a58 <SystemInit+0x10>)
 8000a4a:	f8d2 3088 	ldr.w	r3, [r2, #136]	; 0x88
 8000a4e:	f443 0370 	orr.w	r3, r3, #15728640	; 0xf00000
 8000a52:	f8c2 3088 	str.w	r3, [r2, #136]	; 0x88
 8000a56:	4770      	bx	lr
 8000a58:	e000ed00 	.word	0xe000ed00

08000a5c <Reset_Handler>:
 8000a5c:	f8df d034 	ldr.w	sp, [pc, #52]	; 8000a94 <LoopFillZerobss+0x12>
 8000a60:	480d      	ldr	r0, [pc, #52]	; (8000a98 <LoopFillZerobss+0x16>)
 8000a62:	490e      	ldr	r1, [pc, #56]	; (8000a9c <LoopFillZerobss+0x1a>)
 8000a64:	4a0e      	ldr	r2, [pc, #56]	; (8000aa0 <LoopFillZerobss+0x1e>)
 8000a66:	2300      	movs	r3, #0
 8000a68:	e002      	b.n	8000a70 <LoopCopyDataInit>

08000a6a <CopyDataInit>:
 8000a6a:	58d4      	ldr	r4, [r2, r3]
 8000a6c:	50c4      	str	r4, [r0, r3]
 8000a6e:	3304      	adds	r3, #4

08000a70 <LoopCopyDataInit>:
 8000a70:	18c4      	adds	r4, r0, r3
 8000a72:	428c      	cmp	r4, r1
 8000a74:	d3f9      	bcc.n	8000a6a <CopyDataInit>
 8000a76:	4a0b      	ldr	r2, [pc, #44]	; (8000aa4 <LoopFillZerobss+0x22>)
 8000a78:	4c0b      	ldr	r4, [pc, #44]	; (8000aa8 <LoopFillZerobss+0x26>)
 8000a7a:	2300      	movs	r3, #0
 8000a7c:	e001      	b.n	8000a82 <LoopFillZerobss>

08000a7e <FillZerobss>:
 8000a7e:	6013      	str	r3, [r2, #0]
 8000a80:	3204      	adds	r2, #4

08000a82 <LoopFillZerobss>:
 8000a82:	42a2      	cmp	r2, r4
 8000a84:	d3fb      	bcc.n	8000a7e <FillZerobss>
 8000a86:	f7ff ffdf 	bl	8000a48 <SystemInit>
 8000a8a:	f001 f961 	bl	8001d50 <__libc_init_array>
 8000a8e:	f7ff fefb 	bl	8000888 <main>
 8000a92:	4770      	bx	lr
 8000a94:	20020000 	.word	0x20020000
 8000a98:	20000000 	.word	0x20000000
 8000a9c:	20000080 	.word	0x20000080
 8000aa0:	080026f8 	.word	0x080026f8
 8000aa4:	20000080 	.word	0x20000080
 8000aa8:	20000124 	.word	0x20000124

08000aac <ADC_IRQHandler>:
 8000aac:	e7fe      	b.n	8000aac <ADC_IRQHandler>
	...

08000ab0 <BSP_LED_Init>:
 8000ab0:	b5f0      	push	{r4, r5, r6, r7, lr}
 8000ab2:	b087      	sub	sp, #28
 8000ab4:	2500      	movs	r5, #0
 8000ab6:	4b10      	ldr	r3, [pc, #64]	; (8000af8 <BSP_LED_Init+0x48>)
 8000ab8:	9500      	str	r5, [sp, #0]
 8000aba:	6b1a      	ldr	r2, [r3, #48]	; 0x30
 8000abc:	4e0f      	ldr	r6, [pc, #60]	; (8000afc <BSP_LED_Init+0x4c>)
 8000abe:	f042 0201 	orr.w	r2, r2, #1
 8000ac2:	631a      	str	r2, [r3, #48]	; 0x30
 8000ac4:	6b1b      	ldr	r3, [r3, #48]	; 0x30
 8000ac6:	9503      	str	r5, [sp, #12]
 8000ac8:	f003 0301 	and.w	r3, r3, #1
 8000acc:	9300      	str	r3, [sp, #0]
 8000ace:	9b00      	ldr	r3, [sp, #0]
 8000ad0:	4604      	mov	r4, r0
 8000ad2:	2720      	movs	r7, #32
 8000ad4:	2301      	movs	r3, #1
 8000ad6:	e9cd 7301 	strd	r7, r3, [sp, #4]
 8000ada:	f856 0020 	ldr.w	r0, [r6, r0, lsl #2]
 8000ade:	2302      	movs	r3, #2
 8000ae0:	a901      	add	r1, sp, #4
 8000ae2:	9304      	str	r3, [sp, #16]
 8000ae4:	f000 f92e 	bl	8000d44 <HAL_GPIO_Init>
 8000ae8:	f856 0024 	ldr.w	r0, [r6, r4, lsl #2]
 8000aec:	462a      	mov	r2, r5
 8000aee:	4639      	mov	r1, r7
 8000af0:	f000 fa02 	bl	8000ef8 <HAL_GPIO_WritePin>
 8000af4:	b007      	add	sp, #28
 8000af6:	bdf0      	pop	{r4, r5, r6, r7, pc}
 8000af8:	40023800 	.word	0x40023800
 8000afc:	20000010 	.word	0x20000010

08000b00 <BSP_LED_On>:
 8000b00:	4b03      	ldr	r3, [pc, #12]	; (8000b10 <BSP_LED_On+0x10>)
 8000b02:	2201      	movs	r2, #1
 8000b04:	f853 0020 	ldr.w	r0, [r3, r0, lsl #2]
 8000b08:	2120      	movs	r1, #32
 8000b0a:	f000 b9f5 	b.w	8000ef8 <HAL_GPIO_WritePin>
 8000b0e:	bf00      	nop
 8000b10:	20000010 	.word	0x20000010

08000b14 <BSP_LED_Off>:
 8000b14:	4b03      	ldr	r3, [pc, #12]	; (8000b24 <BSP_LED_Off+0x10>)
 8000b16:	2200      	movs	r2, #0
 8000b18:	f853 0020 	ldr.w	r0, [r3, r0, lsl #2]
 8000b1c:	2120      	movs	r1, #32
 8000b1e:	f000 b9eb 	b.w	8000ef8 <HAL_GPIO_WritePin>
 8000b22:	bf00      	nop
 8000b24:	20000010 	.word	0x20000010

08000b28 <BSP_LED_Toggle>:
 8000b28:	4b02      	ldr	r3, [pc, #8]	; (8000b34 <BSP_LED_Toggle+0xc>)
 8000b2a:	2120      	movs	r1, #32
 8000b2c:	f853 0020 	ldr.w	r0, [r3, r0, lsl #2]
 8000b30:	f000 b9e7 	b.w	8000f02 <HAL_GPIO_TogglePin>
 8000b34:	20000010 	.word	0x20000010

08000b38 <BSP_PB_Init>:
 8000b38:	b510      	push	{r4, lr}
 8000b3a:	b086      	sub	sp, #24
 8000b3c:	4b19      	ldr	r3, [pc, #100]	; (8000ba4 <BSP_PB_Init+0x6c>)
 8000b3e:	2400      	movs	r4, #0
 8000b40:	9400      	str	r4, [sp, #0]
 8000b42:	6b1a      	ldr	r2, [r3, #48]	; 0x30
 8000b44:	f042 0204 	orr.w	r2, r2, #4
 8000b48:	631a      	str	r2, [r3, #48]	; 0x30
 8000b4a:	6b1b      	ldr	r3, [r3, #48]	; 0x30
 8000b4c:	f003 0304 	and.w	r3, r3, #4
 8000b50:	9300      	str	r3, [sp, #0]
 8000b52:	9b00      	ldr	r3, [sp, #0]
 8000b54:	b971      	cbnz	r1, 8000b74 <BSP_PB_Init+0x3c>
 8000b56:	f44f 5300 	mov.w	r3, #8192	; 0x2000
 8000b5a:	e9cd 3101 	strd	r3, r1, [sp, #4]
 8000b5e:	2302      	movs	r3, #2
 8000b60:	e9cd 3303 	strd	r3, r3, [sp, #12]
 8000b64:	4b10      	ldr	r3, [pc, #64]	; (8000ba8 <BSP_PB_Init+0x70>)
 8000b66:	a901      	add	r1, sp, #4
 8000b68:	f853 0020 	ldr.w	r0, [r3, r0, lsl #2]
 8000b6c:	f000 f8ea 	bl	8000d44 <HAL_GPIO_Init>
 8000b70:	b006      	add	sp, #24
 8000b72:	bd10      	pop	{r4, pc}
 8000b74:	2901      	cmp	r1, #1
 8000b76:	d1fb      	bne.n	8000b70 <BSP_PB_Init+0x38>
 8000b78:	f44f 5300 	mov.w	r3, #8192	; 0x2000
 8000b7c:	9301      	str	r3, [sp, #4]
 8000b7e:	f44f 1304 	mov.w	r3, #2162688	; 0x210000
 8000b82:	9302      	str	r3, [sp, #8]
 8000b84:	4b08      	ldr	r3, [pc, #32]	; (8000ba8 <BSP_PB_Init+0x70>)
 8000b86:	9403      	str	r4, [sp, #12]
 8000b88:	f853 0020 	ldr.w	r0, [r3, r0, lsl #2]
 8000b8c:	a901      	add	r1, sp, #4
 8000b8e:	f000 f8d9 	bl	8000d44 <HAL_GPIO_Init>
 8000b92:	4622      	mov	r2, r4
 8000b94:	210f      	movs	r1, #15
 8000b96:	2028      	movs	r0, #40	; 0x28
 8000b98:	f000 f87e 	bl	8000c98 <HAL_NVIC_SetPriority>
 8000b9c:	2028      	movs	r0, #40	; 0x28
 8000b9e:	f000 f8ad 	bl	8000cfc <HAL_NVIC_EnableIRQ>
 8000ba2:	e7e5      	b.n	8000b70 <BSP_PB_Init+0x38>
 8000ba4:	40023800 	.word	0x40023800
 8000ba8:	2000000c 	.word	0x2000000c

08000bac <BSP_PB_GetState>:
 8000bac:	b508      	push	{r3, lr}
 8000bae:	4b04      	ldr	r3, [pc, #16]	; (8000bc0 <BSP_PB_GetState+0x14>)
 8000bb0:	f44f 5100 	mov.w	r1, #8192	; 0x2000
 8000bb4:	f853 0020 	ldr.w	r0, [r3, r0, lsl #2]
 8000bb8:	f000 f998 	bl	8000eec <HAL_GPIO_ReadPin>
 8000bbc:	bd08      	pop	{r3, pc}
 8000bbe:	bf00      	nop
 8000bc0:	2000000c 	.word	0x2000000c

08000bc4 <HAL_InitTick>:
 8000bc4:	b538      	push	{r3, r4, r5, lr}
 8000bc6:	4a0e      	ldr	r2, [pc, #56]	; (8000c00 <HAL_InitTick+0x3c>)
 8000bc8:	4b0e      	ldr	r3, [pc, #56]	; (8000c04 <HAL_InitTick+0x40>)
 8000bca:	4605      	mov	r5, r0
 8000bcc:	7818      	ldrb	r0, [r3, #0]
 8000bce:	f44f 737a 	mov.w	r3, #1000	; 0x3e8
 8000bd2:	fbb3 f3f0 	udiv	r3, r3, r0
 8000bd6:	6810      	ldr	r0, [r2, #0]
 8000bd8:	fbb0 f0f3 	udiv	r0, r0, r3
 8000bdc:	f000 f89c 	bl	8000d18 <HAL_SYSTICK_Config>
 8000be0:	4604      	mov	r4, r0
 8000be2:	b958      	cbnz	r0, 8000bfc <HAL_InitTick+0x38>
 8000be4:	2d0f      	cmp	r5, #15
 8000be6:	d809      	bhi.n	8000bfc <HAL_InitTick+0x38>
 8000be8:	4602      	mov	r2, r0
 8000bea:	4629      	mov	r1, r5
 8000bec:	f04f 30ff 	mov.w	r0, #4294967295
 8000bf0:	f000 f852 	bl	8000c98 <HAL_NVIC_SetPriority>
 8000bf4:	4b04      	ldr	r3, [pc, #16]	; (8000c08 <HAL_InitTick+0x44>)
 8000bf6:	4620      	mov	r0, r4
 8000bf8:	601d      	str	r5, [r3, #0]
 8000bfa:	bd38      	pop	{r3, r4, r5, pc}
 8000bfc:	2001      	movs	r0, #1
 8000bfe:	e7fc      	b.n	8000bfa <HAL_InitTick+0x36>
 8000c00:	20000008 	.word	0x20000008
 8000c04:	20000014 	.word	0x20000014
 8000c08:	20000018 	.word	0x20000018

08000c0c <HAL_Init>:
 8000c0c:	b508      	push	{r3, lr}
 8000c0e:	4b0b      	ldr	r3, [pc, #44]	; (8000c3c <HAL_Init+0x30>)
 8000c10:	681a      	ldr	r2, [r3, #0]
 8000c12:	f442 7200 	orr.w	r2, r2, #512	; 0x200
 8000c16:	601a      	str	r2, [r3, #0]
 8000c18:	681a      	ldr	r2, [r3, #0]
 8000c1a:	f442 6280 	orr.w	r2, r2, #1024	; 0x400
 8000c1e:	601a      	str	r2, [r3, #0]
 8000c20:	681a      	ldr	r2, [r3, #0]
 8000c22:	f442 7280 	orr.w	r2, r2, #256	; 0x100
 8000c26:	601a      	str	r2, [r3, #0]
 8000c28:	2003      	movs	r0, #3
 8000c2a:	f000 f823 	bl	8000c74 <HAL_NVIC_SetPriorityGrouping>
 8000c2e:	2000      	movs	r0, #0
 8000c30:	f7ff ffc8 	bl	8000bc4 <HAL_InitTick>
 8000c34:	f7ff fe6a 	bl	800090c <HAL_MspInit>
 8000c38:	2000      	movs	r0, #0
 8000c3a:	bd08      	pop	{r3, pc}
 8000c3c:	40023c00 	.word	0x40023c00

08000c40 <HAL_GetTick>:
 8000c40:	4b01      	ldr	r3, [pc, #4]	; (8000c48 <HAL_GetTick+0x8>)
 8000c42:	6818      	ldr	r0, [r3, #0]
 8000c44:	4770      	bx	lr
 8000c46:	bf00      	nop
 8000c48:	20000110 	.word	0x20000110

08000c4c <HAL_Delay>:
 8000c4c:	b538      	push	{r3, r4, r5, lr}
 8000c4e:	4604      	mov	r4, r0
 8000c50:	f7ff fff6 	bl	8000c40 <HAL_GetTick>
 8000c54:	1c63      	adds	r3, r4, #1
 8000c56:	bf1c      	itt	ne
 8000c58:	4b05      	ldrne	r3, [pc, #20]	; (8000c70 <HAL_Delay+0x24>)
 8000c5a:	781b      	ldrbne	r3, [r3, #0]
 8000c5c:	4605      	mov	r5, r0
 8000c5e:	bf18      	it	ne
 8000c60:	18e4      	addne	r4, r4, r3
 8000c62:	f7ff ffed 	bl	8000c40 <HAL_GetTick>
 8000c66:	1b43      	subs	r3, r0, r5
 8000c68:	42a3      	cmp	r3, r4
 8000c6a:	d3fa      	bcc.n	8000c62 <HAL_Delay+0x16>
 8000c6c:	bd38      	pop	{r3, r4, r5, pc}
 8000c6e:	bf00      	nop
 8000c70:	20000014 	.word	0x20000014

08000c74 <HAL_NVIC_SetPriorityGrouping>:
 8000c74:	4907      	ldr	r1, [pc, #28]	; (8000c94 <HAL_NVIC_SetPriorityGrouping+0x20>)
 8000c76:	68ca      	ldr	r2, [r1, #12]
 8000c78:	f422 62e0 	bic.w	r2, r2, #1792	; 0x700
 8000c7c:	0203      	lsls	r3, r0, #8
 8000c7e:	0412      	lsls	r2, r2, #16
 8000c80:	f403 63e0 	and.w	r3, r3, #1792	; 0x700
 8000c84:	0c12      	lsrs	r2, r2, #16
 8000c86:	4313      	orrs	r3, r2
 8000c88:	f043 63bf 	orr.w	r3, r3, #100139008	; 0x5f80000
 8000c8c:	f443 3300 	orr.w	r3, r3, #131072	; 0x20000
 8000c90:	60cb      	str	r3, [r1, #12]
 8000c92:	4770      	bx	lr
 8000c94:	e000ed00 	.word	0xe000ed00

08000c98 <HAL_NVIC_SetPriority>:
 8000c98:	4b16      	ldr	r3, [pc, #88]	; (8000cf4 <HAL_NVIC_SetPriority+0x5c>)
 8000c9a:	b530      	push	{r4, r5, lr}
 8000c9c:	68dc      	ldr	r4, [r3, #12]
 8000c9e:	f3c4 2402 	ubfx	r4, r4, #8, #3
 8000ca2:	f1c4 0507 	rsb	r5, r4, #7
 8000ca6:	1d23      	adds	r3, r4, #4
 8000ca8:	2d04      	cmp	r5, #4
 8000caa:	bf28      	it	cs
 8000cac:	2504      	movcs	r5, #4
 8000cae:	2b06      	cmp	r3, #6
 8000cb0:	f04f 33ff 	mov.w	r3, #4294967295
 8000cb4:	bf8c      	ite	hi
 8000cb6:	3c03      	subhi	r4, #3
 8000cb8:	2400      	movls	r4, #0
 8000cba:	fa03 f505 	lsl.w	r5, r3, r5
 8000cbe:	ea21 0105 	bic.w	r1, r1, r5
 8000cc2:	40a3      	lsls	r3, r4
 8000cc4:	ea22 0203 	bic.w	r2, r2, r3
 8000cc8:	40a1      	lsls	r1, r4
 8000cca:	2800      	cmp	r0, #0
 8000ccc:	ea41 0302 	orr.w	r3, r1, r2
 8000cd0:	bfac      	ite	ge
 8000cd2:	f100 4060 	addge.w	r0, r0, #3758096384	; 0xe0000000
 8000cd6:	4a08      	ldrlt	r2, [pc, #32]	; (8000cf8 <HAL_NVIC_SetPriority+0x60>)
 8000cd8:	ea4f 1303 	mov.w	r3, r3, lsl #4
 8000cdc:	bfb8      	it	lt
 8000cde:	f000 000f 	andlt.w	r0, r0, #15
 8000ce2:	b2db      	uxtb	r3, r3
 8000ce4:	bfaa      	itet	ge
 8000ce6:	f500 4061 	addge.w	r0, r0, #57600	; 0xe100
 8000cea:	5413      	strblt	r3, [r2, r0]
 8000cec:	f880 3300 	strbge.w	r3, [r0, #768]	; 0x300
 8000cf0:	bd30      	pop	{r4, r5, pc}
 8000cf2:	bf00      	nop
 8000cf4:	e000ed00 	.word	0xe000ed00
 8000cf8:	e000ed14 	.word	0xe000ed14

08000cfc <HAL_NVIC_EnableIRQ>:
 8000cfc:	2800      	cmp	r0, #0
 8000cfe:	db08      	blt.n	8000d12 <HAL_NVIC_EnableIRQ+0x16>
 8000d00:	0942      	lsrs	r2, r0, #5
 8000d02:	2301      	movs	r3, #1
 8000d04:	f000 001f 	and.w	r0, r0, #31
 8000d08:	fa03 f000 	lsl.w	r0, r3, r0
 8000d0c:	4b01      	ldr	r3, [pc, #4]	; (8000d14 <HAL_NVIC_EnableIRQ+0x18>)
 8000d0e:	f843 0022 	str.w	r0, [r3, r2, lsl #2]
 8000d12:	4770      	bx	lr
 8000d14:	e000e100 	.word	0xe000e100

08000d18 <HAL_SYSTICK_Config>:
 8000d18:	3801      	subs	r0, #1
 8000d1a:	f1b0 7f80 	cmp.w	r0, #16777216	; 0x1000000
 8000d1e:	d20a      	bcs.n	8000d36 <HAL_SYSTICK_Config+0x1e>
 8000d20:	4b06      	ldr	r3, [pc, #24]	; (8000d3c <HAL_SYSTICK_Config+0x24>)
 8000d22:	4a07      	ldr	r2, [pc, #28]	; (8000d40 <HAL_SYSTICK_Config+0x28>)
 8000d24:	6058      	str	r0, [r3, #4]
 8000d26:	21f0      	movs	r1, #240	; 0xf0
 8000d28:	f882 1023 	strb.w	r1, [r2, #35]	; 0x23
 8000d2c:	2000      	movs	r0, #0
 8000d2e:	2207      	movs	r2, #7
 8000d30:	6098      	str	r0, [r3, #8]
 8000d32:	601a      	str	r2, [r3, #0]
 8000d34:	4770      	bx	lr
 8000d36:	2001      	movs	r0, #1
 8000d38:	4770      	bx	lr
 8000d3a:	bf00      	nop
 8000d3c:	e000e010 	.word	0xe000e010
 8000d40:	e000ed00 	.word	0xe000ed00

08000d44 <HAL_GPIO_Init>:
 8000d44:	e92d 4ff7 	stmdb	sp!, {r0, r1, r2, r4, r5, r6, r7, r8, r9, sl, fp, lr}
 8000d48:	f8df 919c 	ldr.w	r9, [pc, #412]	; 8000ee8 <HAL_GPIO_Init+0x1a4>
 8000d4c:	4a64      	ldr	r2, [pc, #400]	; (8000ee0 <HAL_GPIO_Init+0x19c>)
 8000d4e:	2300      	movs	r3, #0
 8000d50:	680d      	ldr	r5, [r1, #0]
 8000d52:	2401      	movs	r4, #1
 8000d54:	409c      	lsls	r4, r3
 8000d56:	ea04 0c05 	and.w	ip, r4, r5
 8000d5a:	43ac      	bics	r4, r5
 8000d5c:	f040 80ad 	bne.w	8000eba <HAL_GPIO_Init+0x176>
 8000d60:	684d      	ldr	r5, [r1, #4]
 8000d62:	f005 0403 	and.w	r4, r5, #3
 8000d66:	ea4f 0843 	mov.w	r8, r3, lsl #1
 8000d6a:	2603      	movs	r6, #3
 8000d6c:	1e67      	subs	r7, r4, #1
 8000d6e:	fa06 f608 	lsl.w	r6, r6, r8
 8000d72:	2f01      	cmp	r7, #1
 8000d74:	ea6f 0606 	mvn.w	r6, r6
 8000d78:	d834      	bhi.n	8000de4 <HAL_GPIO_Init+0xa0>
 8000d7a:	6887      	ldr	r7, [r0, #8]
 8000d7c:	ea07 0e06 	and.w	lr, r7, r6
 8000d80:	68cf      	ldr	r7, [r1, #12]
 8000d82:	fa07 f708 	lsl.w	r7, r7, r8
 8000d86:	ea47 070e 	orr.w	r7, r7, lr
 8000d8a:	6087      	str	r7, [r0, #8]
 8000d8c:	6847      	ldr	r7, [r0, #4]
 8000d8e:	ea27 0e0c 	bic.w	lr, r7, ip
 8000d92:	f3c5 1700 	ubfx	r7, r5, #4, #1
 8000d96:	409f      	lsls	r7, r3
 8000d98:	ea47 070e 	orr.w	r7, r7, lr
 8000d9c:	6047      	str	r7, [r0, #4]
 8000d9e:	68c7      	ldr	r7, [r0, #12]
 8000da0:	ea07 0e06 	and.w	lr, r7, r6
 8000da4:	688f      	ldr	r7, [r1, #8]
 8000da6:	fa07 f708 	lsl.w	r7, r7, r8
 8000daa:	ea47 070e 	orr.w	r7, r7, lr
 8000dae:	2c02      	cmp	r4, #2
 8000db0:	60c7      	str	r7, [r0, #12]
 8000db2:	d119      	bne.n	8000de8 <HAL_GPIO_Init+0xa4>
 8000db4:	ea4f 0ad3 	mov.w	sl, r3, lsr #3
 8000db8:	eb00 0a8a 	add.w	sl, r0, sl, lsl #2
 8000dbc:	f003 0b07 	and.w	fp, r3, #7
 8000dc0:	f8da 7020 	ldr.w	r7, [sl, #32]
 8000dc4:	ea4f 0b8b 	mov.w	fp, fp, lsl #2
 8000dc8:	f04f 0e0f 	mov.w	lr, #15
 8000dcc:	fa0e fe0b 	lsl.w	lr, lr, fp
 8000dd0:	ea27 0e0e 	bic.w	lr, r7, lr
 8000dd4:	690f      	ldr	r7, [r1, #16]
 8000dd6:	fa07 f70b 	lsl.w	r7, r7, fp
 8000dda:	ea47 070e 	orr.w	r7, r7, lr
 8000dde:	f8ca 7020 	str.w	r7, [sl, #32]
 8000de2:	e001      	b.n	8000de8 <HAL_GPIO_Init+0xa4>
 8000de4:	2c03      	cmp	r4, #3
 8000de6:	d1da      	bne.n	8000d9e <HAL_GPIO_Init+0x5a>
 8000de8:	6807      	ldr	r7, [r0, #0]
 8000dea:	fa04 f408 	lsl.w	r4, r4, r8
 8000dee:	403e      	ands	r6, r7
 8000df0:	4326      	orrs	r6, r4
 8000df2:	f415 3f40 	tst.w	r5, #196608	; 0x30000
 8000df6:	6006      	str	r6, [r0, #0]
 8000df8:	d05f      	beq.n	8000eba <HAL_GPIO_Init+0x176>
 8000dfa:	f04f 0a00 	mov.w	sl, #0
 8000dfe:	f8cd a004 	str.w	sl, [sp, #4]
 8000e02:	f8d9 6044 	ldr.w	r6, [r9, #68]	; 0x44
 8000e06:	4c37      	ldr	r4, [pc, #220]	; (8000ee4 <HAL_GPIO_Init+0x1a0>)
 8000e08:	f446 4680 	orr.w	r6, r6, #16384	; 0x4000
 8000e0c:	f8c9 6044 	str.w	r6, [r9, #68]	; 0x44
 8000e10:	f8d9 6044 	ldr.w	r6, [r9, #68]	; 0x44
 8000e14:	f406 4680 	and.w	r6, r6, #16384	; 0x4000
 8000e18:	9601      	str	r6, [sp, #4]
 8000e1a:	9e01      	ldr	r6, [sp, #4]
 8000e1c:	f023 0603 	bic.w	r6, r3, #3
 8000e20:	f106 4680 	add.w	r6, r6, #1073741824	; 0x40000000
 8000e24:	f506 369c 	add.w	r6, r6, #79872	; 0x13800
 8000e28:	f003 0e03 	and.w	lr, r3, #3
 8000e2c:	f8d6 8008 	ldr.w	r8, [r6, #8]
 8000e30:	ea4f 0e8e 	mov.w	lr, lr, lsl #2
 8000e34:	270f      	movs	r7, #15
 8000e36:	fa07 f70e 	lsl.w	r7, r7, lr
 8000e3a:	42a0      	cmp	r0, r4
 8000e3c:	ea28 0707 	bic.w	r7, r8, r7
 8000e40:	d042      	beq.n	8000ec8 <HAL_GPIO_Init+0x184>
 8000e42:	f504 6480 	add.w	r4, r4, #1024	; 0x400
 8000e46:	42a0      	cmp	r0, r4
 8000e48:	d040      	beq.n	8000ecc <HAL_GPIO_Init+0x188>
 8000e4a:	f504 6480 	add.w	r4, r4, #1024	; 0x400
 8000e4e:	42a0      	cmp	r0, r4
 8000e50:	d03e      	beq.n	8000ed0 <HAL_GPIO_Init+0x18c>
 8000e52:	f504 6480 	add.w	r4, r4, #1024	; 0x400
 8000e56:	42a0      	cmp	r0, r4
 8000e58:	d03c      	beq.n	8000ed4 <HAL_GPIO_Init+0x190>
 8000e5a:	f504 6480 	add.w	r4, r4, #1024	; 0x400
 8000e5e:	42a0      	cmp	r0, r4
 8000e60:	d03a      	beq.n	8000ed8 <HAL_GPIO_Init+0x194>
 8000e62:	f504 6480 	add.w	r4, r4, #1024	; 0x400
 8000e66:	42a0      	cmp	r0, r4
 8000e68:	d038      	beq.n	8000edc <HAL_GPIO_Init+0x198>
 8000e6a:	f504 6480 	add.w	r4, r4, #1024	; 0x400
 8000e6e:	42a0      	cmp	r0, r4
 8000e70:	bf0c      	ite	eq
 8000e72:	2406      	moveq	r4, #6
 8000e74:	2407      	movne	r4, #7
 8000e76:	fa04 f40e 	lsl.w	r4, r4, lr
 8000e7a:	433c      	orrs	r4, r7
 8000e7c:	60b4      	str	r4, [r6, #8]
 8000e7e:	6814      	ldr	r4, [r2, #0]
 8000e80:	ea6f 060c 	mvn.w	r6, ip
 8000e84:	03ef      	lsls	r7, r5, #15
 8000e86:	bf54      	ite	pl
 8000e88:	4034      	andpl	r4, r6
 8000e8a:	ea4c 0404 	orrmi.w	r4, ip, r4
 8000e8e:	6014      	str	r4, [r2, #0]
 8000e90:	6854      	ldr	r4, [r2, #4]
 8000e92:	03af      	lsls	r7, r5, #14
 8000e94:	bf54      	ite	pl
 8000e96:	4034      	andpl	r4, r6
 8000e98:	ea4c 0404 	orrmi.w	r4, ip, r4
 8000e9c:	6054      	str	r4, [r2, #4]
 8000e9e:	6894      	ldr	r4, [r2, #8]
 8000ea0:	02ef      	lsls	r7, r5, #11
 8000ea2:	bf54      	ite	pl
 8000ea4:	4034      	andpl	r4, r6
 8000ea6:	ea4c 0404 	orrmi.w	r4, ip, r4
 8000eaa:	6094      	str	r4, [r2, #8]
 8000eac:	68d4      	ldr	r4, [r2, #12]
 8000eae:	02ad      	lsls	r5, r5, #10
 8000eb0:	bf54      	ite	pl
 8000eb2:	4034      	andpl	r4, r6
 8000eb4:	ea4c 0404 	orrmi.w	r4, ip, r4
 8000eb8:	60d4      	str	r4, [r2, #12]
 8000eba:	3301      	adds	r3, #1
 8000ebc:	2b10      	cmp	r3, #16
 8000ebe:	f47f af47 	bne.w	8000d50 <HAL_GPIO_Init+0xc>
 8000ec2:	b003      	add	sp, #12
 8000ec4:	e8bd 8ff0 	ldmia.w	sp!, {r4, r5, r6, r7, r8, r9, sl, fp, pc}
 8000ec8:	4654      	mov	r4, sl
 8000eca:	e7d4      	b.n	8000e76 <HAL_GPIO_Init+0x132>
 8000ecc:	2401      	movs	r4, #1
 8000ece:	e7d2      	b.n	8000e76 <HAL_GPIO_Init+0x132>
 8000ed0:	2402      	movs	r4, #2
 8000ed2:	e7d0      	b.n	8000e76 <HAL_GPIO_Init+0x132>
 8000ed4:	2403      	movs	r4, #3
 8000ed6:	e7ce      	b.n	8000e76 <HAL_GPIO_Init+0x132>
 8000ed8:	2404      	movs	r4, #4
 8000eda:	e7cc      	b.n	8000e76 <HAL_GPIO_Init+0x132>
 8000edc:	2405      	movs	r4, #5
 8000ede:	e7ca      	b.n	8000e76 <HAL_GPIO_Init+0x132>
 8000ee0:	40013c00 	.word	0x40013c00
 8000ee4:	40020000 	.word	0x40020000
 8000ee8:	40023800 	.word	0x40023800

08000eec <HAL_GPIO_ReadPin>:
 8000eec:	6903      	ldr	r3, [r0, #16]
 8000eee:	4219      	tst	r1, r3
 8000ef0:	bf14      	ite	ne
 8000ef2:	2001      	movne	r0, #1
 8000ef4:	2000      	moveq	r0, #0
 8000ef6:	4770      	bx	lr

08000ef8 <HAL_GPIO_WritePin>:
 8000ef8:	b10a      	cbz	r2, 8000efe <HAL_GPIO_WritePin+0x6>
 8000efa:	6181      	str	r1, [r0, #24]
 8000efc:	4770      	bx	lr
 8000efe:	0409      	lsls	r1, r1, #16
 8000f00:	e7fb      	b.n	8000efa <HAL_GPIO_WritePin+0x2>

08000f02 <HAL_GPIO_TogglePin>:
 8000f02:	6943      	ldr	r3, [r0, #20]
 8000f04:	ea01 0203 	and.w	r2, r1, r3
 8000f08:	ea21 0103 	bic.w	r1, r1, r3
 8000f0c:	ea41 4102 	orr.w	r1, r1, r2, lsl #16
 8000f10:	6181      	str	r1, [r0, #24]
 8000f12:	4770      	bx	lr

08000f14 <HAL_PWR_EnableBkUpAccess>:
 8000f14:	4b04      	ldr	r3, [pc, #16]	; (8000f28 <HAL_PWR_EnableBkUpAccess+0x14>)
 8000f16:	2201      	movs	r2, #1
 8000f18:	601a      	str	r2, [r3, #0]
 8000f1a:	4b04      	ldr	r3, [pc, #16]	; (8000f2c <HAL_PWR_EnableBkUpAccess+0x18>)
 8000f1c:	b082      	sub	sp, #8
 8000f1e:	681b      	ldr	r3, [r3, #0]
 8000f20:	9301      	str	r3, [sp, #4]
 8000f22:	9b01      	ldr	r3, [sp, #4]
 8000f24:	b002      	add	sp, #8
 8000f26:	4770      	bx	lr
 8000f28:	420e0020 	.word	0x420e0020
 8000f2c:	40007000 	.word	0x40007000

08000f30 <HAL_PWR_EnterSTANDBYMode>:
 8000f30:	4a05      	ldr	r2, [pc, #20]	; (8000f48 <HAL_PWR_EnterSTANDBYMode+0x18>)
 8000f32:	6813      	ldr	r3, [r2, #0]
 8000f34:	f043 0302 	orr.w	r3, r3, #2
 8000f38:	6013      	str	r3, [r2, #0]
 8000f3a:	4a04      	ldr	r2, [pc, #16]	; (8000f4c <HAL_PWR_EnterSTANDBYMode+0x1c>)
 8000f3c:	6913      	ldr	r3, [r2, #16]
 8000f3e:	f043 0304 	orr.w	r3, r3, #4
 8000f42:	6113      	str	r3, [r2, #16]
 8000f44:	bf30      	wfi
 8000f46:	4770      	bx	lr
 8000f48:	40007000 	.word	0x40007000
 8000f4c:	e000ed00 	.word	0xe000ed00

08000f50 <HAL_PWREx_EnableBkUpReg>:
 8000f50:	b538      	push	{r3, r4, r5, lr}
 8000f52:	4b0a      	ldr	r3, [pc, #40]	; (8000f7c <HAL_PWREx_EnableBkUpReg+0x2c>)
 8000f54:	4d0a      	ldr	r5, [pc, #40]	; (8000f80 <HAL_PWREx_EnableBkUpReg+0x30>)
 8000f56:	2201      	movs	r2, #1
 8000f58:	601a      	str	r2, [r3, #0]
 8000f5a:	f7ff fe71 	bl	8000c40 <HAL_GetTick>
 8000f5e:	4604      	mov	r4, r0
 8000f60:	686b      	ldr	r3, [r5, #4]
 8000f62:	071b      	lsls	r3, r3, #28
 8000f64:	d501      	bpl.n	8000f6a <HAL_PWREx_EnableBkUpReg+0x1a>
 8000f66:	2000      	movs	r0, #0
 8000f68:	bd38      	pop	{r3, r4, r5, pc}
 8000f6a:	f7ff fe69 	bl	8000c40 <HAL_GetTick>
 8000f6e:	1b00      	subs	r0, r0, r4
 8000f70:	f5b0 7f7a 	cmp.w	r0, #1000	; 0x3e8
 8000f74:	d9f4      	bls.n	8000f60 <HAL_PWREx_EnableBkUpReg+0x10>
 8000f76:	2003      	movs	r0, #3
 8000f78:	e7f6      	b.n	8000f68 <HAL_PWREx_EnableBkUpReg+0x18>
 8000f7a:	bf00      	nop
 8000f7c:	420e00a4 	.word	0x420e00a4
 8000f80:	40007000 	.word	0x40007000

08000f84 <HAL_RCC_ClockConfig>:
 8000f84:	e92d 41f0 	stmdb	sp!, {r4, r5, r6, r7, r8, lr}
 8000f88:	460d      	mov	r5, r1
 8000f8a:	4604      	mov	r4, r0
 8000f8c:	b910      	cbnz	r0, 8000f94 <HAL_RCC_ClockConfig+0x10>
 8000f8e:	2001      	movs	r0, #1
 8000f90:	e8bd 81f0 	ldmia.w	sp!, {r4, r5, r6, r7, r8, pc}
 8000f94:	4b44      	ldr	r3, [pc, #272]	; (80010a8 <HAL_RCC_ClockConfig+0x124>)
 8000f96:	681a      	ldr	r2, [r3, #0]
 8000f98:	f002 020f 	and.w	r2, r2, #15
 8000f9c:	428a      	cmp	r2, r1
 8000f9e:	d328      	bcc.n	8000ff2 <HAL_RCC_ClockConfig+0x6e>
 8000fa0:	6822      	ldr	r2, [r4, #0]
 8000fa2:	0797      	lsls	r7, r2, #30
 8000fa4:	d42d      	bmi.n	8001002 <HAL_RCC_ClockConfig+0x7e>
 8000fa6:	07d0      	lsls	r0, r2, #31
 8000fa8:	d441      	bmi.n	800102e <HAL_RCC_ClockConfig+0xaa>
 8000faa:	4b3f      	ldr	r3, [pc, #252]	; (80010a8 <HAL_RCC_ClockConfig+0x124>)
 8000fac:	681a      	ldr	r2, [r3, #0]
 8000fae:	f002 020f 	and.w	r2, r2, #15
 8000fb2:	42aa      	cmp	r2, r5
 8000fb4:	d866      	bhi.n	8001084 <HAL_RCC_ClockConfig+0x100>
 8000fb6:	6822      	ldr	r2, [r4, #0]
 8000fb8:	0751      	lsls	r1, r2, #29
 8000fba:	d46c      	bmi.n	8001096 <HAL_RCC_ClockConfig+0x112>
 8000fbc:	0713      	lsls	r3, r2, #28
 8000fbe:	d507      	bpl.n	8000fd0 <HAL_RCC_ClockConfig+0x4c>
 8000fc0:	4a3a      	ldr	r2, [pc, #232]	; (80010ac <HAL_RCC_ClockConfig+0x128>)
 8000fc2:	6921      	ldr	r1, [r4, #16]
 8000fc4:	6893      	ldr	r3, [r2, #8]
 8000fc6:	f423 4360 	bic.w	r3, r3, #57344	; 0xe000
 8000fca:	ea43 03c1 	orr.w	r3, r3, r1, lsl #3
 8000fce:	6093      	str	r3, [r2, #8]
 8000fd0:	f000 faa0 	bl	8001514 <HAL_RCC_GetSysClockFreq>
 8000fd4:	4b35      	ldr	r3, [pc, #212]	; (80010ac <HAL_RCC_ClockConfig+0x128>)
 8000fd6:	4a36      	ldr	r2, [pc, #216]	; (80010b0 <HAL_RCC_ClockConfig+0x12c>)
 8000fd8:	689b      	ldr	r3, [r3, #8]
 8000fda:	f3c3 1303 	ubfx	r3, r3, #4, #4
 8000fde:	5cd3      	ldrb	r3, [r2, r3]
 8000fe0:	40d8      	lsrs	r0, r3
 8000fe2:	4b34      	ldr	r3, [pc, #208]	; (80010b4 <HAL_RCC_ClockConfig+0x130>)
 8000fe4:	6018      	str	r0, [r3, #0]
 8000fe6:	4b34      	ldr	r3, [pc, #208]	; (80010b8 <HAL_RCC_ClockConfig+0x134>)
 8000fe8:	6818      	ldr	r0, [r3, #0]
 8000fea:	f7ff fdeb 	bl	8000bc4 <HAL_InitTick>
 8000fee:	2000      	movs	r0, #0
 8000ff0:	e7ce      	b.n	8000f90 <HAL_RCC_ClockConfig+0xc>
 8000ff2:	b2ca      	uxtb	r2, r1
 8000ff4:	701a      	strb	r2, [r3, #0]
 8000ff6:	681b      	ldr	r3, [r3, #0]
 8000ff8:	f003 030f 	and.w	r3, r3, #15
 8000ffc:	428b      	cmp	r3, r1
 8000ffe:	d1c6      	bne.n	8000f8e <HAL_RCC_ClockConfig+0xa>
 8001000:	e7ce      	b.n	8000fa0 <HAL_RCC_ClockConfig+0x1c>
 8001002:	4b2a      	ldr	r3, [pc, #168]	; (80010ac <HAL_RCC_ClockConfig+0x128>)
 8001004:	f012 0f04 	tst.w	r2, #4
 8001008:	bf1e      	ittt	ne
 800100a:	6899      	ldrne	r1, [r3, #8]
 800100c:	f441 51e0 	orrne.w	r1, r1, #7168	; 0x1c00
 8001010:	6099      	strne	r1, [r3, #8]
 8001012:	0716      	lsls	r6, r2, #28
 8001014:	bf42      	ittt	mi
 8001016:	6899      	ldrmi	r1, [r3, #8]
 8001018:	f441 4160 	orrmi.w	r1, r1, #57344	; 0xe000
 800101c:	6099      	strmi	r1, [r3, #8]
 800101e:	4923      	ldr	r1, [pc, #140]	; (80010ac <HAL_RCC_ClockConfig+0x128>)
 8001020:	68a0      	ldr	r0, [r4, #8]
 8001022:	688b      	ldr	r3, [r1, #8]
 8001024:	f023 03f0 	bic.w	r3, r3, #240	; 0xf0
 8001028:	4303      	orrs	r3, r0
 800102a:	608b      	str	r3, [r1, #8]
 800102c:	e7bb      	b.n	8000fa6 <HAL_RCC_ClockConfig+0x22>
 800102e:	6862      	ldr	r2, [r4, #4]
 8001030:	4b1e      	ldr	r3, [pc, #120]	; (80010ac <HAL_RCC_ClockConfig+0x128>)
 8001032:	2a01      	cmp	r2, #1
 8001034:	d11c      	bne.n	8001070 <HAL_RCC_ClockConfig+0xec>
 8001036:	681b      	ldr	r3, [r3, #0]
 8001038:	f413 3f00 	tst.w	r3, #131072	; 0x20000
 800103c:	d0a7      	beq.n	8000f8e <HAL_RCC_ClockConfig+0xa>
 800103e:	4e1b      	ldr	r6, [pc, #108]	; (80010ac <HAL_RCC_ClockConfig+0x128>)
 8001040:	68b3      	ldr	r3, [r6, #8]
 8001042:	f023 0303 	bic.w	r3, r3, #3
 8001046:	4313      	orrs	r3, r2
 8001048:	60b3      	str	r3, [r6, #8]
 800104a:	f7ff fdf9 	bl	8000c40 <HAL_GetTick>
 800104e:	f241 3888 	movw	r8, #5000	; 0x1388
 8001052:	4607      	mov	r7, r0
 8001054:	68b3      	ldr	r3, [r6, #8]
 8001056:	6862      	ldr	r2, [r4, #4]
 8001058:	f003 030c 	and.w	r3, r3, #12
 800105c:	ebb3 0f82 	cmp.w	r3, r2, lsl #2
 8001060:	d0a3      	beq.n	8000faa <HAL_RCC_ClockConfig+0x26>
 8001062:	f7ff fded 	bl	8000c40 <HAL_GetTick>
 8001066:	1bc0      	subs	r0, r0, r7
 8001068:	4540      	cmp	r0, r8
 800106a:	d9f3      	bls.n	8001054 <HAL_RCC_ClockConfig+0xd0>
 800106c:	2003      	movs	r0, #3
 800106e:	e78f      	b.n	8000f90 <HAL_RCC_ClockConfig+0xc>
 8001070:	1e91      	subs	r1, r2, #2
 8001072:	2901      	cmp	r1, #1
 8001074:	681b      	ldr	r3, [r3, #0]
 8001076:	d802      	bhi.n	800107e <HAL_RCC_ClockConfig+0xfa>
 8001078:	f013 7f00 	tst.w	r3, #33554432	; 0x2000000
 800107c:	e7de      	b.n	800103c <HAL_RCC_ClockConfig+0xb8>
 800107e:	f013 0f02 	tst.w	r3, #2
 8001082:	e7db      	b.n	800103c <HAL_RCC_ClockConfig+0xb8>
 8001084:	b2ea      	uxtb	r2, r5
 8001086:	701a      	strb	r2, [r3, #0]
 8001088:	681b      	ldr	r3, [r3, #0]
 800108a:	f003 030f 	and.w	r3, r3, #15
 800108e:	42ab      	cmp	r3, r5
 8001090:	f47f af7d 	bne.w	8000f8e <HAL_RCC_ClockConfig+0xa>
 8001094:	e78f      	b.n	8000fb6 <HAL_RCC_ClockConfig+0x32>
 8001096:	4905      	ldr	r1, [pc, #20]	; (80010ac <HAL_RCC_ClockConfig+0x128>)
 8001098:	68e0      	ldr	r0, [r4, #12]
 800109a:	688b      	ldr	r3, [r1, #8]
 800109c:	f423 53e0 	bic.w	r3, r3, #7168	; 0x1c00
 80010a0:	4303      	orrs	r3, r0
 80010a2:	608b      	str	r3, [r1, #8]
 80010a4:	e78a      	b.n	8000fbc <HAL_RCC_ClockConfig+0x38>
 80010a6:	bf00      	nop
 80010a8:	40023c00 	.word	0x40023c00
 80010ac:	40023800 	.word	0x40023800
 80010b0:	0800269a 	.word	0x0800269a
 80010b4:	20000008 	.word	0x20000008
 80010b8:	20000018 	.word	0x20000018

080010bc <HAL_RCC_GetPCLK1Freq>:
 80010bc:	4b04      	ldr	r3, [pc, #16]	; (80010d0 <HAL_RCC_GetPCLK1Freq+0x14>)
 80010be:	4a05      	ldr	r2, [pc, #20]	; (80010d4 <HAL_RCC_GetPCLK1Freq+0x18>)
 80010c0:	689b      	ldr	r3, [r3, #8]
 80010c2:	f3c3 2382 	ubfx	r3, r3, #10, #3
 80010c6:	5cd3      	ldrb	r3, [r2, r3]
 80010c8:	4a03      	ldr	r2, [pc, #12]	; (80010d8 <HAL_RCC_GetPCLK1Freq+0x1c>)
 80010ca:	6810      	ldr	r0, [r2, #0]
 80010cc:	40d8      	lsrs	r0, r3
 80010ce:	4770      	bx	lr
 80010d0:	40023800 	.word	0x40023800
 80010d4:	080026aa 	.word	0x080026aa
 80010d8:	20000008 	.word	0x20000008

080010dc <HAL_RCC_GetPCLK2Freq>:
 80010dc:	4b04      	ldr	r3, [pc, #16]	; (80010f0 <HAL_RCC_GetPCLK2Freq+0x14>)
 80010de:	4a05      	ldr	r2, [pc, #20]	; (80010f4 <HAL_RCC_GetPCLK2Freq+0x18>)
 80010e0:	689b      	ldr	r3, [r3, #8]
 80010e2:	f3c3 3342 	ubfx	r3, r3, #13, #3
 80010e6:	5cd3      	ldrb	r3, [r2, r3]
 80010e8:	4a03      	ldr	r2, [pc, #12]	; (80010f8 <HAL_RCC_GetPCLK2Freq+0x1c>)
 80010ea:	6810      	ldr	r0, [r2, #0]
 80010ec:	40d8      	lsrs	r0, r3
 80010ee:	4770      	bx	lr
 80010f0:	40023800 	.word	0x40023800
 80010f4:	080026aa 	.word	0x080026aa
 80010f8:	20000008 	.word	0x20000008

080010fc <HAL_RCCEx_PeriphCLKConfig>:
 80010fc:	6803      	ldr	r3, [r0, #0]
 80010fe:	e92d 43f7 	stmdb	sp!, {r0, r1, r2, r4, r5, r6, r7, r8, r9, lr}
 8001102:	f013 0601 	ands.w	r6, r3, #1
 8001106:	4604      	mov	r4, r0
 8001108:	d00b      	beq.n	8001122 <HAL_RCCEx_PeriphCLKConfig+0x26>
 800110a:	49ab      	ldr	r1, [pc, #684]	; (80013b8 <HAL_RCCEx_PeriphCLKConfig+0x2bc>)
 800110c:	6b86      	ldr	r6, [r0, #56]	; 0x38
 800110e:	f8d1 208c 	ldr.w	r2, [r1, #140]	; 0x8c
 8001112:	f022 62c0 	bic.w	r2, r2, #100663296	; 0x6000000
 8001116:	4332      	orrs	r2, r6
 8001118:	fab6 f686 	clz	r6, r6
 800111c:	f8c1 208c 	str.w	r2, [r1, #140]	; 0x8c
 8001120:	0976      	lsrs	r6, r6, #5
 8001122:	079d      	lsls	r5, r3, #30
 8001124:	d50b      	bpl.n	800113e <HAL_RCCEx_PeriphCLKConfig+0x42>
 8001126:	48a4      	ldr	r0, [pc, #656]	; (80013b8 <HAL_RCCEx_PeriphCLKConfig+0x2bc>)
 8001128:	6be1      	ldr	r1, [r4, #60]	; 0x3c
 800112a:	f8d0 208c 	ldr.w	r2, [r0, #140]	; 0x8c
 800112e:	f022 52c0 	bic.w	r2, r2, #402653184	; 0x18000000
 8001132:	430a      	orrs	r2, r1
 8001134:	2900      	cmp	r1, #0
 8001136:	f8c0 208c 	str.w	r2, [r0, #140]	; 0x8c
 800113a:	bf08      	it	eq
 800113c:	2601      	moveq	r6, #1
 800113e:	f013 0504 	ands.w	r5, r3, #4
 8001142:	d012      	beq.n	800116a <HAL_RCCEx_PeriphCLKConfig+0x6e>
 8001144:	499c      	ldr	r1, [pc, #624]	; (80013b8 <HAL_RCCEx_PeriphCLKConfig+0x2bc>)
 8001146:	6b25      	ldr	r5, [r4, #48]	; 0x30
 8001148:	f8d1 208c 	ldr.w	r2, [r1, #140]	; 0x8c
 800114c:	f5b5 1f80 	cmp.w	r5, #1048576	; 0x100000
 8001150:	f422 1240 	bic.w	r2, r2, #3145728	; 0x300000
 8001154:	ea42 0205 	orr.w	r2, r2, r5
 8001158:	bf18      	it	ne
 800115a:	fab5 f585 	clzne	r5, r5
 800115e:	f8c1 208c 	str.w	r2, [r1, #140]	; 0x8c
 8001162:	bf12      	itee	ne
 8001164:	096d      	lsrne	r5, r5, #5
 8001166:	2500      	moveq	r5, #0
 8001168:	2601      	moveq	r6, #1
 800116a:	0718      	lsls	r0, r3, #28
 800116c:	d50f      	bpl.n	800118e <HAL_RCCEx_PeriphCLKConfig+0x92>
 800116e:	4892      	ldr	r0, [pc, #584]	; (80013b8 <HAL_RCCEx_PeriphCLKConfig+0x2bc>)
 8001170:	6b61      	ldr	r1, [r4, #52]	; 0x34
 8001172:	f8d0 208c 	ldr.w	r2, [r0, #140]	; 0x8c
 8001176:	f422 0240 	bic.w	r2, r2, #12582912	; 0xc00000
 800117a:	430a      	orrs	r2, r1
 800117c:	f5b1 0f80 	cmp.w	r1, #4194304	; 0x400000
 8001180:	f8c0 208c 	str.w	r2, [r0, #140]	; 0x8c
 8001184:	f000 810b 	beq.w	800139e <HAL_RCCEx_PeriphCLKConfig+0x2a2>
 8001188:	2900      	cmp	r1, #0
 800118a:	bf08      	it	eq
 800118c:	2501      	moveq	r5, #1
 800118e:	0699      	lsls	r1, r3, #26
 8001190:	d533      	bpl.n	80011fa <HAL_RCCEx_PeriphCLKConfig+0xfe>
 8001192:	2300      	movs	r3, #0
 8001194:	9301      	str	r3, [sp, #4]
 8001196:	4b88      	ldr	r3, [pc, #544]	; (80013b8 <HAL_RCCEx_PeriphCLKConfig+0x2bc>)
 8001198:	4f88      	ldr	r7, [pc, #544]	; (80013bc <HAL_RCCEx_PeriphCLKConfig+0x2c0>)
 800119a:	6c1a      	ldr	r2, [r3, #64]	; 0x40
 800119c:	f042 5280 	orr.w	r2, r2, #268435456	; 0x10000000
 80011a0:	641a      	str	r2, [r3, #64]	; 0x40
 80011a2:	6c1b      	ldr	r3, [r3, #64]	; 0x40
 80011a4:	f003 5380 	and.w	r3, r3, #268435456	; 0x10000000
 80011a8:	9301      	str	r3, [sp, #4]
 80011aa:	9b01      	ldr	r3, [sp, #4]
 80011ac:	683b      	ldr	r3, [r7, #0]
 80011ae:	f443 7380 	orr.w	r3, r3, #256	; 0x100
 80011b2:	603b      	str	r3, [r7, #0]
 80011b4:	f7ff fd44 	bl	8000c40 <HAL_GetTick>
 80011b8:	4680      	mov	r8, r0
 80011ba:	683b      	ldr	r3, [r7, #0]
 80011bc:	05da      	lsls	r2, r3, #23
 80011be:	f140 80f0 	bpl.w	80013a2 <HAL_RCCEx_PeriphCLKConfig+0x2a6>
 80011c2:	4f7d      	ldr	r7, [pc, #500]	; (80013b8 <HAL_RCCEx_PeriphCLKConfig+0x2bc>)
 80011c4:	6f3b      	ldr	r3, [r7, #112]	; 0x70
 80011c6:	f413 7340 	ands.w	r3, r3, #768	; 0x300
 80011ca:	f040 80fd 	bne.w	80013c8 <HAL_RCCEx_PeriphCLKConfig+0x2cc>
 80011ce:	6c23      	ldr	r3, [r4, #64]	; 0x40
 80011d0:	f403 7240 	and.w	r2, r3, #768	; 0x300
 80011d4:	f5b2 7f40 	cmp.w	r2, #768	; 0x300
 80011d8:	4a77      	ldr	r2, [pc, #476]	; (80013b8 <HAL_RCCEx_PeriphCLKConfig+0x2bc>)
 80011da:	f040 8118 	bne.w	800140e <HAL_RCCEx_PeriphCLKConfig+0x312>
 80011de:	6891      	ldr	r1, [r2, #8]
 80011e0:	f023 4070 	bic.w	r0, r3, #4026531840	; 0xf0000000
 80011e4:	f421 11f8 	bic.w	r1, r1, #2031616	; 0x1f0000
 80011e8:	f420 7040 	bic.w	r0, r0, #768	; 0x300
 80011ec:	4301      	orrs	r1, r0
 80011ee:	6091      	str	r1, [r2, #8]
 80011f0:	6f11      	ldr	r1, [r2, #112]	; 0x70
 80011f2:	f3c3 030b 	ubfx	r3, r3, #0, #12
 80011f6:	430b      	orrs	r3, r1
 80011f8:	6713      	str	r3, [r2, #112]	; 0x70
 80011fa:	6823      	ldr	r3, [r4, #0]
 80011fc:	06d9      	lsls	r1, r3, #27
 80011fe:	bf42      	ittt	mi
 8001200:	4b6f      	ldrmi	r3, [pc, #444]	; (80013c0 <HAL_RCCEx_PeriphCLKConfig+0x2c4>)
 8001202:	f894 2058 	ldrbmi.w	r2, [r4, #88]	; 0x58
 8001206:	601a      	strmi	r2, [r3, #0]
 8001208:	6823      	ldr	r3, [r4, #0]
 800120a:	061a      	lsls	r2, r3, #24
 800120c:	d508      	bpl.n	8001220 <HAL_RCCEx_PeriphCLKConfig+0x124>
 800120e:	496a      	ldr	r1, [pc, #424]	; (80013b8 <HAL_RCCEx_PeriphCLKConfig+0x2bc>)
 8001210:	6ce0      	ldr	r0, [r4, #76]	; 0x4c
 8001212:	f8d1 2094 	ldr.w	r2, [r1, #148]	; 0x94
 8001216:	f422 0240 	bic.w	r2, r2, #12582912	; 0xc00000
 800121a:	4302      	orrs	r2, r0
 800121c:	f8c1 2094 	str.w	r2, [r1, #148]	; 0x94
 8001220:	065f      	lsls	r7, r3, #25
 8001222:	d508      	bpl.n	8001236 <HAL_RCCEx_PeriphCLKConfig+0x13a>
 8001224:	4964      	ldr	r1, [pc, #400]	; (80013b8 <HAL_RCCEx_PeriphCLKConfig+0x2bc>)
 8001226:	6ca0      	ldr	r0, [r4, #72]	; 0x48
 8001228:	f8d1 2094 	ldr.w	r2, [r1, #148]	; 0x94
 800122c:	f022 6280 	bic.w	r2, r2, #67108864	; 0x4000000
 8001230:	4302      	orrs	r2, r0
 8001232:	f8c1 2094 	str.w	r2, [r1, #148]	; 0x94
 8001236:	05d8      	lsls	r0, r3, #23
 8001238:	d50c      	bpl.n	8001254 <HAL_RCCEx_PeriphCLKConfig+0x158>
 800123a:	485f      	ldr	r0, [pc, #380]	; (80013b8 <HAL_RCCEx_PeriphCLKConfig+0x2bc>)
 800123c:	6d61      	ldr	r1, [r4, #84]	; 0x54
 800123e:	f8d0 2094 	ldr.w	r2, [r0, #148]	; 0x94
 8001242:	f022 6200 	bic.w	r2, r2, #134217728	; 0x8000000
 8001246:	430a      	orrs	r2, r1
 8001248:	f1b1 6f00 	cmp.w	r1, #134217728	; 0x8000000
 800124c:	f8c0 2094 	str.w	r2, [r0, #148]	; 0x94
 8001250:	bf08      	it	eq
 8001252:	2501      	moveq	r5, #1
 8001254:	0599      	lsls	r1, r3, #22
 8001256:	d508      	bpl.n	800126a <HAL_RCCEx_PeriphCLKConfig+0x16e>
 8001258:	4957      	ldr	r1, [pc, #348]	; (80013b8 <HAL_RCCEx_PeriphCLKConfig+0x2bc>)
 800125a:	6c60      	ldr	r0, [r4, #68]	; 0x44
 800125c:	f8d1 2094 	ldr.w	r2, [r1, #148]	; 0x94
 8001260:	f022 5280 	bic.w	r2, r2, #268435456	; 0x10000000
 8001264:	4302      	orrs	r2, r0
 8001266:	f8c1 2094 	str.w	r2, [r1, #148]	; 0x94
 800126a:	055a      	lsls	r2, r3, #21
 800126c:	f100 80d3 	bmi.w	8001416 <HAL_RCCEx_PeriphCLKConfig+0x31a>
 8001270:	2e01      	cmp	r6, #1
 8001272:	f040 80de 	bne.w	8001432 <HAL_RCCEx_PeriphCLKConfig+0x336>
 8001276:	4e53      	ldr	r6, [pc, #332]	; (80013c4 <HAL_RCCEx_PeriphCLKConfig+0x2c8>)
 8001278:	f8df 913c 	ldr.w	r9, [pc, #316]	; 80013b8 <HAL_RCCEx_PeriphCLKConfig+0x2bc>
 800127c:	2300      	movs	r3, #0
 800127e:	6033      	str	r3, [r6, #0]
 8001280:	f7ff fcde 	bl	8000c40 <HAL_GetTick>
 8001284:	464f      	mov	r7, r9
 8001286:	4680      	mov	r8, r0
 8001288:	f8d9 3000 	ldr.w	r3, [r9]
 800128c:	011b      	lsls	r3, r3, #4
 800128e:	f100 8126 	bmi.w	80014de <HAL_RCCEx_PeriphCLKConfig+0x3e2>
 8001292:	6822      	ldr	r2, [r4, #0]
 8001294:	07d0      	lsls	r0, r2, #31
 8001296:	d501      	bpl.n	800129c <HAL_RCCEx_PeriphCLKConfig+0x1a0>
 8001298:	6ba3      	ldr	r3, [r4, #56]	; 0x38
 800129a:	b11b      	cbz	r3, 80012a4 <HAL_RCCEx_PeriphCLKConfig+0x1a8>
 800129c:	0791      	lsls	r1, r2, #30
 800129e:	d514      	bpl.n	80012ca <HAL_RCCEx_PeriphCLKConfig+0x1ce>
 80012a0:	6be3      	ldr	r3, [r4, #60]	; 0x3c
 80012a2:	b993      	cbnz	r3, 80012ca <HAL_RCCEx_PeriphCLKConfig+0x1ce>
 80012a4:	f8d7 3084 	ldr.w	r3, [r7, #132]	; 0x84
 80012a8:	f8d7 1084 	ldr.w	r1, [r7, #132]	; 0x84
 80012ac:	f403 3340 	and.w	r3, r3, #196608	; 0x30000
 80012b0:	f001 6170 	and.w	r1, r1, #251658240	; 0xf000000
 80012b4:	430b      	orrs	r3, r1
 80012b6:	6861      	ldr	r1, [r4, #4]
 80012b8:	430b      	orrs	r3, r1
 80012ba:	68a1      	ldr	r1, [r4, #8]
 80012bc:	ea43 1381 	orr.w	r3, r3, r1, lsl #6
 80012c0:	6961      	ldr	r1, [r4, #20]
 80012c2:	ea43 7301 	orr.w	r3, r3, r1, lsl #28
 80012c6:	f8c7 3084 	str.w	r3, [r7, #132]	; 0x84
 80012ca:	0753      	lsls	r3, r2, #29
 80012cc:	d503      	bpl.n	80012d6 <HAL_RCCEx_PeriphCLKConfig+0x1da>
 80012ce:	6b23      	ldr	r3, [r4, #48]	; 0x30
 80012d0:	f5b3 1f80 	cmp.w	r3, #1048576	; 0x100000
 80012d4:	d005      	beq.n	80012e2 <HAL_RCCEx_PeriphCLKConfig+0x1e6>
 80012d6:	0717      	lsls	r7, r2, #28
 80012d8:	d520      	bpl.n	800131c <HAL_RCCEx_PeriphCLKConfig+0x220>
 80012da:	6b63      	ldr	r3, [r4, #52]	; 0x34
 80012dc:	f5b3 0f80 	cmp.w	r3, #4194304	; 0x400000
 80012e0:	d11c      	bne.n	800131c <HAL_RCCEx_PeriphCLKConfig+0x220>
 80012e2:	4935      	ldr	r1, [pc, #212]	; (80013b8 <HAL_RCCEx_PeriphCLKConfig+0x2bc>)
 80012e4:	f8d1 3084 	ldr.w	r3, [r1, #132]	; 0x84
 80012e8:	f8d1 0084 	ldr.w	r0, [r1, #132]	; 0x84
 80012ec:	f403 3340 	and.w	r3, r3, #196608	; 0x30000
 80012f0:	f000 40e0 	and.w	r0, r0, #1879048192	; 0x70000000
 80012f4:	4303      	orrs	r3, r0
 80012f6:	6860      	ldr	r0, [r4, #4]
 80012f8:	4303      	orrs	r3, r0
 80012fa:	68a0      	ldr	r0, [r4, #8]
 80012fc:	ea43 1380 	orr.w	r3, r3, r0, lsl #6
 8001300:	6920      	ldr	r0, [r4, #16]
 8001302:	ea43 6300 	orr.w	r3, r3, r0, lsl #24
 8001306:	f8c1 3084 	str.w	r3, [r1, #132]	; 0x84
 800130a:	f8d1 008c 	ldr.w	r0, [r1, #140]	; 0x8c
 800130e:	6aa3      	ldr	r3, [r4, #40]	; 0x28
 8001310:	f020 001f 	bic.w	r0, r0, #31
 8001314:	3b01      	subs	r3, #1
 8001316:	4303      	orrs	r3, r0
 8001318:	f8c1 308c 	str.w	r3, [r1, #140]	; 0x8c
 800131c:	0550      	lsls	r0, r2, #21
 800131e:	d51b      	bpl.n	8001358 <HAL_RCCEx_PeriphCLKConfig+0x25c>
 8001320:	6d23      	ldr	r3, [r4, #80]	; 0x50
 8001322:	f1b3 5f00 	cmp.w	r3, #536870912	; 0x20000000
 8001326:	d117      	bne.n	8001358 <HAL_RCCEx_PeriphCLKConfig+0x25c>
 8001328:	4823      	ldr	r0, [pc, #140]	; (80013b8 <HAL_RCCEx_PeriphCLKConfig+0x2bc>)
 800132a:	6867      	ldr	r7, [r4, #4]
 800132c:	f8d0 1084 	ldr.w	r1, [r0, #132]	; 0x84
 8001330:	f8d0 3084 	ldr.w	r3, [r0, #132]	; 0x84
 8001334:	f003 43e0 	and.w	r3, r3, #1879048192	; 0x70000000
 8001338:	433b      	orrs	r3, r7
 800133a:	68a7      	ldr	r7, [r4, #8]
 800133c:	f3c1 4101 	ubfx	r1, r1, #16, #2
 8001340:	3101      	adds	r1, #1
 8001342:	ea43 1387 	orr.w	r3, r3, r7, lsl #6
 8001346:	ea43 6341 	orr.w	r3, r3, r1, lsl #25
 800134a:	68e1      	ldr	r1, [r4, #12]
 800134c:	0849      	lsrs	r1, r1, #1
 800134e:	3901      	subs	r1, #1
 8001350:	ea43 4301 	orr.w	r3, r3, r1, lsl #16
 8001354:	f8c0 3084 	str.w	r3, [r0, #132]	; 0x84
 8001358:	0511      	lsls	r1, r2, #20
 800135a:	d511      	bpl.n	8001380 <HAL_RCCEx_PeriphCLKConfig+0x284>
 800135c:	6923      	ldr	r3, [r4, #16]
 800135e:	68a2      	ldr	r2, [r4, #8]
 8001360:	061b      	lsls	r3, r3, #24
 8001362:	ea43 1382 	orr.w	r3, r3, r2, lsl #6
 8001366:	6862      	ldr	r2, [r4, #4]
 8001368:	4313      	orrs	r3, r2
 800136a:	6962      	ldr	r2, [r4, #20]
 800136c:	ea43 7302 	orr.w	r3, r3, r2, lsl #28
 8001370:	68e2      	ldr	r2, [r4, #12]
 8001372:	0852      	lsrs	r2, r2, #1
 8001374:	3a01      	subs	r2, #1
 8001376:	ea43 4302 	orr.w	r3, r3, r2, lsl #16
 800137a:	4a0f      	ldr	r2, [pc, #60]	; (80013b8 <HAL_RCCEx_PeriphCLKConfig+0x2bc>)
 800137c:	f8c2 3084 	str.w	r3, [r2, #132]	; 0x84
 8001380:	2301      	movs	r3, #1
 8001382:	6033      	str	r3, [r6, #0]
 8001384:	f7ff fc5c 	bl	8000c40 <HAL_GetTick>
 8001388:	4f0b      	ldr	r7, [pc, #44]	; (80013b8 <HAL_RCCEx_PeriphCLKConfig+0x2bc>)
 800138a:	4606      	mov	r6, r0
 800138c:	683b      	ldr	r3, [r7, #0]
 800138e:	011a      	lsls	r2, r3, #4
 8001390:	d453      	bmi.n	800143a <HAL_RCCEx_PeriphCLKConfig+0x33e>
 8001392:	f7ff fc55 	bl	8000c40 <HAL_GetTick>
 8001396:	1b80      	subs	r0, r0, r6
 8001398:	2802      	cmp	r0, #2
 800139a:	d9f7      	bls.n	800138c <HAL_RCCEx_PeriphCLKConfig+0x290>
 800139c:	e008      	b.n	80013b0 <HAL_RCCEx_PeriphCLKConfig+0x2b4>
 800139e:	2601      	movs	r6, #1
 80013a0:	e6f5      	b.n	800118e <HAL_RCCEx_PeriphCLKConfig+0x92>
 80013a2:	f7ff fc4d 	bl	8000c40 <HAL_GetTick>
 80013a6:	eba0 0008 	sub.w	r0, r0, r8
 80013aa:	2802      	cmp	r0, #2
 80013ac:	f67f af05 	bls.w	80011ba <HAL_RCCEx_PeriphCLKConfig+0xbe>
 80013b0:	2003      	movs	r0, #3
 80013b2:	b003      	add	sp, #12
 80013b4:	e8bd 83f0 	ldmia.w	sp!, {r4, r5, r6, r7, r8, r9, pc}
 80013b8:	40023800 	.word	0x40023800
 80013bc:	40007000 	.word	0x40007000
 80013c0:	424711e0 	.word	0x424711e0
 80013c4:	42470068 	.word	0x42470068
 80013c8:	6c22      	ldr	r2, [r4, #64]	; 0x40
 80013ca:	f402 7240 	and.w	r2, r2, #768	; 0x300
 80013ce:	429a      	cmp	r2, r3
 80013d0:	f43f aefd 	beq.w	80011ce <HAL_RCCEx_PeriphCLKConfig+0xd2>
 80013d4:	6f3b      	ldr	r3, [r7, #112]	; 0x70
 80013d6:	4a4c      	ldr	r2, [pc, #304]	; (8001508 <HAL_RCCEx_PeriphCLKConfig+0x40c>)
 80013d8:	2101      	movs	r1, #1
 80013da:	6011      	str	r1, [r2, #0]
 80013dc:	f423 7340 	bic.w	r3, r3, #768	; 0x300
 80013e0:	2100      	movs	r1, #0
 80013e2:	6011      	str	r1, [r2, #0]
 80013e4:	673b      	str	r3, [r7, #112]	; 0x70
 80013e6:	6f3b      	ldr	r3, [r7, #112]	; 0x70
 80013e8:	07db      	lsls	r3, r3, #31
 80013ea:	f57f aef0 	bpl.w	80011ce <HAL_RCCEx_PeriphCLKConfig+0xd2>
 80013ee:	f7ff fc27 	bl	8000c40 <HAL_GetTick>
 80013f2:	f241 3988 	movw	r9, #5000	; 0x1388
 80013f6:	4680      	mov	r8, r0
 80013f8:	6f3b      	ldr	r3, [r7, #112]	; 0x70
 80013fa:	0798      	lsls	r0, r3, #30
 80013fc:	f53f aee7 	bmi.w	80011ce <HAL_RCCEx_PeriphCLKConfig+0xd2>
 8001400:	f7ff fc1e 	bl	8000c40 <HAL_GetTick>
 8001404:	eba0 0008 	sub.w	r0, r0, r8
 8001408:	4548      	cmp	r0, r9
 800140a:	d9f5      	bls.n	80013f8 <HAL_RCCEx_PeriphCLKConfig+0x2fc>
 800140c:	e7d0      	b.n	80013b0 <HAL_RCCEx_PeriphCLKConfig+0x2b4>
 800140e:	6891      	ldr	r1, [r2, #8]
 8001410:	f421 11f8 	bic.w	r1, r1, #2031616	; 0x1f0000
 8001414:	e6eb      	b.n	80011ee <HAL_RCCEx_PeriphCLKConfig+0xf2>
 8001416:	483d      	ldr	r0, [pc, #244]	; (800150c <HAL_RCCEx_PeriphCLKConfig+0x410>)
 8001418:	6d21      	ldr	r1, [r4, #80]	; 0x50
 800141a:	f8d0 2094 	ldr.w	r2, [r0, #148]	; 0x94
 800141e:	f022 5200 	bic.w	r2, r2, #536870912	; 0x20000000
 8001422:	430a      	orrs	r2, r1
 8001424:	f1b1 5f00 	cmp.w	r1, #536870912	; 0x20000000
 8001428:	f8c0 2094 	str.w	r2, [r0, #148]	; 0x94
 800142c:	f47f af20 	bne.w	8001270 <HAL_RCCEx_PeriphCLKConfig+0x174>
 8001430:	e721      	b.n	8001276 <HAL_RCCEx_PeriphCLKConfig+0x17a>
 8001432:	f5b3 6f00 	cmp.w	r3, #2048	; 0x800
 8001436:	f43f af1e 	beq.w	8001276 <HAL_RCCEx_PeriphCLKConfig+0x17a>
 800143a:	2d01      	cmp	r5, #1
 800143c:	d14d      	bne.n	80014da <HAL_RCCEx_PeriphCLKConfig+0x3de>
 800143e:	4d34      	ldr	r5, [pc, #208]	; (8001510 <HAL_RCCEx_PeriphCLKConfig+0x414>)
 8001440:	f8df 80c8 	ldr.w	r8, [pc, #200]	; 800150c <HAL_RCCEx_PeriphCLKConfig+0x410>
 8001444:	2300      	movs	r3, #0
 8001446:	602b      	str	r3, [r5, #0]
 8001448:	f7ff fbfa 	bl	8000c40 <HAL_GetTick>
 800144c:	4646      	mov	r6, r8
 800144e:	4607      	mov	r7, r0
 8001450:	f8d8 3000 	ldr.w	r3, [r8]
 8001454:	009b      	lsls	r3, r3, #2
 8001456:	d44a      	bmi.n	80014ee <HAL_RCCEx_PeriphCLKConfig+0x3f2>
 8001458:	6822      	ldr	r2, [r4, #0]
 800145a:	0750      	lsls	r0, r2, #29
 800145c:	d501      	bpl.n	8001462 <HAL_RCCEx_PeriphCLKConfig+0x366>
 800145e:	6b23      	ldr	r3, [r4, #48]	; 0x30
 8001460:	b11b      	cbz	r3, 800146a <HAL_RCCEx_PeriphCLKConfig+0x36e>
 8001462:	0711      	lsls	r1, r2, #28
 8001464:	d519      	bpl.n	800149a <HAL_RCCEx_PeriphCLKConfig+0x39e>
 8001466:	6b63      	ldr	r3, [r4, #52]	; 0x34
 8001468:	b9bb      	cbnz	r3, 800149a <HAL_RCCEx_PeriphCLKConfig+0x39e>
 800146a:	f8d6 3088 	ldr.w	r3, [r6, #136]	; 0x88
 800146e:	69a1      	ldr	r1, [r4, #24]
 8001470:	f403 3340 	and.w	r3, r3, #196608	; 0x30000
 8001474:	430b      	orrs	r3, r1
 8001476:	69e1      	ldr	r1, [r4, #28]
 8001478:	ea43 1381 	orr.w	r3, r3, r1, lsl #6
 800147c:	6a61      	ldr	r1, [r4, #36]	; 0x24
 800147e:	ea43 6301 	orr.w	r3, r3, r1, lsl #24
 8001482:	f8c6 3088 	str.w	r3, [r6, #136]	; 0x88
 8001486:	f8d6 308c 	ldr.w	r3, [r6, #140]	; 0x8c
 800148a:	6ae1      	ldr	r1, [r4, #44]	; 0x2c
 800148c:	f423 53f8 	bic.w	r3, r3, #7936	; 0x1f00
 8001490:	3901      	subs	r1, #1
 8001492:	ea43 2301 	orr.w	r3, r3, r1, lsl #8
 8001496:	f8c6 308c 	str.w	r3, [r6, #140]	; 0x8c
 800149a:	05d2      	lsls	r2, r2, #23
 800149c:	d514      	bpl.n	80014c8 <HAL_RCCEx_PeriphCLKConfig+0x3cc>
 800149e:	6d63      	ldr	r3, [r4, #84]	; 0x54
 80014a0:	f1b3 6f00 	cmp.w	r3, #134217728	; 0x8000000
 80014a4:	d110      	bne.n	80014c8 <HAL_RCCEx_PeriphCLKConfig+0x3cc>
 80014a6:	4919      	ldr	r1, [pc, #100]	; (800150c <HAL_RCCEx_PeriphCLKConfig+0x410>)
 80014a8:	69a2      	ldr	r2, [r4, #24]
 80014aa:	f8d1 3088 	ldr.w	r3, [r1, #136]	; 0x88
 80014ae:	f003 6370 	and.w	r3, r3, #251658240	; 0xf000000
 80014b2:	4313      	orrs	r3, r2
 80014b4:	69e2      	ldr	r2, [r4, #28]
 80014b6:	ea43 1382 	orr.w	r3, r3, r2, lsl #6
 80014ba:	6a22      	ldr	r2, [r4, #32]
 80014bc:	0852      	lsrs	r2, r2, #1
 80014be:	3a01      	subs	r2, #1
 80014c0:	ea43 4302 	orr.w	r3, r3, r2, lsl #16
 80014c4:	f8c1 3088 	str.w	r3, [r1, #136]	; 0x88
 80014c8:	2301      	movs	r3, #1
 80014ca:	602b      	str	r3, [r5, #0]
 80014cc:	f7ff fbb8 	bl	8000c40 <HAL_GetTick>
 80014d0:	4d0e      	ldr	r5, [pc, #56]	; (800150c <HAL_RCCEx_PeriphCLKConfig+0x410>)
 80014d2:	4604      	mov	r4, r0
 80014d4:	682b      	ldr	r3, [r5, #0]
 80014d6:	009b      	lsls	r3, r3, #2
 80014d8:	d50f      	bpl.n	80014fa <HAL_RCCEx_PeriphCLKConfig+0x3fe>
 80014da:	2000      	movs	r0, #0
 80014dc:	e769      	b.n	80013b2 <HAL_RCCEx_PeriphCLKConfig+0x2b6>
 80014de:	f7ff fbaf 	bl	8000c40 <HAL_GetTick>
 80014e2:	eba0 0008 	sub.w	r0, r0, r8
 80014e6:	2802      	cmp	r0, #2
 80014e8:	f67f aece 	bls.w	8001288 <HAL_RCCEx_PeriphCLKConfig+0x18c>
 80014ec:	e760      	b.n	80013b0 <HAL_RCCEx_PeriphCLKConfig+0x2b4>
 80014ee:	f7ff fba7 	bl	8000c40 <HAL_GetTick>
 80014f2:	1bc0      	subs	r0, r0, r7
 80014f4:	2802      	cmp	r0, #2
 80014f6:	d9ab      	bls.n	8001450 <HAL_RCCEx_PeriphCLKConfig+0x354>
 80014f8:	e75a      	b.n	80013b0 <HAL_RCCEx_PeriphCLKConfig+0x2b4>
 80014fa:	f7ff fba1 	bl	8000c40 <HAL_GetTick>
 80014fe:	1b00      	subs	r0, r0, r4
 8001500:	2802      	cmp	r0, #2
 8001502:	d9e7      	bls.n	80014d4 <HAL_RCCEx_PeriphCLKConfig+0x3d8>
 8001504:	e754      	b.n	80013b0 <HAL_RCCEx_PeriphCLKConfig+0x2b4>
 8001506:	bf00      	nop
 8001508:	42470e40 	.word	0x42470e40
 800150c:	40023800 	.word	0x40023800
 8001510:	42470070 	.word	0x42470070

08001514 <HAL_RCC_GetSysClockFreq>:
 8001514:	4920      	ldr	r1, [pc, #128]	; (8001598 <HAL_RCC_GetSysClockFreq+0x84>)
 8001516:	b508      	push	{r3, lr}
 8001518:	688b      	ldr	r3, [r1, #8]
 800151a:	f003 030c 	and.w	r3, r3, #12
 800151e:	2b08      	cmp	r3, #8
 8001520:	d007      	beq.n	8001532 <HAL_RCC_GetSysClockFreq+0x1e>
 8001522:	2b0c      	cmp	r3, #12
 8001524:	d020      	beq.n	8001568 <HAL_RCC_GetSysClockFreq+0x54>
 8001526:	481d      	ldr	r0, [pc, #116]	; (800159c <HAL_RCC_GetSysClockFreq+0x88>)
 8001528:	4a1d      	ldr	r2, [pc, #116]	; (80015a0 <HAL_RCC_GetSysClockFreq+0x8c>)
 800152a:	2b04      	cmp	r3, #4
 800152c:	bf08      	it	eq
 800152e:	4610      	moveq	r0, r2
 8001530:	bd08      	pop	{r3, pc}
 8001532:	684a      	ldr	r2, [r1, #4]
 8001534:	684b      	ldr	r3, [r1, #4]
 8001536:	6849      	ldr	r1, [r1, #4]
 8001538:	f413 0380 	ands.w	r3, r3, #4194304	; 0x400000
 800153c:	bf14      	ite	ne
 800153e:	4818      	ldrne	r0, [pc, #96]	; (80015a0 <HAL_RCC_GetSysClockFreq+0x8c>)
 8001540:	4816      	ldreq	r0, [pc, #88]	; (800159c <HAL_RCC_GetSysClockFreq+0x88>)
 8001542:	f3c1 1188 	ubfx	r1, r1, #6, #9
 8001546:	bf18      	it	ne
 8001548:	2300      	movne	r3, #0
 800154a:	f002 023f 	and.w	r2, r2, #63	; 0x3f
 800154e:	fba1 0100 	umull	r0, r1, r1, r0
 8001552:	f7fe feb5 	bl	80002c0 <__aeabi_uldivmod>
 8001556:	4b10      	ldr	r3, [pc, #64]	; (8001598 <HAL_RCC_GetSysClockFreq+0x84>)
 8001558:	685b      	ldr	r3, [r3, #4]
 800155a:	f3c3 4301 	ubfx	r3, r3, #16, #2
 800155e:	3301      	adds	r3, #1
 8001560:	005b      	lsls	r3, r3, #1
 8001562:	fbb0 f0f3 	udiv	r0, r0, r3
 8001566:	e7e3      	b.n	8001530 <HAL_RCC_GetSysClockFreq+0x1c>
 8001568:	684a      	ldr	r2, [r1, #4]
 800156a:	684b      	ldr	r3, [r1, #4]
 800156c:	6849      	ldr	r1, [r1, #4]
 800156e:	f413 0380 	ands.w	r3, r3, #4194304	; 0x400000
 8001572:	bf14      	ite	ne
 8001574:	480a      	ldrne	r0, [pc, #40]	; (80015a0 <HAL_RCC_GetSysClockFreq+0x8c>)
 8001576:	4809      	ldreq	r0, [pc, #36]	; (800159c <HAL_RCC_GetSysClockFreq+0x88>)
 8001578:	f3c1 1188 	ubfx	r1, r1, #6, #9
 800157c:	bf18      	it	ne
 800157e:	2300      	movne	r3, #0
 8001580:	f002 023f 	and.w	r2, r2, #63	; 0x3f
 8001584:	fba1 0100 	umull	r0, r1, r1, r0
 8001588:	f7fe fe9a 	bl	80002c0 <__aeabi_uldivmod>
 800158c:	4b02      	ldr	r3, [pc, #8]	; (8001598 <HAL_RCC_GetSysClockFreq+0x84>)
 800158e:	685b      	ldr	r3, [r3, #4]
 8001590:	f3c3 7302 	ubfx	r3, r3, #28, #3
 8001594:	e7e5      	b.n	8001562 <HAL_RCC_GetSysClockFreq+0x4e>
 8001596:	bf00      	nop
 8001598:	40023800 	.word	0x40023800
 800159c:	00f42400 	.word	0x00f42400
 80015a0:	007a1200 	.word	0x007a1200

080015a4 <HAL_RCC_OscConfig>:
 80015a4:	e92d 41f3 	stmdb	sp!, {r0, r1, r4, r5, r6, r7, r8, lr}
 80015a8:	4604      	mov	r4, r0
 80015aa:	2800      	cmp	r0, #0
 80015ac:	d030      	beq.n	8001610 <HAL_RCC_OscConfig+0x6c>
 80015ae:	6803      	ldr	r3, [r0, #0]
 80015b0:	07df      	lsls	r7, r3, #31
 80015b2:	d410      	bmi.n	80015d6 <HAL_RCC_OscConfig+0x32>
 80015b4:	6823      	ldr	r3, [r4, #0]
 80015b6:	079e      	lsls	r6, r3, #30
 80015b8:	d463      	bmi.n	8001682 <HAL_RCC_OscConfig+0xde>
 80015ba:	6823      	ldr	r3, [r4, #0]
 80015bc:	071a      	lsls	r2, r3, #28
 80015be:	f100 80ad 	bmi.w	800171c <HAL_RCC_OscConfig+0x178>
 80015c2:	6823      	ldr	r3, [r4, #0]
 80015c4:	075b      	lsls	r3, r3, #29
 80015c6:	f100 80cb 	bmi.w	8001760 <HAL_RCC_OscConfig+0x1bc>
 80015ca:	69a0      	ldr	r0, [r4, #24]
 80015cc:	2800      	cmp	r0, #0
 80015ce:	f040 8135 	bne.w	800183c <HAL_RCC_OscConfig+0x298>
 80015d2:	2000      	movs	r0, #0
 80015d4:	e034      	b.n	8001640 <HAL_RCC_OscConfig+0x9c>
 80015d6:	4b95      	ldr	r3, [pc, #596]	; (800182c <HAL_RCC_OscConfig+0x288>)
 80015d8:	689a      	ldr	r2, [r3, #8]
 80015da:	f002 020c 	and.w	r2, r2, #12
 80015de:	2a04      	cmp	r2, #4
 80015e0:	d00f      	beq.n	8001602 <HAL_RCC_OscConfig+0x5e>
 80015e2:	689a      	ldr	r2, [r3, #8]
 80015e4:	f002 020c 	and.w	r2, r2, #12
 80015e8:	2a08      	cmp	r2, #8
 80015ea:	d102      	bne.n	80015f2 <HAL_RCC_OscConfig+0x4e>
 80015ec:	685a      	ldr	r2, [r3, #4]
 80015ee:	0255      	lsls	r5, r2, #9
 80015f0:	d407      	bmi.n	8001602 <HAL_RCC_OscConfig+0x5e>
 80015f2:	689a      	ldr	r2, [r3, #8]
 80015f4:	f002 020c 	and.w	r2, r2, #12
 80015f8:	2a0c      	cmp	r2, #12
 80015fa:	d10b      	bne.n	8001614 <HAL_RCC_OscConfig+0x70>
 80015fc:	685b      	ldr	r3, [r3, #4]
 80015fe:	0258      	lsls	r0, r3, #9
 8001600:	d508      	bpl.n	8001614 <HAL_RCC_OscConfig+0x70>
 8001602:	4b8a      	ldr	r3, [pc, #552]	; (800182c <HAL_RCC_OscConfig+0x288>)
 8001604:	681b      	ldr	r3, [r3, #0]
 8001606:	0399      	lsls	r1, r3, #14
 8001608:	d5d4      	bpl.n	80015b4 <HAL_RCC_OscConfig+0x10>
 800160a:	6863      	ldr	r3, [r4, #4]
 800160c:	2b00      	cmp	r3, #0
 800160e:	d1d1      	bne.n	80015b4 <HAL_RCC_OscConfig+0x10>
 8001610:	2001      	movs	r0, #1
 8001612:	e015      	b.n	8001640 <HAL_RCC_OscConfig+0x9c>
 8001614:	6863      	ldr	r3, [r4, #4]
 8001616:	4d85      	ldr	r5, [pc, #532]	; (800182c <HAL_RCC_OscConfig+0x288>)
 8001618:	f5b3 3f80 	cmp.w	r3, #65536	; 0x10000
 800161c:	d113      	bne.n	8001646 <HAL_RCC_OscConfig+0xa2>
 800161e:	682b      	ldr	r3, [r5, #0]
 8001620:	f443 3380 	orr.w	r3, r3, #65536	; 0x10000
 8001624:	602b      	str	r3, [r5, #0]
 8001626:	f7ff fb0b 	bl	8000c40 <HAL_GetTick>
 800162a:	4e80      	ldr	r6, [pc, #512]	; (800182c <HAL_RCC_OscConfig+0x288>)
 800162c:	4605      	mov	r5, r0
 800162e:	6833      	ldr	r3, [r6, #0]
 8001630:	039a      	lsls	r2, r3, #14
 8001632:	d4bf      	bmi.n	80015b4 <HAL_RCC_OscConfig+0x10>
 8001634:	f7ff fb04 	bl	8000c40 <HAL_GetTick>
 8001638:	1b40      	subs	r0, r0, r5
 800163a:	2864      	cmp	r0, #100	; 0x64
 800163c:	d9f7      	bls.n	800162e <HAL_RCC_OscConfig+0x8a>
 800163e:	2003      	movs	r0, #3
 8001640:	b002      	add	sp, #8
 8001642:	e8bd 81f0 	ldmia.w	sp!, {r4, r5, r6, r7, r8, pc}
 8001646:	f5b3 2fa0 	cmp.w	r3, #327680	; 0x50000
 800164a:	d104      	bne.n	8001656 <HAL_RCC_OscConfig+0xb2>
 800164c:	682b      	ldr	r3, [r5, #0]
 800164e:	f443 2380 	orr.w	r3, r3, #262144	; 0x40000
 8001652:	602b      	str	r3, [r5, #0]
 8001654:	e7e3      	b.n	800161e <HAL_RCC_OscConfig+0x7a>
 8001656:	682a      	ldr	r2, [r5, #0]
 8001658:	f422 3280 	bic.w	r2, r2, #65536	; 0x10000
 800165c:	602a      	str	r2, [r5, #0]
 800165e:	682a      	ldr	r2, [r5, #0]
 8001660:	f422 2280 	bic.w	r2, r2, #262144	; 0x40000
 8001664:	602a      	str	r2, [r5, #0]
 8001666:	2b00      	cmp	r3, #0
 8001668:	d1dd      	bne.n	8001626 <HAL_RCC_OscConfig+0x82>
 800166a:	f7ff fae9 	bl	8000c40 <HAL_GetTick>
 800166e:	4606      	mov	r6, r0
 8001670:	682b      	ldr	r3, [r5, #0]
 8001672:	039b      	lsls	r3, r3, #14
 8001674:	d59e      	bpl.n	80015b4 <HAL_RCC_OscConfig+0x10>
 8001676:	f7ff fae3 	bl	8000c40 <HAL_GetTick>
 800167a:	1b80      	subs	r0, r0, r6
 800167c:	2864      	cmp	r0, #100	; 0x64
 800167e:	d9f7      	bls.n	8001670 <HAL_RCC_OscConfig+0xcc>
 8001680:	e7dd      	b.n	800163e <HAL_RCC_OscConfig+0x9a>
 8001682:	4b6a      	ldr	r3, [pc, #424]	; (800182c <HAL_RCC_OscConfig+0x288>)
 8001684:	689a      	ldr	r2, [r3, #8]
 8001686:	f012 0f0c 	tst.w	r2, #12
 800168a:	d00f      	beq.n	80016ac <HAL_RCC_OscConfig+0x108>
 800168c:	689a      	ldr	r2, [r3, #8]
 800168e:	f002 020c 	and.w	r2, r2, #12
 8001692:	2a08      	cmp	r2, #8
 8001694:	d102      	bne.n	800169c <HAL_RCC_OscConfig+0xf8>
 8001696:	685a      	ldr	r2, [r3, #4]
 8001698:	0257      	lsls	r7, r2, #9
 800169a:	d507      	bpl.n	80016ac <HAL_RCC_OscConfig+0x108>
 800169c:	689a      	ldr	r2, [r3, #8]
 800169e:	f002 020c 	and.w	r2, r2, #12
 80016a2:	2a0c      	cmp	r2, #12
 80016a4:	d111      	bne.n	80016ca <HAL_RCC_OscConfig+0x126>
 80016a6:	685b      	ldr	r3, [r3, #4]
 80016a8:	025e      	lsls	r6, r3, #9
 80016aa:	d40e      	bmi.n	80016ca <HAL_RCC_OscConfig+0x126>
 80016ac:	4b5f      	ldr	r3, [pc, #380]	; (800182c <HAL_RCC_OscConfig+0x288>)
 80016ae:	681a      	ldr	r2, [r3, #0]
 80016b0:	0795      	lsls	r5, r2, #30
 80016b2:	d502      	bpl.n	80016ba <HAL_RCC_OscConfig+0x116>
 80016b4:	68e2      	ldr	r2, [r4, #12]
 80016b6:	2a01      	cmp	r2, #1
 80016b8:	d1aa      	bne.n	8001610 <HAL_RCC_OscConfig+0x6c>
 80016ba:	681a      	ldr	r2, [r3, #0]
 80016bc:	6921      	ldr	r1, [r4, #16]
 80016be:	f022 02f8 	bic.w	r2, r2, #248	; 0xf8
 80016c2:	ea42 02c1 	orr.w	r2, r2, r1, lsl #3
 80016c6:	601a      	str	r2, [r3, #0]
 80016c8:	e777      	b.n	80015ba <HAL_RCC_OscConfig+0x16>
 80016ca:	68e2      	ldr	r2, [r4, #12]
 80016cc:	4b58      	ldr	r3, [pc, #352]	; (8001830 <HAL_RCC_OscConfig+0x28c>)
 80016ce:	b1b2      	cbz	r2, 80016fe <HAL_RCC_OscConfig+0x15a>
 80016d0:	2201      	movs	r2, #1
 80016d2:	601a      	str	r2, [r3, #0]
 80016d4:	f7ff fab4 	bl	8000c40 <HAL_GetTick>
 80016d8:	4d54      	ldr	r5, [pc, #336]	; (800182c <HAL_RCC_OscConfig+0x288>)
 80016da:	4606      	mov	r6, r0
 80016dc:	682b      	ldr	r3, [r5, #0]
 80016de:	0798      	lsls	r0, r3, #30
 80016e0:	d507      	bpl.n	80016f2 <HAL_RCC_OscConfig+0x14e>
 80016e2:	682b      	ldr	r3, [r5, #0]
 80016e4:	6922      	ldr	r2, [r4, #16]
 80016e6:	f023 03f8 	bic.w	r3, r3, #248	; 0xf8
 80016ea:	ea43 03c2 	orr.w	r3, r3, r2, lsl #3
 80016ee:	602b      	str	r3, [r5, #0]
 80016f0:	e763      	b.n	80015ba <HAL_RCC_OscConfig+0x16>
 80016f2:	f7ff faa5 	bl	8000c40 <HAL_GetTick>
 80016f6:	1b80      	subs	r0, r0, r6
 80016f8:	2802      	cmp	r0, #2
 80016fa:	d9ef      	bls.n	80016dc <HAL_RCC_OscConfig+0x138>
 80016fc:	e79f      	b.n	800163e <HAL_RCC_OscConfig+0x9a>
 80016fe:	601a      	str	r2, [r3, #0]
 8001700:	f7ff fa9e 	bl	8000c40 <HAL_GetTick>
 8001704:	4e49      	ldr	r6, [pc, #292]	; (800182c <HAL_RCC_OscConfig+0x288>)
 8001706:	4605      	mov	r5, r0
 8001708:	6833      	ldr	r3, [r6, #0]
 800170a:	0799      	lsls	r1, r3, #30
 800170c:	f57f af55 	bpl.w	80015ba <HAL_RCC_OscConfig+0x16>
 8001710:	f7ff fa96 	bl	8000c40 <HAL_GetTick>
 8001714:	1b40      	subs	r0, r0, r5
 8001716:	2802      	cmp	r0, #2
 8001718:	d9f6      	bls.n	8001708 <HAL_RCC_OscConfig+0x164>
 800171a:	e790      	b.n	800163e <HAL_RCC_OscConfig+0x9a>
 800171c:	6962      	ldr	r2, [r4, #20]
 800171e:	4b45      	ldr	r3, [pc, #276]	; (8001834 <HAL_RCC_OscConfig+0x290>)
 8001720:	b17a      	cbz	r2, 8001742 <HAL_RCC_OscConfig+0x19e>
 8001722:	2201      	movs	r2, #1
 8001724:	601a      	str	r2, [r3, #0]
 8001726:	f7ff fa8b 	bl	8000c40 <HAL_GetTick>
 800172a:	4e40      	ldr	r6, [pc, #256]	; (800182c <HAL_RCC_OscConfig+0x288>)
 800172c:	4605      	mov	r5, r0
 800172e:	6f73      	ldr	r3, [r6, #116]	; 0x74
 8001730:	079f      	lsls	r7, r3, #30
 8001732:	f53f af46 	bmi.w	80015c2 <HAL_RCC_OscConfig+0x1e>
 8001736:	f7ff fa83 	bl	8000c40 <HAL_GetTick>
 800173a:	1b40      	subs	r0, r0, r5
 800173c:	2802      	cmp	r0, #2
 800173e:	d9f6      	bls.n	800172e <HAL_RCC_OscConfig+0x18a>
 8001740:	e77d      	b.n	800163e <HAL_RCC_OscConfig+0x9a>
 8001742:	601a      	str	r2, [r3, #0]
 8001744:	f7ff fa7c 	bl	8000c40 <HAL_GetTick>
 8001748:	4e38      	ldr	r6, [pc, #224]	; (800182c <HAL_RCC_OscConfig+0x288>)
 800174a:	4605      	mov	r5, r0
 800174c:	6f73      	ldr	r3, [r6, #116]	; 0x74
 800174e:	0798      	lsls	r0, r3, #30
 8001750:	f57f af37 	bpl.w	80015c2 <HAL_RCC_OscConfig+0x1e>
 8001754:	f7ff fa74 	bl	8000c40 <HAL_GetTick>
 8001758:	1b40      	subs	r0, r0, r5
 800175a:	2802      	cmp	r0, #2
 800175c:	d9f6      	bls.n	800174c <HAL_RCC_OscConfig+0x1a8>
 800175e:	e76e      	b.n	800163e <HAL_RCC_OscConfig+0x9a>
 8001760:	4b32      	ldr	r3, [pc, #200]	; (800182c <HAL_RCC_OscConfig+0x288>)
 8001762:	6c1a      	ldr	r2, [r3, #64]	; 0x40
 8001764:	f012 5280 	ands.w	r2, r2, #268435456	; 0x10000000
 8001768:	d128      	bne.n	80017bc <HAL_RCC_OscConfig+0x218>
 800176a:	9201      	str	r2, [sp, #4]
 800176c:	6c1a      	ldr	r2, [r3, #64]	; 0x40
 800176e:	f042 5280 	orr.w	r2, r2, #268435456	; 0x10000000
 8001772:	641a      	str	r2, [r3, #64]	; 0x40
 8001774:	6c1b      	ldr	r3, [r3, #64]	; 0x40
 8001776:	f003 5380 	and.w	r3, r3, #268435456	; 0x10000000
 800177a:	9301      	str	r3, [sp, #4]
 800177c:	9b01      	ldr	r3, [sp, #4]
 800177e:	2701      	movs	r7, #1
 8001780:	4d2d      	ldr	r5, [pc, #180]	; (8001838 <HAL_RCC_OscConfig+0x294>)
 8001782:	682b      	ldr	r3, [r5, #0]
 8001784:	05d9      	lsls	r1, r3, #23
 8001786:	d51b      	bpl.n	80017c0 <HAL_RCC_OscConfig+0x21c>
 8001788:	68a3      	ldr	r3, [r4, #8]
 800178a:	4d28      	ldr	r5, [pc, #160]	; (800182c <HAL_RCC_OscConfig+0x288>)
 800178c:	2b01      	cmp	r3, #1
 800178e:	d127      	bne.n	80017e0 <HAL_RCC_OscConfig+0x23c>
 8001790:	6f2b      	ldr	r3, [r5, #112]	; 0x70
 8001792:	f043 0301 	orr.w	r3, r3, #1
 8001796:	672b      	str	r3, [r5, #112]	; 0x70
 8001798:	f7ff fa52 	bl	8000c40 <HAL_GetTick>
 800179c:	4e23      	ldr	r6, [pc, #140]	; (800182c <HAL_RCC_OscConfig+0x288>)
 800179e:	4605      	mov	r5, r0
 80017a0:	f241 3888 	movw	r8, #5000	; 0x1388
 80017a4:	6f33      	ldr	r3, [r6, #112]	; 0x70
 80017a6:	079b      	lsls	r3, r3, #30
 80017a8:	d539      	bpl.n	800181e <HAL_RCC_OscConfig+0x27a>
 80017aa:	2f00      	cmp	r7, #0
 80017ac:	f43f af0d 	beq.w	80015ca <HAL_RCC_OscConfig+0x26>
 80017b0:	4a1e      	ldr	r2, [pc, #120]	; (800182c <HAL_RCC_OscConfig+0x288>)
 80017b2:	6c13      	ldr	r3, [r2, #64]	; 0x40
 80017b4:	f023 5380 	bic.w	r3, r3, #268435456	; 0x10000000
 80017b8:	6413      	str	r3, [r2, #64]	; 0x40
 80017ba:	e706      	b.n	80015ca <HAL_RCC_OscConfig+0x26>
 80017bc:	2700      	movs	r7, #0
 80017be:	e7df      	b.n	8001780 <HAL_RCC_OscConfig+0x1dc>
 80017c0:	682b      	ldr	r3, [r5, #0]
 80017c2:	f443 7380 	orr.w	r3, r3, #256	; 0x100
 80017c6:	602b      	str	r3, [r5, #0]
 80017c8:	f7ff fa3a 	bl	8000c40 <HAL_GetTick>
 80017cc:	4606      	mov	r6, r0
 80017ce:	682b      	ldr	r3, [r5, #0]
 80017d0:	05da      	lsls	r2, r3, #23
 80017d2:	d4d9      	bmi.n	8001788 <HAL_RCC_OscConfig+0x1e4>
 80017d4:	f7ff fa34 	bl	8000c40 <HAL_GetTick>
 80017d8:	1b80      	subs	r0, r0, r6
 80017da:	2802      	cmp	r0, #2
 80017dc:	d9f7      	bls.n	80017ce <HAL_RCC_OscConfig+0x22a>
 80017de:	e72e      	b.n	800163e <HAL_RCC_OscConfig+0x9a>
 80017e0:	2b05      	cmp	r3, #5
 80017e2:	d104      	bne.n	80017ee <HAL_RCC_OscConfig+0x24a>
 80017e4:	6f2b      	ldr	r3, [r5, #112]	; 0x70
 80017e6:	f043 0304 	orr.w	r3, r3, #4
 80017ea:	672b      	str	r3, [r5, #112]	; 0x70
 80017ec:	e7d0      	b.n	8001790 <HAL_RCC_OscConfig+0x1ec>
 80017ee:	6f2a      	ldr	r2, [r5, #112]	; 0x70
 80017f0:	f022 0201 	bic.w	r2, r2, #1
 80017f4:	672a      	str	r2, [r5, #112]	; 0x70
 80017f6:	6f2a      	ldr	r2, [r5, #112]	; 0x70
 80017f8:	f022 0204 	bic.w	r2, r2, #4
 80017fc:	672a      	str	r2, [r5, #112]	; 0x70
 80017fe:	2b00      	cmp	r3, #0
 8001800:	d1ca      	bne.n	8001798 <HAL_RCC_OscConfig+0x1f4>
 8001802:	f7ff fa1d 	bl	8000c40 <HAL_GetTick>
 8001806:	f241 3888 	movw	r8, #5000	; 0x1388
 800180a:	4606      	mov	r6, r0
 800180c:	6f2b      	ldr	r3, [r5, #112]	; 0x70
 800180e:	0798      	lsls	r0, r3, #30
 8001810:	d5cb      	bpl.n	80017aa <HAL_RCC_OscConfig+0x206>
 8001812:	f7ff fa15 	bl	8000c40 <HAL_GetTick>
 8001816:	1b80      	subs	r0, r0, r6
 8001818:	4540      	cmp	r0, r8
 800181a:	d9f7      	bls.n	800180c <HAL_RCC_OscConfig+0x268>
 800181c:	e70f      	b.n	800163e <HAL_RCC_OscConfig+0x9a>
 800181e:	f7ff fa0f 	bl	8000c40 <HAL_GetTick>
 8001822:	1b40      	subs	r0, r0, r5
 8001824:	4540      	cmp	r0, r8
 8001826:	d9bd      	bls.n	80017a4 <HAL_RCC_OscConfig+0x200>
 8001828:	e709      	b.n	800163e <HAL_RCC_OscConfig+0x9a>
 800182a:	bf00      	nop
 800182c:	40023800 	.word	0x40023800
 8001830:	42470000 	.word	0x42470000
 8001834:	42470e80 	.word	0x42470e80
 8001838:	40007000 	.word	0x40007000
 800183c:	4d3a      	ldr	r5, [pc, #232]	; (8001928 <HAL_RCC_OscConfig+0x384>)
 800183e:	68ab      	ldr	r3, [r5, #8]
 8001840:	f003 030c 	and.w	r3, r3, #12
 8001844:	2b08      	cmp	r3, #8
 8001846:	d03f      	beq.n	80018c8 <HAL_RCC_OscConfig+0x324>
 8001848:	4e38      	ldr	r6, [pc, #224]	; (800192c <HAL_RCC_OscConfig+0x388>)
 800184a:	2300      	movs	r3, #0
 800184c:	2802      	cmp	r0, #2
 800184e:	6033      	str	r3, [r6, #0]
 8001850:	d12d      	bne.n	80018ae <HAL_RCC_OscConfig+0x30a>
 8001852:	f7ff f9f5 	bl	8000c40 <HAL_GetTick>
 8001856:	4607      	mov	r7, r0
 8001858:	682b      	ldr	r3, [r5, #0]
 800185a:	0199      	lsls	r1, r3, #6
 800185c:	d421      	bmi.n	80018a2 <HAL_RCC_OscConfig+0x2fe>
 800185e:	e9d4 3207 	ldrd	r3, r2, [r4, #28]
 8001862:	4313      	orrs	r3, r2
 8001864:	6a62      	ldr	r2, [r4, #36]	; 0x24
 8001866:	ea43 1382 	orr.w	r3, r3, r2, lsl #6
 800186a:	6ae2      	ldr	r2, [r4, #44]	; 0x2c
 800186c:	ea43 6302 	orr.w	r3, r3, r2, lsl #24
 8001870:	6b22      	ldr	r2, [r4, #48]	; 0x30
 8001872:	ea43 7302 	orr.w	r3, r3, r2, lsl #28
 8001876:	6aa2      	ldr	r2, [r4, #40]	; 0x28
 8001878:	0852      	lsrs	r2, r2, #1
 800187a:	3a01      	subs	r2, #1
 800187c:	ea43 4302 	orr.w	r3, r3, r2, lsl #16
 8001880:	606b      	str	r3, [r5, #4]
 8001882:	2301      	movs	r3, #1
 8001884:	6033      	str	r3, [r6, #0]
 8001886:	f7ff f9db 	bl	8000c40 <HAL_GetTick>
 800188a:	4d27      	ldr	r5, [pc, #156]	; (8001928 <HAL_RCC_OscConfig+0x384>)
 800188c:	4604      	mov	r4, r0
 800188e:	682b      	ldr	r3, [r5, #0]
 8001890:	019a      	lsls	r2, r3, #6
 8001892:	f53f ae9e 	bmi.w	80015d2 <HAL_RCC_OscConfig+0x2e>
 8001896:	f7ff f9d3 	bl	8000c40 <HAL_GetTick>
 800189a:	1b00      	subs	r0, r0, r4
 800189c:	2802      	cmp	r0, #2
 800189e:	d9f6      	bls.n	800188e <HAL_RCC_OscConfig+0x2ea>
 80018a0:	e6cd      	b.n	800163e <HAL_RCC_OscConfig+0x9a>
 80018a2:	f7ff f9cd 	bl	8000c40 <HAL_GetTick>
 80018a6:	1bc0      	subs	r0, r0, r7
 80018a8:	2802      	cmp	r0, #2
 80018aa:	d9d5      	bls.n	8001858 <HAL_RCC_OscConfig+0x2b4>
 80018ac:	e6c7      	b.n	800163e <HAL_RCC_OscConfig+0x9a>
 80018ae:	f7ff f9c7 	bl	8000c40 <HAL_GetTick>
 80018b2:	4604      	mov	r4, r0
 80018b4:	682b      	ldr	r3, [r5, #0]
 80018b6:	019b      	lsls	r3, r3, #6
 80018b8:	f57f ae8b 	bpl.w	80015d2 <HAL_RCC_OscConfig+0x2e>
 80018bc:	f7ff f9c0 	bl	8000c40 <HAL_GetTick>
 80018c0:	1b00      	subs	r0, r0, r4
 80018c2:	2802      	cmp	r0, #2
 80018c4:	d9f6      	bls.n	80018b4 <HAL_RCC_OscConfig+0x310>
 80018c6:	e6ba      	b.n	800163e <HAL_RCC_OscConfig+0x9a>
 80018c8:	2801      	cmp	r0, #1
 80018ca:	f43f aeb9 	beq.w	8001640 <HAL_RCC_OscConfig+0x9c>
 80018ce:	686b      	ldr	r3, [r5, #4]
 80018d0:	69e2      	ldr	r2, [r4, #28]
 80018d2:	f403 0180 	and.w	r1, r3, #4194304	; 0x400000
 80018d6:	4291      	cmp	r1, r2
 80018d8:	f47f ae9a 	bne.w	8001610 <HAL_RCC_OscConfig+0x6c>
 80018dc:	6a21      	ldr	r1, [r4, #32]
 80018de:	f003 023f 	and.w	r2, r3, #63	; 0x3f
 80018e2:	428a      	cmp	r2, r1
 80018e4:	f47f ae94 	bne.w	8001610 <HAL_RCC_OscConfig+0x6c>
 80018e8:	6a61      	ldr	r1, [r4, #36]	; 0x24
 80018ea:	f647 72c0 	movw	r2, #32704	; 0x7fc0
 80018ee:	401a      	ands	r2, r3
 80018f0:	ebb2 1f81 	cmp.w	r2, r1, lsl #6
 80018f4:	f47f ae8c 	bne.w	8001610 <HAL_RCC_OscConfig+0x6c>
 80018f8:	6aa2      	ldr	r2, [r4, #40]	; 0x28
 80018fa:	0852      	lsrs	r2, r2, #1
 80018fc:	f403 3140 	and.w	r1, r3, #196608	; 0x30000
 8001900:	3a01      	subs	r2, #1
 8001902:	ebb1 4f02 	cmp.w	r1, r2, lsl #16
 8001906:	f47f ae83 	bne.w	8001610 <HAL_RCC_OscConfig+0x6c>
 800190a:	6ae1      	ldr	r1, [r4, #44]	; 0x2c
 800190c:	f003 6270 	and.w	r2, r3, #251658240	; 0xf000000
 8001910:	ebb2 6f01 	cmp.w	r2, r1, lsl #24
 8001914:	f47f ae7c 	bne.w	8001610 <HAL_RCC_OscConfig+0x6c>
 8001918:	6b22      	ldr	r2, [r4, #48]	; 0x30
 800191a:	f003 43e0 	and.w	r3, r3, #1879048192	; 0x70000000
 800191e:	ebb3 7f02 	cmp.w	r3, r2, lsl #28
 8001922:	f43f ae56 	beq.w	80015d2 <HAL_RCC_OscConfig+0x2e>
 8001926:	e673      	b.n	8001610 <HAL_RCC_OscConfig+0x6c>
 8001928:	40023800 	.word	0x40023800
 800192c:	42470060 	.word	0x42470060

08001930 <HAL_RTC_WaitForSynchro>:
 8001930:	6802      	ldr	r2, [r0, #0]
 8001932:	b538      	push	{r3, r4, r5, lr}
 8001934:	68d3      	ldr	r3, [r2, #12]
 8001936:	f023 03a0 	bic.w	r3, r3, #160	; 0xa0
 800193a:	60d3      	str	r3, [r2, #12]
 800193c:	4604      	mov	r4, r0
 800193e:	f7ff f97f 	bl	8000c40 <HAL_GetTick>
 8001942:	4605      	mov	r5, r0
 8001944:	6823      	ldr	r3, [r4, #0]
 8001946:	68db      	ldr	r3, [r3, #12]
 8001948:	069b      	lsls	r3, r3, #26
 800194a:	d501      	bpl.n	8001950 <HAL_RTC_WaitForSynchro+0x20>
 800194c:	2000      	movs	r0, #0
 800194e:	bd38      	pop	{r3, r4, r5, pc}
 8001950:	f7ff f976 	bl	8000c40 <HAL_GetTick>
 8001954:	1b40      	subs	r0, r0, r5
 8001956:	f5b0 7f7a 	cmp.w	r0, #1000	; 0x3e8
 800195a:	d9f3      	bls.n	8001944 <HAL_RTC_WaitForSynchro+0x14>
 800195c:	2003      	movs	r0, #3
 800195e:	e7f6      	b.n	800194e <HAL_RTC_WaitForSynchro+0x1e>

08001960 <RTC_EnterInitMode>:
 8001960:	b538      	push	{r3, r4, r5, lr}
 8001962:	6803      	ldr	r3, [r0, #0]
 8001964:	68da      	ldr	r2, [r3, #12]
 8001966:	0652      	lsls	r2, r2, #25
 8001968:	4604      	mov	r4, r0
 800196a:	d501      	bpl.n	8001970 <RTC_EnterInitMode+0x10>
 800196c:	2000      	movs	r0, #0
 800196e:	bd38      	pop	{r3, r4, r5, pc}
 8001970:	f04f 32ff 	mov.w	r2, #4294967295
 8001974:	60da      	str	r2, [r3, #12]
 8001976:	f7ff f963 	bl	8000c40 <HAL_GetTick>
 800197a:	4605      	mov	r5, r0
 800197c:	6823      	ldr	r3, [r4, #0]
 800197e:	68db      	ldr	r3, [r3, #12]
 8001980:	065b      	lsls	r3, r3, #25
 8001982:	d4f3      	bmi.n	800196c <RTC_EnterInitMode+0xc>
 8001984:	f7ff f95c 	bl	8000c40 <HAL_GetTick>
 8001988:	1b40      	subs	r0, r0, r5
 800198a:	f5b0 7f7a 	cmp.w	r0, #1000	; 0x3e8
 800198e:	d9f5      	bls.n	800197c <RTC_EnterInitMode+0x1c>
 8001990:	2003      	movs	r0, #3
 8001992:	e7ec      	b.n	800196e <RTC_EnterInitMode+0xe>

08001994 <HAL_RTC_Init>:
 8001994:	b538      	push	{r3, r4, r5, lr}
 8001996:	4604      	mov	r4, r0
 8001998:	b1b8      	cbz	r0, 80019ca <HAL_RTC_Init+0x36>
 800199a:	7f43      	ldrb	r3, [r0, #29]
 800199c:	f003 02ff 	and.w	r2, r3, #255	; 0xff
 80019a0:	b913      	cbnz	r3, 80019a8 <HAL_RTC_Init+0x14>
 80019a2:	7702      	strb	r2, [r0, #28]
 80019a4:	f7fe ffd0 	bl	8000948 <HAL_RTC_MspInit>
 80019a8:	2302      	movs	r3, #2
 80019aa:	7763      	strb	r3, [r4, #29]
 80019ac:	6823      	ldr	r3, [r4, #0]
 80019ae:	22ca      	movs	r2, #202	; 0xca
 80019b0:	625a      	str	r2, [r3, #36]	; 0x24
 80019b2:	2253      	movs	r2, #83	; 0x53
 80019b4:	625a      	str	r2, [r3, #36]	; 0x24
 80019b6:	4620      	mov	r0, r4
 80019b8:	f7ff ffd2 	bl	8001960 <RTC_EnterInitMode>
 80019bc:	6823      	ldr	r3, [r4, #0]
 80019be:	4605      	mov	r5, r0
 80019c0:	b128      	cbz	r0, 80019ce <HAL_RTC_Init+0x3a>
 80019c2:	22ff      	movs	r2, #255	; 0xff
 80019c4:	625a      	str	r2, [r3, #36]	; 0x24
 80019c6:	2304      	movs	r3, #4
 80019c8:	7763      	strb	r3, [r4, #29]
 80019ca:	2501      	movs	r5, #1
 80019cc:	e02e      	b.n	8001a2c <HAL_RTC_Init+0x98>
 80019ce:	689a      	ldr	r2, [r3, #8]
 80019d0:	6920      	ldr	r0, [r4, #16]
 80019d2:	f422 02e0 	bic.w	r2, r2, #7340032	; 0x700000
 80019d6:	f022 0240 	bic.w	r2, r2, #64	; 0x40
 80019da:	609a      	str	r2, [r3, #8]
 80019dc:	6862      	ldr	r2, [r4, #4]
 80019de:	6899      	ldr	r1, [r3, #8]
 80019e0:	4302      	orrs	r2, r0
 80019e2:	6960      	ldr	r0, [r4, #20]
 80019e4:	4302      	orrs	r2, r0
 80019e6:	430a      	orrs	r2, r1
 80019e8:	609a      	str	r2, [r3, #8]
 80019ea:	68e2      	ldr	r2, [r4, #12]
 80019ec:	611a      	str	r2, [r3, #16]
 80019ee:	691a      	ldr	r2, [r3, #16]
 80019f0:	68a1      	ldr	r1, [r4, #8]
 80019f2:	ea42 4201 	orr.w	r2, r2, r1, lsl #16
 80019f6:	611a      	str	r2, [r3, #16]
 80019f8:	68da      	ldr	r2, [r3, #12]
 80019fa:	f022 0280 	bic.w	r2, r2, #128	; 0x80
 80019fe:	60da      	str	r2, [r3, #12]
 8001a00:	689b      	ldr	r3, [r3, #8]
 8001a02:	069b      	lsls	r3, r3, #26
 8001a04:	d405      	bmi.n	8001a12 <HAL_RTC_Init+0x7e>
 8001a06:	4620      	mov	r0, r4
 8001a08:	f7ff ff92 	bl	8001930 <HAL_RTC_WaitForSynchro>
 8001a0c:	b108      	cbz	r0, 8001a12 <HAL_RTC_Init+0x7e>
 8001a0e:	6823      	ldr	r3, [r4, #0]
 8001a10:	e7d7      	b.n	80019c2 <HAL_RTC_Init+0x2e>
 8001a12:	6823      	ldr	r3, [r4, #0]
 8001a14:	69a1      	ldr	r1, [r4, #24]
 8001a16:	6c1a      	ldr	r2, [r3, #64]	; 0x40
 8001a18:	f422 2280 	bic.w	r2, r2, #262144	; 0x40000
 8001a1c:	641a      	str	r2, [r3, #64]	; 0x40
 8001a1e:	6c1a      	ldr	r2, [r3, #64]	; 0x40
 8001a20:	430a      	orrs	r2, r1
 8001a22:	641a      	str	r2, [r3, #64]	; 0x40
 8001a24:	22ff      	movs	r2, #255	; 0xff
 8001a26:	625a      	str	r2, [r3, #36]	; 0x24
 8001a28:	2301      	movs	r3, #1
 8001a2a:	7763      	strb	r3, [r4, #29]
 8001a2c:	4628      	mov	r0, r5
 8001a2e:	bd38      	pop	{r3, r4, r5, pc}

08001a30 <HAL_RTCEx_SetWakeUpTimer_IT>:
 8001a30:	b573      	push	{r0, r1, r4, r5, r6, lr}
 8001a32:	7f03      	ldrb	r3, [r0, #28]
 8001a34:	2b01      	cmp	r3, #1
 8001a36:	f04f 0302 	mov.w	r3, #2
 8001a3a:	d02d      	beq.n	8001a98 <HAL_RTCEx_SetWakeUpTimer_IT+0x68>
 8001a3c:	7743      	strb	r3, [r0, #29]
 8001a3e:	2401      	movs	r4, #1
 8001a40:	6803      	ldr	r3, [r0, #0]
 8001a42:	7704      	strb	r4, [r0, #28]
 8001a44:	24ca      	movs	r4, #202	; 0xca
 8001a46:	625c      	str	r4, [r3, #36]	; 0x24
 8001a48:	2453      	movs	r4, #83	; 0x53
 8001a4a:	625c      	str	r4, [r3, #36]	; 0x24
 8001a4c:	689e      	ldr	r6, [r3, #8]
 8001a4e:	4c2a      	ldr	r4, [pc, #168]	; (8001af8 <HAL_RTCEx_SetWakeUpTimer_IT+0xc8>)
 8001a50:	f44f 45fa 	mov.w	r5, #32000	; 0x7d00
 8001a54:	6824      	ldr	r4, [r4, #0]
 8001a56:	fbb4 f5f5 	udiv	r5, r4, r5
 8001a5a:	0576      	lsls	r6, r6, #21
 8001a5c:	f44f 747a 	mov.w	r4, #1000	; 0x3e8
 8001a60:	fb04 f405 	mul.w	r4, r4, r5
 8001a64:	d40e      	bmi.n	8001a84 <HAL_RTCEx_SetWakeUpTimer_IT+0x54>
 8001a66:	689d      	ldr	r5, [r3, #8]
 8001a68:	f425 6580 	bic.w	r5, r5, #1024	; 0x400
 8001a6c:	609d      	str	r5, [r3, #8]
 8001a6e:	9401      	str	r4, [sp, #4]
 8001a70:	9c01      	ldr	r4, [sp, #4]
 8001a72:	1e65      	subs	r5, r4, #1
 8001a74:	9501      	str	r5, [sp, #4]
 8001a76:	b9b4      	cbnz	r4, 8001aa6 <HAL_RTCEx_SetWakeUpTimer_IT+0x76>
 8001a78:	22ff      	movs	r2, #255	; 0xff
 8001a7a:	625a      	str	r2, [r3, #36]	; 0x24
 8001a7c:	2303      	movs	r3, #3
 8001a7e:	7743      	strb	r3, [r0, #29]
 8001a80:	7704      	strb	r4, [r0, #28]
 8001a82:	e009      	b.n	8001a98 <HAL_RTCEx_SetWakeUpTimer_IT+0x68>
 8001a84:	9401      	str	r4, [sp, #4]
 8001a86:	9d01      	ldr	r5, [sp, #4]
 8001a88:	1e6e      	subs	r6, r5, #1
 8001a8a:	9601      	str	r6, [sp, #4]
 8001a8c:	b93d      	cbnz	r5, 8001a9e <HAL_RTCEx_SetWakeUpTimer_IT+0x6e>
 8001a8e:	22ff      	movs	r2, #255	; 0xff
 8001a90:	625a      	str	r2, [r3, #36]	; 0x24
 8001a92:	2303      	movs	r3, #3
 8001a94:	7743      	strb	r3, [r0, #29]
 8001a96:	7705      	strb	r5, [r0, #28]
 8001a98:	4618      	mov	r0, r3
 8001a9a:	b002      	add	sp, #8
 8001a9c:	bd70      	pop	{r4, r5, r6, pc}
 8001a9e:	68dd      	ldr	r5, [r3, #12]
 8001aa0:	076d      	lsls	r5, r5, #29
 8001aa2:	d4f0      	bmi.n	8001a86 <HAL_RTCEx_SetWakeUpTimer_IT+0x56>
 8001aa4:	e7df      	b.n	8001a66 <HAL_RTCEx_SetWakeUpTimer_IT+0x36>
 8001aa6:	68dc      	ldr	r4, [r3, #12]
 8001aa8:	0764      	lsls	r4, r4, #29
 8001aaa:	d5e1      	bpl.n	8001a70 <HAL_RTCEx_SetWakeUpTimer_IT+0x40>
 8001aac:	6159      	str	r1, [r3, #20]
 8001aae:	6899      	ldr	r1, [r3, #8]
 8001ab0:	f021 0107 	bic.w	r1, r1, #7
 8001ab4:	6099      	str	r1, [r3, #8]
 8001ab6:	6899      	ldr	r1, [r3, #8]
 8001ab8:	430a      	orrs	r2, r1
 8001aba:	609a      	str	r2, [r3, #8]
 8001abc:	4a0f      	ldr	r2, [pc, #60]	; (8001afc <HAL_RTCEx_SetWakeUpTimer_IT+0xcc>)
 8001abe:	6811      	ldr	r1, [r2, #0]
 8001ac0:	f441 0180 	orr.w	r1, r1, #4194304	; 0x400000
 8001ac4:	6011      	str	r1, [r2, #0]
 8001ac6:	6891      	ldr	r1, [r2, #8]
 8001ac8:	f441 0180 	orr.w	r1, r1, #4194304	; 0x400000
 8001acc:	6091      	str	r1, [r2, #8]
 8001ace:	68da      	ldr	r2, [r3, #12]
 8001ad0:	b2d2      	uxtb	r2, r2
 8001ad2:	f462 6290 	orn	r2, r2, #1152	; 0x480
 8001ad6:	60da      	str	r2, [r3, #12]
 8001ad8:	689a      	ldr	r2, [r3, #8]
 8001ada:	f442 4280 	orr.w	r2, r2, #16384	; 0x4000
 8001ade:	609a      	str	r2, [r3, #8]
 8001ae0:	689a      	ldr	r2, [r3, #8]
 8001ae2:	f442 6280 	orr.w	r2, r2, #1024	; 0x400
 8001ae6:	609a      	str	r2, [r3, #8]
 8001ae8:	22ff      	movs	r2, #255	; 0xff
 8001aea:	625a      	str	r2, [r3, #36]	; 0x24
 8001aec:	2301      	movs	r3, #1
 8001aee:	7743      	strb	r3, [r0, #29]
 8001af0:	2300      	movs	r3, #0
 8001af2:	7703      	strb	r3, [r0, #28]
 8001af4:	e7d0      	b.n	8001a98 <HAL_RTCEx_SetWakeUpTimer_IT+0x68>
 8001af6:	bf00      	nop
 8001af8:	20000008 	.word	0x20000008
 8001afc:	40013c00 	.word	0x40013c00

08001b00 <HAL_RTCEx_BKUPWrite>:
 8001b00:	6803      	ldr	r3, [r0, #0]
 8001b02:	3350      	adds	r3, #80	; 0x50
 8001b04:	f843 2021 	str.w	r2, [r3, r1, lsl #2]
 8001b08:	4770      	bx	lr

08001b0a <HAL_RTCEx_BKUPRead>:
 8001b0a:	6803      	ldr	r3, [r0, #0]
 8001b0c:	3350      	adds	r3, #80	; 0x50
 8001b0e:	f853 0021 	ldr.w	r0, [r3, r1, lsl #2]
 8001b12:	4770      	bx	lr

08001b14 <UART_SetConfig>:
 8001b14:	6802      	ldr	r2, [r0, #0]
 8001b16:	68c1      	ldr	r1, [r0, #12]
 8001b18:	b538      	push	{r3, r4, r5, lr}
 8001b1a:	6913      	ldr	r3, [r2, #16]
 8001b1c:	f423 5340 	bic.w	r3, r3, #12288	; 0x3000
 8001b20:	430b      	orrs	r3, r1
 8001b22:	6113      	str	r3, [r2, #16]
 8001b24:	4605      	mov	r5, r0
 8001b26:	6883      	ldr	r3, [r0, #8]
 8001b28:	6900      	ldr	r0, [r0, #16]
 8001b2a:	68d1      	ldr	r1, [r2, #12]
 8001b2c:	4303      	orrs	r3, r0
 8001b2e:	6968      	ldr	r0, [r5, #20]
 8001b30:	4303      	orrs	r3, r0
 8001b32:	69e8      	ldr	r0, [r5, #28]
 8001b34:	f421 4116 	bic.w	r1, r1, #38400	; 0x9600
 8001b38:	f021 010c 	bic.w	r1, r1, #12
 8001b3c:	4303      	orrs	r3, r0
 8001b3e:	430b      	orrs	r3, r1
 8001b40:	60d3      	str	r3, [r2, #12]
 8001b42:	6953      	ldr	r3, [r2, #20]
 8001b44:	69a9      	ldr	r1, [r5, #24]
 8001b46:	f423 7340 	bic.w	r3, r3, #768	; 0x300
 8001b4a:	430b      	orrs	r3, r1
 8001b4c:	6153      	str	r3, [r2, #20]
 8001b4e:	4b1f      	ldr	r3, [pc, #124]	; (8001bcc <UART_SetConfig+0xb8>)
 8001b50:	429a      	cmp	r2, r3
 8001b52:	d003      	beq.n	8001b5c <UART_SetConfig+0x48>
 8001b54:	f503 6380 	add.w	r3, r3, #1024	; 0x400
 8001b58:	429a      	cmp	r2, r3
 8001b5a:	d124      	bne.n	8001ba6 <UART_SetConfig+0x92>
 8001b5c:	f7ff fabe 	bl	80010dc <HAL_RCC_GetPCLK2Freq>
 8001b60:	69ea      	ldr	r2, [r5, #28]
 8001b62:	2319      	movs	r3, #25
 8001b64:	f5b2 4f00 	cmp.w	r2, #32768	; 0x8000
 8001b68:	fba0 0103 	umull	r0, r1, r0, r3
 8001b6c:	e9d5 4300 	ldrd	r4, r3, [r5]
 8001b70:	d11c      	bne.n	8001bac <UART_SetConfig+0x98>
 8001b72:	461a      	mov	r2, r3
 8001b74:	1892      	adds	r2, r2, r2
 8001b76:	f04f 0300 	mov.w	r3, #0
 8001b7a:	415b      	adcs	r3, r3
 8001b7c:	f7fe fba0 	bl	80002c0 <__aeabi_uldivmod>
 8001b80:	2164      	movs	r1, #100	; 0x64
 8001b82:	fbb0 f5f1 	udiv	r5, r0, r1
 8001b86:	fb01 0315 	mls	r3, r1, r5, r0
 8001b8a:	00db      	lsls	r3, r3, #3
 8001b8c:	3332      	adds	r3, #50	; 0x32
 8001b8e:	fbb3 f3f1 	udiv	r3, r3, r1
 8001b92:	f003 0207 	and.w	r2, r3, #7
 8001b96:	005b      	lsls	r3, r3, #1
 8001b98:	eb02 1205 	add.w	r2, r2, r5, lsl #4
 8001b9c:	f403 73f8 	and.w	r3, r3, #496	; 0x1f0
 8001ba0:	4413      	add	r3, r2
 8001ba2:	60a3      	str	r3, [r4, #8]
 8001ba4:	bd38      	pop	{r3, r4, r5, pc}
 8001ba6:	f7ff fa89 	bl	80010bc <HAL_RCC_GetPCLK1Freq>
 8001baa:	e7d9      	b.n	8001b60 <UART_SetConfig+0x4c>
 8001bac:	009a      	lsls	r2, r3, #2
 8001bae:	0f9b      	lsrs	r3, r3, #30
 8001bb0:	f7fe fb86 	bl	80002c0 <__aeabi_uldivmod>
 8001bb4:	2264      	movs	r2, #100	; 0x64
 8001bb6:	fbb0 f1f2 	udiv	r1, r0, r2
 8001bba:	fb02 0311 	mls	r3, r2, r1, r0
 8001bbe:	011b      	lsls	r3, r3, #4
 8001bc0:	3332      	adds	r3, #50	; 0x32
 8001bc2:	fbb3 f3f2 	udiv	r3, r3, r2
 8001bc6:	eb03 1301 	add.w	r3, r3, r1, lsl #4
 8001bca:	e7ea      	b.n	8001ba2 <UART_SetConfig+0x8e>
 8001bcc:	40011000 	.word	0x40011000

08001bd0 <UART_WaitOnFlagUntilTimeout.constprop.0>:
 8001bd0:	b5f8      	push	{r3, r4, r5, r6, r7, lr}
 8001bd2:	4604      	mov	r4, r0
 8001bd4:	460e      	mov	r6, r1
 8001bd6:	4617      	mov	r7, r2
 8001bd8:	461d      	mov	r5, r3
 8001bda:	6822      	ldr	r2, [r4, #0]
 8001bdc:	6813      	ldr	r3, [r2, #0]
 8001bde:	ea36 0303 	bics.w	r3, r6, r3
 8001be2:	d101      	bne.n	8001be8 <UART_WaitOnFlagUntilTimeout.constprop.0+0x18>
 8001be4:	2000      	movs	r0, #0
 8001be6:	e028      	b.n	8001c3a <UART_WaitOnFlagUntilTimeout.constprop.0+0x6a>
 8001be8:	1c6b      	adds	r3, r5, #1
 8001bea:	d0f7      	beq.n	8001bdc <UART_WaitOnFlagUntilTimeout.constprop.0+0xc>
 8001bec:	b125      	cbz	r5, 8001bf8 <UART_WaitOnFlagUntilTimeout.constprop.0+0x28>
 8001bee:	f7ff f827 	bl	8000c40 <HAL_GetTick>
 8001bf2:	1bc0      	subs	r0, r0, r7
 8001bf4:	4285      	cmp	r5, r0
 8001bf6:	d2f0      	bcs.n	8001bda <UART_WaitOnFlagUntilTimeout.constprop.0+0xa>
 8001bf8:	6822      	ldr	r2, [r4, #0]
 8001bfa:	f102 030c 	add.w	r3, r2, #12
 8001bfe:	e853 3f00 	ldrex	r3, [r3]
 8001c02:	f423 73d0 	bic.w	r3, r3, #416	; 0x1a0
 8001c06:	320c      	adds	r2, #12
 8001c08:	e842 3000 	strex	r0, r3, [r2]
 8001c0c:	6821      	ldr	r1, [r4, #0]
 8001c0e:	2800      	cmp	r0, #0
 8001c10:	d1f2      	bne.n	8001bf8 <UART_WaitOnFlagUntilTimeout.constprop.0+0x28>
 8001c12:	f101 0314 	add.w	r3, r1, #20
 8001c16:	e853 3f00 	ldrex	r3, [r3]
 8001c1a:	f023 0301 	bic.w	r3, r3, #1
 8001c1e:	f101 0014 	add.w	r0, r1, #20
 8001c22:	e840 3200 	strex	r2, r3, [r0]
 8001c26:	2a00      	cmp	r2, #0
 8001c28:	d1f3      	bne.n	8001c12 <UART_WaitOnFlagUntilTimeout.constprop.0+0x42>
 8001c2a:	2320      	movs	r3, #32
 8001c2c:	f884 303d 	strb.w	r3, [r4, #61]	; 0x3d
 8001c30:	f884 203c 	strb.w	r2, [r4, #60]	; 0x3c
 8001c34:	f884 303e 	strb.w	r3, [r4, #62]	; 0x3e
 8001c38:	2003      	movs	r0, #3
 8001c3a:	bdf8      	pop	{r3, r4, r5, r6, r7, pc}

08001c3c <HAL_UART_Init>:
 8001c3c:	b510      	push	{r4, lr}
 8001c3e:	4604      	mov	r4, r0
 8001c40:	b340      	cbz	r0, 8001c94 <HAL_UART_Init+0x58>
 8001c42:	f890 303d 	ldrb.w	r3, [r0, #61]	; 0x3d
 8001c46:	f003 02ff 	and.w	r2, r3, #255	; 0xff
 8001c4a:	b91b      	cbnz	r3, 8001c54 <HAL_UART_Init+0x18>
 8001c4c:	f880 203c 	strb.w	r2, [r0, #60]	; 0x3c
 8001c50:	f7fe fe9a 	bl	8000988 <HAL_UART_MspInit>
 8001c54:	6822      	ldr	r2, [r4, #0]
 8001c56:	2324      	movs	r3, #36	; 0x24
 8001c58:	f884 303d 	strb.w	r3, [r4, #61]	; 0x3d
 8001c5c:	68d3      	ldr	r3, [r2, #12]
 8001c5e:	f423 5300 	bic.w	r3, r3, #8192	; 0x2000
 8001c62:	60d3      	str	r3, [r2, #12]
 8001c64:	4620      	mov	r0, r4
 8001c66:	f7ff ff55 	bl	8001b14 <UART_SetConfig>
 8001c6a:	6823      	ldr	r3, [r4, #0]
 8001c6c:	691a      	ldr	r2, [r3, #16]
 8001c6e:	f422 4290 	bic.w	r2, r2, #18432	; 0x4800
 8001c72:	611a      	str	r2, [r3, #16]
 8001c74:	695a      	ldr	r2, [r3, #20]
 8001c76:	f022 022a 	bic.w	r2, r2, #42	; 0x2a
 8001c7a:	615a      	str	r2, [r3, #20]
 8001c7c:	68da      	ldr	r2, [r3, #12]
 8001c7e:	f442 5200 	orr.w	r2, r2, #8192	; 0x2000
 8001c82:	60da      	str	r2, [r3, #12]
 8001c84:	2000      	movs	r0, #0
 8001c86:	2320      	movs	r3, #32
 8001c88:	6420      	str	r0, [r4, #64]	; 0x40
 8001c8a:	f884 303d 	strb.w	r3, [r4, #61]	; 0x3d
 8001c8e:	f884 303e 	strb.w	r3, [r4, #62]	; 0x3e
 8001c92:	bd10      	pop	{r4, pc}
 8001c94:	2001      	movs	r0, #1
 8001c96:	e7fc      	b.n	8001c92 <HAL_UART_Init+0x56>

08001c98 <HAL_UART_Transmit>:
 8001c98:	b5f7      	push	{r0, r1, r2, r4, r5, r6, r7, lr}
 8001c9a:	4617      	mov	r7, r2
 8001c9c:	f890 203d 	ldrb.w	r2, [r0, #61]	; 0x3d
 8001ca0:	9300      	str	r3, [sp, #0]
 8001ca2:	2a20      	cmp	r2, #32
 8001ca4:	4604      	mov	r4, r0
 8001ca6:	460e      	mov	r6, r1
 8001ca8:	d149      	bne.n	8001d3e <HAL_UART_Transmit+0xa6>
 8001caa:	2900      	cmp	r1, #0
 8001cac:	d045      	beq.n	8001d3a <HAL_UART_Transmit+0xa2>
 8001cae:	2f00      	cmp	r7, #0
 8001cb0:	d043      	beq.n	8001d3a <HAL_UART_Transmit+0xa2>
 8001cb2:	f890 203c 	ldrb.w	r2, [r0, #60]	; 0x3c
 8001cb6:	2a01      	cmp	r2, #1
 8001cb8:	d041      	beq.n	8001d3e <HAL_UART_Transmit+0xa6>
 8001cba:	2201      	movs	r2, #1
 8001cbc:	f880 203c 	strb.w	r2, [r0, #60]	; 0x3c
 8001cc0:	2500      	movs	r5, #0
 8001cc2:	2221      	movs	r2, #33	; 0x21
 8001cc4:	6405      	str	r5, [r0, #64]	; 0x40
 8001cc6:	f880 203d 	strb.w	r2, [r0, #61]	; 0x3d
 8001cca:	f7fe ffb9 	bl	8000c40 <HAL_GetTick>
 8001cce:	68a1      	ldr	r1, [r4, #8]
 8001cd0:	9b00      	ldr	r3, [sp, #0]
 8001cd2:	84a7      	strh	r7, [r4, #36]	; 0x24
 8001cd4:	f5b1 5f80 	cmp.w	r1, #4096	; 0x1000
 8001cd8:	4602      	mov	r2, r0
 8001cda:	84e7      	strh	r7, [r4, #38]	; 0x26
 8001cdc:	d103      	bne.n	8001ce6 <HAL_UART_Transmit+0x4e>
 8001cde:	6921      	ldr	r1, [r4, #16]
 8001ce0:	b909      	cbnz	r1, 8001ce6 <HAL_UART_Transmit+0x4e>
 8001ce2:	4635      	mov	r5, r6
 8001ce4:	460e      	mov	r6, r1
 8001ce6:	2100      	movs	r1, #0
 8001ce8:	f884 103c 	strb.w	r1, [r4, #60]	; 0x3c
 8001cec:	8ce1      	ldrh	r1, [r4, #38]	; 0x26
 8001cee:	b289      	uxth	r1, r1
 8001cf0:	b941      	cbnz	r1, 8001d04 <HAL_UART_Transmit+0x6c>
 8001cf2:	2140      	movs	r1, #64	; 0x40
 8001cf4:	4620      	mov	r0, r4
 8001cf6:	f7ff ff6b 	bl	8001bd0 <UART_WaitOnFlagUntilTimeout.constprop.0>
 8001cfa:	b960      	cbnz	r0, 8001d16 <HAL_UART_Transmit+0x7e>
 8001cfc:	2320      	movs	r3, #32
 8001cfe:	f884 303d 	strb.w	r3, [r4, #61]	; 0x3d
 8001d02:	e009      	b.n	8001d18 <HAL_UART_Transmit+0x80>
 8001d04:	2180      	movs	r1, #128	; 0x80
 8001d06:	4620      	mov	r0, r4
 8001d08:	e9cd 2300 	strd	r2, r3, [sp]
 8001d0c:	f7ff ff60 	bl	8001bd0 <UART_WaitOnFlagUntilTimeout.constprop.0>
 8001d10:	e9dd 2300 	ldrd	r2, r3, [sp]
 8001d14:	b110      	cbz	r0, 8001d1c <HAL_UART_Transmit+0x84>
 8001d16:	2003      	movs	r0, #3
 8001d18:	b003      	add	sp, #12
 8001d1a:	bdf0      	pop	{r4, r5, r6, r7, pc}
 8001d1c:	6820      	ldr	r0, [r4, #0]
 8001d1e:	b94e      	cbnz	r6, 8001d34 <HAL_UART_Transmit+0x9c>
 8001d20:	f835 1b02 	ldrh.w	r1, [r5], #2
 8001d24:	f3c1 0108 	ubfx	r1, r1, #0, #9
 8001d28:	6041      	str	r1, [r0, #4]
 8001d2a:	8ce1      	ldrh	r1, [r4, #38]	; 0x26
 8001d2c:	3901      	subs	r1, #1
 8001d2e:	b289      	uxth	r1, r1
 8001d30:	84e1      	strh	r1, [r4, #38]	; 0x26
 8001d32:	e7db      	b.n	8001cec <HAL_UART_Transmit+0x54>
 8001d34:	f816 1b01 	ldrb.w	r1, [r6], #1
 8001d38:	e7f6      	b.n	8001d28 <HAL_UART_Transmit+0x90>
 8001d3a:	2001      	movs	r0, #1
 8001d3c:	e7ec      	b.n	8001d18 <HAL_UART_Transmit+0x80>
 8001d3e:	2002      	movs	r0, #2
 8001d40:	e7ea      	b.n	8001d18 <HAL_UART_Transmit+0x80>
	...

08001d44 <__errno>:
 8001d44:	4b01      	ldr	r3, [pc, #4]	; (8001d4c <__errno+0x8>)
 8001d46:	6818      	ldr	r0, [r3, #0]
 8001d48:	4770      	bx	lr
 8001d4a:	bf00      	nop
 8001d4c:	2000001c 	.word	0x2000001c

08001d50 <__libc_init_array>:
 8001d50:	b570      	push	{r4, r5, r6, lr}
 8001d52:	4d0d      	ldr	r5, [pc, #52]	; (8001d88 <__libc_init_array+0x38>)
 8001d54:	4c0d      	ldr	r4, [pc, #52]	; (8001d8c <__libc_init_array+0x3c>)
 8001d56:	1b64      	subs	r4, r4, r5
 8001d58:	10a4      	asrs	r4, r4, #2
 8001d5a:	2600      	movs	r6, #0
 8001d5c:	42a6      	cmp	r6, r4
 8001d5e:	d109      	bne.n	8001d74 <__libc_init_array+0x24>
 8001d60:	4d0b      	ldr	r5, [pc, #44]	; (8001d90 <__libc_init_array+0x40>)
 8001d62:	4c0c      	ldr	r4, [pc, #48]	; (8001d94 <__libc_init_array+0x44>)
 8001d64:	f000 fc4e 	bl	8002604 <_init>
 8001d68:	1b64      	subs	r4, r4, r5
 8001d6a:	10a4      	asrs	r4, r4, #2
 8001d6c:	2600      	movs	r6, #0
 8001d6e:	42a6      	cmp	r6, r4
 8001d70:	d105      	bne.n	8001d7e <__libc_init_array+0x2e>
 8001d72:	bd70      	pop	{r4, r5, r6, pc}
 8001d74:	f855 3b04 	ldr.w	r3, [r5], #4
 8001d78:	4798      	blx	r3
 8001d7a:	3601      	adds	r6, #1
 8001d7c:	e7ee      	b.n	8001d5c <__libc_init_array+0xc>
 8001d7e:	f855 3b04 	ldr.w	r3, [r5], #4
 8001d82:	4798      	blx	r3
 8001d84:	3601      	adds	r6, #1
 8001d86:	e7f2      	b.n	8001d6e <__libc_init_array+0x1e>
 8001d88:	080026f0 	.word	0x080026f0
 8001d8c:	080026f0 	.word	0x080026f0
 8001d90:	080026f0 	.word	0x080026f0
 8001d94:	080026f4 	.word	0x080026f4

08001d98 <memset>:
 8001d98:	4402      	add	r2, r0
 8001d9a:	4603      	mov	r3, r0
 8001d9c:	4293      	cmp	r3, r2
 8001d9e:	d100      	bne.n	8001da2 <memset+0xa>
 8001da0:	4770      	bx	lr
 8001da2:	f803 1b01 	strb.w	r1, [r3], #1
 8001da6:	e7f9      	b.n	8001d9c <memset+0x4>

08001da8 <siprintf>:
 8001da8:	b40e      	push	{r1, r2, r3}
 8001daa:	b500      	push	{lr}
 8001dac:	b09c      	sub	sp, #112	; 0x70
 8001dae:	ab1d      	add	r3, sp, #116	; 0x74
 8001db0:	9002      	str	r0, [sp, #8]
 8001db2:	9006      	str	r0, [sp, #24]
 8001db4:	f06f 4100 	mvn.w	r1, #2147483648	; 0x80000000
 8001db8:	4809      	ldr	r0, [pc, #36]	; (8001de0 <siprintf+0x38>)
 8001dba:	9107      	str	r1, [sp, #28]
 8001dbc:	9104      	str	r1, [sp, #16]
 8001dbe:	4909      	ldr	r1, [pc, #36]	; (8001de4 <siprintf+0x3c>)
 8001dc0:	f853 2b04 	ldr.w	r2, [r3], #4
 8001dc4:	9105      	str	r1, [sp, #20]
 8001dc6:	6800      	ldr	r0, [r0, #0]
 8001dc8:	9301      	str	r3, [sp, #4]
 8001dca:	a902      	add	r1, sp, #8
 8001dcc:	f000 f868 	bl	8001ea0 <_svfiprintf_r>
 8001dd0:	9b02      	ldr	r3, [sp, #8]
 8001dd2:	2200      	movs	r2, #0
 8001dd4:	701a      	strb	r2, [r3, #0]
 8001dd6:	b01c      	add	sp, #112	; 0x70
 8001dd8:	f85d eb04 	ldr.w	lr, [sp], #4
 8001ddc:	b003      	add	sp, #12
 8001dde:	4770      	bx	lr
 8001de0:	2000001c 	.word	0x2000001c
 8001de4:	ffff0208 	.word	0xffff0208

08001de8 <__ssputs_r>:
 8001de8:	e92d 47f0 	stmdb	sp!, {r4, r5, r6, r7, r8, r9, sl, lr}
 8001dec:	688e      	ldr	r6, [r1, #8]
 8001dee:	429e      	cmp	r6, r3
 8001df0:	4682      	mov	sl, r0
 8001df2:	460c      	mov	r4, r1
 8001df4:	4690      	mov	r8, r2
 8001df6:	461f      	mov	r7, r3
 8001df8:	d838      	bhi.n	8001e6c <__ssputs_r+0x84>
 8001dfa:	898a      	ldrh	r2, [r1, #12]
 8001dfc:	f412 6f90 	tst.w	r2, #1152	; 0x480
 8001e00:	d032      	beq.n	8001e68 <__ssputs_r+0x80>
 8001e02:	6825      	ldr	r5, [r4, #0]
 8001e04:	6909      	ldr	r1, [r1, #16]
 8001e06:	eba5 0901 	sub.w	r9, r5, r1
 8001e0a:	6965      	ldr	r5, [r4, #20]
 8001e0c:	eb05 0545 	add.w	r5, r5, r5, lsl #1
 8001e10:	eb05 75d5 	add.w	r5, r5, r5, lsr #31
 8001e14:	3301      	adds	r3, #1
 8001e16:	444b      	add	r3, r9
 8001e18:	106d      	asrs	r5, r5, #1
 8001e1a:	429d      	cmp	r5, r3
 8001e1c:	bf38      	it	cc
 8001e1e:	461d      	movcc	r5, r3
 8001e20:	0553      	lsls	r3, r2, #21
 8001e22:	d531      	bpl.n	8001e88 <__ssputs_r+0xa0>
 8001e24:	4629      	mov	r1, r5
 8001e26:	f000 fb47 	bl	80024b8 <_malloc_r>
 8001e2a:	4606      	mov	r6, r0
 8001e2c:	b950      	cbnz	r0, 8001e44 <__ssputs_r+0x5c>
 8001e2e:	230c      	movs	r3, #12
 8001e30:	f8ca 3000 	str.w	r3, [sl]
 8001e34:	89a3      	ldrh	r3, [r4, #12]
 8001e36:	f043 0340 	orr.w	r3, r3, #64	; 0x40
 8001e3a:	81a3      	strh	r3, [r4, #12]
 8001e3c:	f04f 30ff 	mov.w	r0, #4294967295
 8001e40:	e8bd 87f0 	ldmia.w	sp!, {r4, r5, r6, r7, r8, r9, sl, pc}
 8001e44:	6921      	ldr	r1, [r4, #16]
 8001e46:	464a      	mov	r2, r9
 8001e48:	f000 fabe 	bl	80023c8 <memcpy>
 8001e4c:	89a3      	ldrh	r3, [r4, #12]
 8001e4e:	f423 6390 	bic.w	r3, r3, #1152	; 0x480
 8001e52:	f043 0380 	orr.w	r3, r3, #128	; 0x80
 8001e56:	81a3      	strh	r3, [r4, #12]
 8001e58:	6126      	str	r6, [r4, #16]
 8001e5a:	6165      	str	r5, [r4, #20]
 8001e5c:	444e      	add	r6, r9
 8001e5e:	eba5 0509 	sub.w	r5, r5, r9
 8001e62:	6026      	str	r6, [r4, #0]
 8001e64:	60a5      	str	r5, [r4, #8]
 8001e66:	463e      	mov	r6, r7
 8001e68:	42be      	cmp	r6, r7
 8001e6a:	d900      	bls.n	8001e6e <__ssputs_r+0x86>
 8001e6c:	463e      	mov	r6, r7
 8001e6e:	4632      	mov	r2, r6
 8001e70:	6820      	ldr	r0, [r4, #0]
 8001e72:	4641      	mov	r1, r8
 8001e74:	f000 fab6 	bl	80023e4 <memmove>
 8001e78:	68a3      	ldr	r3, [r4, #8]
 8001e7a:	6822      	ldr	r2, [r4, #0]
 8001e7c:	1b9b      	subs	r3, r3, r6
 8001e7e:	4432      	add	r2, r6
 8001e80:	60a3      	str	r3, [r4, #8]
 8001e82:	6022      	str	r2, [r4, #0]
 8001e84:	2000      	movs	r0, #0
 8001e86:	e7db      	b.n	8001e40 <__ssputs_r+0x58>
 8001e88:	462a      	mov	r2, r5
 8001e8a:	f000 fb6f 	bl	800256c <_realloc_r>
 8001e8e:	4606      	mov	r6, r0
 8001e90:	2800      	cmp	r0, #0
 8001e92:	d1e1      	bne.n	8001e58 <__ssputs_r+0x70>
 8001e94:	6921      	ldr	r1, [r4, #16]
 8001e96:	4650      	mov	r0, sl
 8001e98:	f000 fabe 	bl	8002418 <_free_r>
 8001e9c:	e7c7      	b.n	8001e2e <__ssputs_r+0x46>
	...

08001ea0 <_svfiprintf_r>:
 8001ea0:	e92d 4ff0 	stmdb	sp!, {r4, r5, r6, r7, r8, r9, sl, fp, lr}
 8001ea4:	4698      	mov	r8, r3
 8001ea6:	898b      	ldrh	r3, [r1, #12]
 8001ea8:	061b      	lsls	r3, r3, #24
 8001eaa:	b09d      	sub	sp, #116	; 0x74
 8001eac:	4607      	mov	r7, r0
 8001eae:	460d      	mov	r5, r1
 8001eb0:	4614      	mov	r4, r2
 8001eb2:	d50e      	bpl.n	8001ed2 <_svfiprintf_r+0x32>
 8001eb4:	690b      	ldr	r3, [r1, #16]
 8001eb6:	b963      	cbnz	r3, 8001ed2 <_svfiprintf_r+0x32>
 8001eb8:	2140      	movs	r1, #64	; 0x40
 8001eba:	f000 fafd 	bl	80024b8 <_malloc_r>
 8001ebe:	6028      	str	r0, [r5, #0]
 8001ec0:	6128      	str	r0, [r5, #16]
 8001ec2:	b920      	cbnz	r0, 8001ece <_svfiprintf_r+0x2e>
 8001ec4:	230c      	movs	r3, #12
 8001ec6:	603b      	str	r3, [r7, #0]
 8001ec8:	f04f 30ff 	mov.w	r0, #4294967295
 8001ecc:	e0d1      	b.n	8002072 <_svfiprintf_r+0x1d2>
 8001ece:	2340      	movs	r3, #64	; 0x40
 8001ed0:	616b      	str	r3, [r5, #20]
 8001ed2:	2300      	movs	r3, #0
 8001ed4:	9309      	str	r3, [sp, #36]	; 0x24
 8001ed6:	2320      	movs	r3, #32
 8001ed8:	f88d 3029 	strb.w	r3, [sp, #41]	; 0x29
 8001edc:	f8cd 800c 	str.w	r8, [sp, #12]
 8001ee0:	2330      	movs	r3, #48	; 0x30
 8001ee2:	f8df 81a8 	ldr.w	r8, [pc, #424]	; 800208c <_svfiprintf_r+0x1ec>
 8001ee6:	f88d 302a 	strb.w	r3, [sp, #42]	; 0x2a
 8001eea:	f04f 0901 	mov.w	r9, #1
 8001eee:	4623      	mov	r3, r4
 8001ef0:	469a      	mov	sl, r3
 8001ef2:	f813 2b01 	ldrb.w	r2, [r3], #1
 8001ef6:	b10a      	cbz	r2, 8001efc <_svfiprintf_r+0x5c>
 8001ef8:	2a25      	cmp	r2, #37	; 0x25
 8001efa:	d1f9      	bne.n	8001ef0 <_svfiprintf_r+0x50>
 8001efc:	ebba 0b04 	subs.w	fp, sl, r4
 8001f00:	d00b      	beq.n	8001f1a <_svfiprintf_r+0x7a>
 8001f02:	465b      	mov	r3, fp
 8001f04:	4622      	mov	r2, r4
 8001f06:	4629      	mov	r1, r5
 8001f08:	4638      	mov	r0, r7
 8001f0a:	f7ff ff6d 	bl	8001de8 <__ssputs_r>
 8001f0e:	3001      	adds	r0, #1
 8001f10:	f000 80aa 	beq.w	8002068 <_svfiprintf_r+0x1c8>
 8001f14:	9a09      	ldr	r2, [sp, #36]	; 0x24
 8001f16:	445a      	add	r2, fp
 8001f18:	9209      	str	r2, [sp, #36]	; 0x24
 8001f1a:	f89a 3000 	ldrb.w	r3, [sl]
 8001f1e:	2b00      	cmp	r3, #0
 8001f20:	f000 80a2 	beq.w	8002068 <_svfiprintf_r+0x1c8>
 8001f24:	2300      	movs	r3, #0
 8001f26:	f04f 32ff 	mov.w	r2, #4294967295
 8001f2a:	e9cd 2305 	strd	r2, r3, [sp, #20]
 8001f2e:	f10a 0a01 	add.w	sl, sl, #1
 8001f32:	9304      	str	r3, [sp, #16]
 8001f34:	9307      	str	r3, [sp, #28]
 8001f36:	f88d 3053 	strb.w	r3, [sp, #83]	; 0x53
 8001f3a:	931a      	str	r3, [sp, #104]	; 0x68
 8001f3c:	4654      	mov	r4, sl
 8001f3e:	2205      	movs	r2, #5
 8001f40:	f814 1b01 	ldrb.w	r1, [r4], #1
 8001f44:	4851      	ldr	r0, [pc, #324]	; (800208c <_svfiprintf_r+0x1ec>)
 8001f46:	f7fe f96b 	bl	8000220 <memchr>
 8001f4a:	9a04      	ldr	r2, [sp, #16]
 8001f4c:	b9d8      	cbnz	r0, 8001f86 <_svfiprintf_r+0xe6>
 8001f4e:	06d0      	lsls	r0, r2, #27
 8001f50:	bf44      	itt	mi
 8001f52:	2320      	movmi	r3, #32
 8001f54:	f88d 3053 	strbmi.w	r3, [sp, #83]	; 0x53
 8001f58:	0711      	lsls	r1, r2, #28
 8001f5a:	bf44      	itt	mi
 8001f5c:	232b      	movmi	r3, #43	; 0x2b
 8001f5e:	f88d 3053 	strbmi.w	r3, [sp, #83]	; 0x53
 8001f62:	f89a 3000 	ldrb.w	r3, [sl]
 8001f66:	2b2a      	cmp	r3, #42	; 0x2a
 8001f68:	d015      	beq.n	8001f96 <_svfiprintf_r+0xf6>
 8001f6a:	9a07      	ldr	r2, [sp, #28]
 8001f6c:	4654      	mov	r4, sl
 8001f6e:	2000      	movs	r0, #0
 8001f70:	f04f 0c0a 	mov.w	ip, #10
 8001f74:	4621      	mov	r1, r4
 8001f76:	f811 3b01 	ldrb.w	r3, [r1], #1
 8001f7a:	3b30      	subs	r3, #48	; 0x30
 8001f7c:	2b09      	cmp	r3, #9
 8001f7e:	d94e      	bls.n	800201e <_svfiprintf_r+0x17e>
 8001f80:	b1b0      	cbz	r0, 8001fb0 <_svfiprintf_r+0x110>
 8001f82:	9207      	str	r2, [sp, #28]
 8001f84:	e014      	b.n	8001fb0 <_svfiprintf_r+0x110>
 8001f86:	eba0 0308 	sub.w	r3, r0, r8
 8001f8a:	fa09 f303 	lsl.w	r3, r9, r3
 8001f8e:	4313      	orrs	r3, r2
 8001f90:	9304      	str	r3, [sp, #16]
 8001f92:	46a2      	mov	sl, r4
 8001f94:	e7d2      	b.n	8001f3c <_svfiprintf_r+0x9c>
 8001f96:	9b03      	ldr	r3, [sp, #12]
 8001f98:	1d19      	adds	r1, r3, #4
 8001f9a:	681b      	ldr	r3, [r3, #0]
 8001f9c:	9103      	str	r1, [sp, #12]
 8001f9e:	2b00      	cmp	r3, #0
 8001fa0:	bfbb      	ittet	lt
 8001fa2:	425b      	neglt	r3, r3
 8001fa4:	f042 0202 	orrlt.w	r2, r2, #2
 8001fa8:	9307      	strge	r3, [sp, #28]
 8001faa:	9307      	strlt	r3, [sp, #28]
 8001fac:	bfb8      	it	lt
 8001fae:	9204      	strlt	r2, [sp, #16]
 8001fb0:	7823      	ldrb	r3, [r4, #0]
 8001fb2:	2b2e      	cmp	r3, #46	; 0x2e
 8001fb4:	d10c      	bne.n	8001fd0 <_svfiprintf_r+0x130>
 8001fb6:	7863      	ldrb	r3, [r4, #1]
 8001fb8:	2b2a      	cmp	r3, #42	; 0x2a
 8001fba:	d135      	bne.n	8002028 <_svfiprintf_r+0x188>
 8001fbc:	9b03      	ldr	r3, [sp, #12]
 8001fbe:	1d1a      	adds	r2, r3, #4
 8001fc0:	681b      	ldr	r3, [r3, #0]
 8001fc2:	9203      	str	r2, [sp, #12]
 8001fc4:	2b00      	cmp	r3, #0
 8001fc6:	bfb8      	it	lt
 8001fc8:	f04f 33ff 	movlt.w	r3, #4294967295
 8001fcc:	3402      	adds	r4, #2
 8001fce:	9305      	str	r3, [sp, #20]
 8001fd0:	f8df a0c8 	ldr.w	sl, [pc, #200]	; 800209c <_svfiprintf_r+0x1fc>
 8001fd4:	7821      	ldrb	r1, [r4, #0]
 8001fd6:	2203      	movs	r2, #3
 8001fd8:	4650      	mov	r0, sl
 8001fda:	f7fe f921 	bl	8000220 <memchr>
 8001fde:	b140      	cbz	r0, 8001ff2 <_svfiprintf_r+0x152>
 8001fe0:	2340      	movs	r3, #64	; 0x40
 8001fe2:	eba0 000a 	sub.w	r0, r0, sl
 8001fe6:	fa03 f000 	lsl.w	r0, r3, r0
 8001fea:	9b04      	ldr	r3, [sp, #16]
 8001fec:	4303      	orrs	r3, r0
 8001fee:	3401      	adds	r4, #1
 8001ff0:	9304      	str	r3, [sp, #16]
 8001ff2:	f814 1b01 	ldrb.w	r1, [r4], #1
 8001ff6:	4826      	ldr	r0, [pc, #152]	; (8002090 <_svfiprintf_r+0x1f0>)
 8001ff8:	f88d 1028 	strb.w	r1, [sp, #40]	; 0x28
 8001ffc:	2206      	movs	r2, #6
 8001ffe:	f7fe f90f 	bl	8000220 <memchr>
 8002002:	2800      	cmp	r0, #0
 8002004:	d038      	beq.n	8002078 <_svfiprintf_r+0x1d8>
 8002006:	4b23      	ldr	r3, [pc, #140]	; (8002094 <_svfiprintf_r+0x1f4>)
 8002008:	bb1b      	cbnz	r3, 8002052 <_svfiprintf_r+0x1b2>
 800200a:	9b03      	ldr	r3, [sp, #12]
 800200c:	3307      	adds	r3, #7
 800200e:	f023 0307 	bic.w	r3, r3, #7
 8002012:	3308      	adds	r3, #8
 8002014:	9303      	str	r3, [sp, #12]
 8002016:	9b09      	ldr	r3, [sp, #36]	; 0x24
 8002018:	4433      	add	r3, r6
 800201a:	9309      	str	r3, [sp, #36]	; 0x24
 800201c:	e767      	b.n	8001eee <_svfiprintf_r+0x4e>
 800201e:	fb0c 3202 	mla	r2, ip, r2, r3
 8002022:	460c      	mov	r4, r1
 8002024:	2001      	movs	r0, #1
 8002026:	e7a5      	b.n	8001f74 <_svfiprintf_r+0xd4>
 8002028:	2300      	movs	r3, #0
 800202a:	3401      	adds	r4, #1
 800202c:	9305      	str	r3, [sp, #20]
 800202e:	4619      	mov	r1, r3
 8002030:	f04f 0c0a 	mov.w	ip, #10
 8002034:	4620      	mov	r0, r4
 8002036:	f810 2b01 	ldrb.w	r2, [r0], #1
 800203a:	3a30      	subs	r2, #48	; 0x30
 800203c:	2a09      	cmp	r2, #9
 800203e:	d903      	bls.n	8002048 <_svfiprintf_r+0x1a8>
 8002040:	2b00      	cmp	r3, #0
 8002042:	d0c5      	beq.n	8001fd0 <_svfiprintf_r+0x130>
 8002044:	9105      	str	r1, [sp, #20]
 8002046:	e7c3      	b.n	8001fd0 <_svfiprintf_r+0x130>
 8002048:	fb0c 2101 	mla	r1, ip, r1, r2
 800204c:	4604      	mov	r4, r0
 800204e:	2301      	movs	r3, #1
 8002050:	e7f0      	b.n	8002034 <_svfiprintf_r+0x194>
 8002052:	ab03      	add	r3, sp, #12
 8002054:	9300      	str	r3, [sp, #0]
 8002056:	462a      	mov	r2, r5
 8002058:	4b0f      	ldr	r3, [pc, #60]	; (8002098 <_svfiprintf_r+0x1f8>)
 800205a:	a904      	add	r1, sp, #16
 800205c:	4638      	mov	r0, r7
 800205e:	f3af 8000 	nop.w
 8002062:	1c42      	adds	r2, r0, #1
 8002064:	4606      	mov	r6, r0
 8002066:	d1d6      	bne.n	8002016 <_svfiprintf_r+0x176>
 8002068:	89ab      	ldrh	r3, [r5, #12]
 800206a:	065b      	lsls	r3, r3, #25
 800206c:	f53f af2c 	bmi.w	8001ec8 <_svfiprintf_r+0x28>
 8002070:	9809      	ldr	r0, [sp, #36]	; 0x24
 8002072:	b01d      	add	sp, #116	; 0x74
 8002074:	e8bd 8ff0 	ldmia.w	sp!, {r4, r5, r6, r7, r8, r9, sl, fp, pc}
 8002078:	ab03      	add	r3, sp, #12
 800207a:	9300      	str	r3, [sp, #0]
 800207c:	462a      	mov	r2, r5
 800207e:	4b06      	ldr	r3, [pc, #24]	; (8002098 <_svfiprintf_r+0x1f8>)
 8002080:	a904      	add	r1, sp, #16
 8002082:	4638      	mov	r0, r7
 8002084:	f000 f87a 	bl	800217c <_printf_i>
 8002088:	e7eb      	b.n	8002062 <_svfiprintf_r+0x1c2>
 800208a:	bf00      	nop
 800208c:	080026b2 	.word	0x080026b2
 8002090:	080026bc 	.word	0x080026bc
 8002094:	00000000 	.word	0x00000000
 8002098:	08001de9 	.word	0x08001de9
 800209c:	080026b8 	.word	0x080026b8

080020a0 <_printf_common>:
 80020a0:	e92d 47f0 	stmdb	sp!, {r4, r5, r6, r7, r8, r9, sl, lr}
 80020a4:	4616      	mov	r6, r2
 80020a6:	4699      	mov	r9, r3
 80020a8:	688a      	ldr	r2, [r1, #8]
 80020aa:	690b      	ldr	r3, [r1, #16]
 80020ac:	f8dd 8020 	ldr.w	r8, [sp, #32]
 80020b0:	4293      	cmp	r3, r2
 80020b2:	bfb8      	it	lt
 80020b4:	4613      	movlt	r3, r2
 80020b6:	6033      	str	r3, [r6, #0]
 80020b8:	f891 2043 	ldrb.w	r2, [r1, #67]	; 0x43
 80020bc:	4607      	mov	r7, r0
 80020be:	460c      	mov	r4, r1
 80020c0:	b10a      	cbz	r2, 80020c6 <_printf_common+0x26>
 80020c2:	3301      	adds	r3, #1
 80020c4:	6033      	str	r3, [r6, #0]
 80020c6:	6823      	ldr	r3, [r4, #0]
 80020c8:	0699      	lsls	r1, r3, #26
 80020ca:	bf42      	ittt	mi
 80020cc:	6833      	ldrmi	r3, [r6, #0]
 80020ce:	3302      	addmi	r3, #2
 80020d0:	6033      	strmi	r3, [r6, #0]
 80020d2:	6825      	ldr	r5, [r4, #0]
 80020d4:	f015 0506 	ands.w	r5, r5, #6
 80020d8:	d106      	bne.n	80020e8 <_printf_common+0x48>
 80020da:	f104 0a19 	add.w	sl, r4, #25
 80020de:	68e3      	ldr	r3, [r4, #12]
 80020e0:	6832      	ldr	r2, [r6, #0]
 80020e2:	1a9b      	subs	r3, r3, r2
 80020e4:	42ab      	cmp	r3, r5
 80020e6:	dc26      	bgt.n	8002136 <_printf_common+0x96>
 80020e8:	f894 2043 	ldrb.w	r2, [r4, #67]	; 0x43
 80020ec:	1e13      	subs	r3, r2, #0
 80020ee:	6822      	ldr	r2, [r4, #0]
 80020f0:	bf18      	it	ne
 80020f2:	2301      	movne	r3, #1
 80020f4:	0692      	lsls	r2, r2, #26
 80020f6:	d42b      	bmi.n	8002150 <_printf_common+0xb0>
 80020f8:	f104 0243 	add.w	r2, r4, #67	; 0x43
 80020fc:	4649      	mov	r1, r9
 80020fe:	4638      	mov	r0, r7
 8002100:	47c0      	blx	r8
 8002102:	3001      	adds	r0, #1
 8002104:	d01e      	beq.n	8002144 <_printf_common+0xa4>
 8002106:	6823      	ldr	r3, [r4, #0]
 8002108:	68e5      	ldr	r5, [r4, #12]
 800210a:	6832      	ldr	r2, [r6, #0]
 800210c:	f003 0306 	and.w	r3, r3, #6
 8002110:	2b04      	cmp	r3, #4
 8002112:	bf08      	it	eq
 8002114:	1aad      	subeq	r5, r5, r2
 8002116:	68a3      	ldr	r3, [r4, #8]
 8002118:	6922      	ldr	r2, [r4, #16]
 800211a:	bf0c      	ite	eq
 800211c:	ea25 75e5 	biceq.w	r5, r5, r5, asr #31
 8002120:	2500      	movne	r5, #0
 8002122:	4293      	cmp	r3, r2
 8002124:	bfc4      	itt	gt
 8002126:	1a9b      	subgt	r3, r3, r2
 8002128:	18ed      	addgt	r5, r5, r3
 800212a:	2600      	movs	r6, #0
 800212c:	341a      	adds	r4, #26
 800212e:	42b5      	cmp	r5, r6
 8002130:	d11a      	bne.n	8002168 <_printf_common+0xc8>
 8002132:	2000      	movs	r0, #0
 8002134:	e008      	b.n	8002148 <_printf_common+0xa8>
 8002136:	2301      	movs	r3, #1
 8002138:	4652      	mov	r2, sl
 800213a:	4649      	mov	r1, r9
 800213c:	4638      	mov	r0, r7
 800213e:	47c0      	blx	r8
 8002140:	3001      	adds	r0, #1
 8002142:	d103      	bne.n	800214c <_printf_common+0xac>
 8002144:	f04f 30ff 	mov.w	r0, #4294967295
 8002148:	e8bd 87f0 	ldmia.w	sp!, {r4, r5, r6, r7, r8, r9, sl, pc}
 800214c:	3501      	adds	r5, #1
 800214e:	e7c6      	b.n	80020de <_printf_common+0x3e>
 8002150:	18e1      	adds	r1, r4, r3
 8002152:	1c5a      	adds	r2, r3, #1
 8002154:	2030      	movs	r0, #48	; 0x30
 8002156:	f881 0043 	strb.w	r0, [r1, #67]	; 0x43
 800215a:	4422      	add	r2, r4
 800215c:	f894 1045 	ldrb.w	r1, [r4, #69]	; 0x45
 8002160:	f882 1043 	strb.w	r1, [r2, #67]	; 0x43
 8002164:	3302      	adds	r3, #2
 8002166:	e7c7      	b.n	80020f8 <_printf_common+0x58>
 8002168:	2301      	movs	r3, #1
 800216a:	4622      	mov	r2, r4
 800216c:	4649      	mov	r1, r9
 800216e:	4638      	mov	r0, r7
 8002170:	47c0      	blx	r8
 8002172:	3001      	adds	r0, #1
 8002174:	d0e6      	beq.n	8002144 <_printf_common+0xa4>
 8002176:	3601      	adds	r6, #1
 8002178:	e7d9      	b.n	800212e <_printf_common+0x8e>
	...

0800217c <_printf_i>:
 800217c:	e92d 47ff 	stmdb	sp!, {r0, r1, r2, r3, r4, r5, r6, r7, r8, r9, sl, lr}
 8002180:	460c      	mov	r4, r1
 8002182:	4691      	mov	r9, r2
 8002184:	7e27      	ldrb	r7, [r4, #24]
 8002186:	990c      	ldr	r1, [sp, #48]	; 0x30
 8002188:	2f78      	cmp	r7, #120	; 0x78
 800218a:	4680      	mov	r8, r0
 800218c:	469a      	mov	sl, r3
 800218e:	f104 0243 	add.w	r2, r4, #67	; 0x43
 8002192:	d807      	bhi.n	80021a4 <_printf_i+0x28>
 8002194:	2f62      	cmp	r7, #98	; 0x62
 8002196:	d80a      	bhi.n	80021ae <_printf_i+0x32>
 8002198:	2f00      	cmp	r7, #0
 800219a:	f000 80d8 	beq.w	800234e <_printf_i+0x1d2>
 800219e:	2f58      	cmp	r7, #88	; 0x58
 80021a0:	f000 80a3 	beq.w	80022ea <_printf_i+0x16e>
 80021a4:	f104 0642 	add.w	r6, r4, #66	; 0x42
 80021a8:	f884 7042 	strb.w	r7, [r4, #66]	; 0x42
 80021ac:	e03a      	b.n	8002224 <_printf_i+0xa8>
 80021ae:	f1a7 0363 	sub.w	r3, r7, #99	; 0x63
 80021b2:	2b15      	cmp	r3, #21
 80021b4:	d8f6      	bhi.n	80021a4 <_printf_i+0x28>
 80021b6:	a001      	add	r0, pc, #4	; (adr r0, 80021bc <_printf_i+0x40>)
 80021b8:	f850 f023 	ldr.w	pc, [r0, r3, lsl #2]
 80021bc:	08002215 	.word	0x08002215
 80021c0:	08002229 	.word	0x08002229
 80021c4:	080021a5 	.word	0x080021a5
 80021c8:	080021a5 	.word	0x080021a5
 80021cc:	080021a5 	.word	0x080021a5
 80021d0:	080021a5 	.word	0x080021a5
 80021d4:	08002229 	.word	0x08002229
 80021d8:	080021a5 	.word	0x080021a5
 80021dc:	080021a5 	.word	0x080021a5
 80021e0:	080021a5 	.word	0x080021a5
 80021e4:	080021a5 	.word	0x080021a5
 80021e8:	08002335 	.word	0x08002335
 80021ec:	08002259 	.word	0x08002259
 80021f0:	08002317 	.word	0x08002317
 80021f4:	080021a5 	.word	0x080021a5
 80021f8:	080021a5 	.word	0x080021a5
 80021fc:	08002357 	.word	0x08002357
 8002200:	080021a5 	.word	0x080021a5
 8002204:	08002259 	.word	0x08002259
 8002208:	080021a5 	.word	0x080021a5
 800220c:	080021a5 	.word	0x080021a5
 8002210:	0800231f 	.word	0x0800231f
 8002214:	680b      	ldr	r3, [r1, #0]
 8002216:	1d1a      	adds	r2, r3, #4
 8002218:	681b      	ldr	r3, [r3, #0]
 800221a:	600a      	str	r2, [r1, #0]
 800221c:	f104 0642 	add.w	r6, r4, #66	; 0x42
 8002220:	f884 3042 	strb.w	r3, [r4, #66]	; 0x42
 8002224:	2301      	movs	r3, #1
 8002226:	e0a3      	b.n	8002370 <_printf_i+0x1f4>
 8002228:	6825      	ldr	r5, [r4, #0]
 800222a:	6808      	ldr	r0, [r1, #0]
 800222c:	062e      	lsls	r6, r5, #24
 800222e:	f100 0304 	add.w	r3, r0, #4
 8002232:	d50a      	bpl.n	800224a <_printf_i+0xce>
 8002234:	6805      	ldr	r5, [r0, #0]
 8002236:	600b      	str	r3, [r1, #0]
 8002238:	2d00      	cmp	r5, #0
 800223a:	da03      	bge.n	8002244 <_printf_i+0xc8>
 800223c:	232d      	movs	r3, #45	; 0x2d
 800223e:	426d      	negs	r5, r5
 8002240:	f884 3043 	strb.w	r3, [r4, #67]	; 0x43
 8002244:	485e      	ldr	r0, [pc, #376]	; (80023c0 <_printf_i+0x244>)
 8002246:	230a      	movs	r3, #10
 8002248:	e019      	b.n	800227e <_printf_i+0x102>
 800224a:	f015 0f40 	tst.w	r5, #64	; 0x40
 800224e:	6805      	ldr	r5, [r0, #0]
 8002250:	600b      	str	r3, [r1, #0]
 8002252:	bf18      	it	ne
 8002254:	b22d      	sxthne	r5, r5
 8002256:	e7ef      	b.n	8002238 <_printf_i+0xbc>
 8002258:	680b      	ldr	r3, [r1, #0]
 800225a:	6825      	ldr	r5, [r4, #0]
 800225c:	1d18      	adds	r0, r3, #4
 800225e:	6008      	str	r0, [r1, #0]
 8002260:	0628      	lsls	r0, r5, #24
 8002262:	d501      	bpl.n	8002268 <_printf_i+0xec>
 8002264:	681d      	ldr	r5, [r3, #0]
 8002266:	e002      	b.n	800226e <_printf_i+0xf2>
 8002268:	0669      	lsls	r1, r5, #25
 800226a:	d5fb      	bpl.n	8002264 <_printf_i+0xe8>
 800226c:	881d      	ldrh	r5, [r3, #0]
 800226e:	4854      	ldr	r0, [pc, #336]	; (80023c0 <_printf_i+0x244>)
 8002270:	2f6f      	cmp	r7, #111	; 0x6f
 8002272:	bf0c      	ite	eq
 8002274:	2308      	moveq	r3, #8
 8002276:	230a      	movne	r3, #10
 8002278:	2100      	movs	r1, #0
 800227a:	f884 1043 	strb.w	r1, [r4, #67]	; 0x43
 800227e:	6866      	ldr	r6, [r4, #4]
 8002280:	60a6      	str	r6, [r4, #8]
 8002282:	2e00      	cmp	r6, #0
 8002284:	bfa2      	ittt	ge
 8002286:	6821      	ldrge	r1, [r4, #0]
 8002288:	f021 0104 	bicge.w	r1, r1, #4
 800228c:	6021      	strge	r1, [r4, #0]
 800228e:	b90d      	cbnz	r5, 8002294 <_printf_i+0x118>
 8002290:	2e00      	cmp	r6, #0
 8002292:	d04d      	beq.n	8002330 <_printf_i+0x1b4>
 8002294:	4616      	mov	r6, r2
 8002296:	fbb5 f1f3 	udiv	r1, r5, r3
 800229a:	fb03 5711 	mls	r7, r3, r1, r5
 800229e:	5dc7      	ldrb	r7, [r0, r7]
 80022a0:	f806 7d01 	strb.w	r7, [r6, #-1]!
 80022a4:	462f      	mov	r7, r5
 80022a6:	42bb      	cmp	r3, r7
 80022a8:	460d      	mov	r5, r1
 80022aa:	d9f4      	bls.n	8002296 <_printf_i+0x11a>
 80022ac:	2b08      	cmp	r3, #8
 80022ae:	d10b      	bne.n	80022c8 <_printf_i+0x14c>
 80022b0:	6823      	ldr	r3, [r4, #0]
 80022b2:	07df      	lsls	r7, r3, #31
 80022b4:	d508      	bpl.n	80022c8 <_printf_i+0x14c>
 80022b6:	6923      	ldr	r3, [r4, #16]
 80022b8:	6861      	ldr	r1, [r4, #4]
 80022ba:	4299      	cmp	r1, r3
 80022bc:	bfde      	ittt	le
 80022be:	2330      	movle	r3, #48	; 0x30
 80022c0:	f806 3c01 	strble.w	r3, [r6, #-1]
 80022c4:	f106 36ff 	addle.w	r6, r6, #4294967295
 80022c8:	1b92      	subs	r2, r2, r6
 80022ca:	6122      	str	r2, [r4, #16]
 80022cc:	f8cd a000 	str.w	sl, [sp]
 80022d0:	464b      	mov	r3, r9
 80022d2:	aa03      	add	r2, sp, #12
 80022d4:	4621      	mov	r1, r4
 80022d6:	4640      	mov	r0, r8
 80022d8:	f7ff fee2 	bl	80020a0 <_printf_common>
 80022dc:	3001      	adds	r0, #1
 80022de:	d14c      	bne.n	800237a <_printf_i+0x1fe>
 80022e0:	f04f 30ff 	mov.w	r0, #4294967295
 80022e4:	b004      	add	sp, #16
 80022e6:	e8bd 87f0 	ldmia.w	sp!, {r4, r5, r6, r7, r8, r9, sl, pc}
 80022ea:	4835      	ldr	r0, [pc, #212]	; (80023c0 <_printf_i+0x244>)
 80022ec:	f884 7045 	strb.w	r7, [r4, #69]	; 0x45
 80022f0:	6823      	ldr	r3, [r4, #0]
 80022f2:	680e      	ldr	r6, [r1, #0]
 80022f4:	061f      	lsls	r7, r3, #24
 80022f6:	f856 5b04 	ldr.w	r5, [r6], #4
 80022fa:	600e      	str	r6, [r1, #0]
 80022fc:	d514      	bpl.n	8002328 <_printf_i+0x1ac>
 80022fe:	07d9      	lsls	r1, r3, #31
 8002300:	bf44      	itt	mi
 8002302:	f043 0320 	orrmi.w	r3, r3, #32
 8002306:	6023      	strmi	r3, [r4, #0]
 8002308:	b91d      	cbnz	r5, 8002312 <_printf_i+0x196>
 800230a:	6823      	ldr	r3, [r4, #0]
 800230c:	f023 0320 	bic.w	r3, r3, #32
 8002310:	6023      	str	r3, [r4, #0]
 8002312:	2310      	movs	r3, #16
 8002314:	e7b0      	b.n	8002278 <_printf_i+0xfc>
 8002316:	6823      	ldr	r3, [r4, #0]
 8002318:	f043 0320 	orr.w	r3, r3, #32
 800231c:	6023      	str	r3, [r4, #0]
 800231e:	2378      	movs	r3, #120	; 0x78
 8002320:	4828      	ldr	r0, [pc, #160]	; (80023c4 <_printf_i+0x248>)
 8002322:	f884 3045 	strb.w	r3, [r4, #69]	; 0x45
 8002326:	e7e3      	b.n	80022f0 <_printf_i+0x174>
 8002328:	065e      	lsls	r6, r3, #25
 800232a:	bf48      	it	mi
 800232c:	b2ad      	uxthmi	r5, r5
 800232e:	e7e6      	b.n	80022fe <_printf_i+0x182>
 8002330:	4616      	mov	r6, r2
 8002332:	e7bb      	b.n	80022ac <_printf_i+0x130>
 8002334:	680b      	ldr	r3, [r1, #0]
 8002336:	6826      	ldr	r6, [r4, #0]
 8002338:	6960      	ldr	r0, [r4, #20]
 800233a:	1d1d      	adds	r5, r3, #4
 800233c:	600d      	str	r5, [r1, #0]
 800233e:	0635      	lsls	r5, r6, #24
 8002340:	681b      	ldr	r3, [r3, #0]
 8002342:	d501      	bpl.n	8002348 <_printf_i+0x1cc>
 8002344:	6018      	str	r0, [r3, #0]
 8002346:	e002      	b.n	800234e <_printf_i+0x1d2>
 8002348:	0671      	lsls	r1, r6, #25
 800234a:	d5fb      	bpl.n	8002344 <_printf_i+0x1c8>
 800234c:	8018      	strh	r0, [r3, #0]
 800234e:	2300      	movs	r3, #0
 8002350:	6123      	str	r3, [r4, #16]
 8002352:	4616      	mov	r6, r2
 8002354:	e7ba      	b.n	80022cc <_printf_i+0x150>
 8002356:	680b      	ldr	r3, [r1, #0]
 8002358:	1d1a      	adds	r2, r3, #4
 800235a:	600a      	str	r2, [r1, #0]
 800235c:	681e      	ldr	r6, [r3, #0]
 800235e:	6862      	ldr	r2, [r4, #4]
 8002360:	2100      	movs	r1, #0
 8002362:	4630      	mov	r0, r6
 8002364:	f7fd ff5c 	bl	8000220 <memchr>
 8002368:	b108      	cbz	r0, 800236e <_printf_i+0x1f2>
 800236a:	1b80      	subs	r0, r0, r6
 800236c:	6060      	str	r0, [r4, #4]
 800236e:	6863      	ldr	r3, [r4, #4]
 8002370:	6123      	str	r3, [r4, #16]
 8002372:	2300      	movs	r3, #0
 8002374:	f884 3043 	strb.w	r3, [r4, #67]	; 0x43
 8002378:	e7a8      	b.n	80022cc <_printf_i+0x150>
 800237a:	6923      	ldr	r3, [r4, #16]
 800237c:	4632      	mov	r2, r6
 800237e:	4649      	mov	r1, r9
 8002380:	4640      	mov	r0, r8
 8002382:	47d0      	blx	sl
 8002384:	3001      	adds	r0, #1
 8002386:	d0ab      	beq.n	80022e0 <_printf_i+0x164>
 8002388:	6823      	ldr	r3, [r4, #0]
 800238a:	079b      	lsls	r3, r3, #30
 800238c:	d413      	bmi.n	80023b6 <_printf_i+0x23a>
 800238e:	68e0      	ldr	r0, [r4, #12]
 8002390:	9b03      	ldr	r3, [sp, #12]
 8002392:	4298      	cmp	r0, r3
 8002394:	bfb8      	it	lt
 8002396:	4618      	movlt	r0, r3
 8002398:	e7a4      	b.n	80022e4 <_printf_i+0x168>
 800239a:	2301      	movs	r3, #1
 800239c:	4632      	mov	r2, r6
 800239e:	4649      	mov	r1, r9
 80023a0:	4640      	mov	r0, r8
 80023a2:	47d0      	blx	sl
 80023a4:	3001      	adds	r0, #1
 80023a6:	d09b      	beq.n	80022e0 <_printf_i+0x164>
 80023a8:	3501      	adds	r5, #1
 80023aa:	68e3      	ldr	r3, [r4, #12]
 80023ac:	9903      	ldr	r1, [sp, #12]
 80023ae:	1a5b      	subs	r3, r3, r1
 80023b0:	42ab      	cmp	r3, r5
 80023b2:	dcf2      	bgt.n	800239a <_printf_i+0x21e>
 80023b4:	e7eb      	b.n	800238e <_printf_i+0x212>
 80023b6:	2500      	movs	r5, #0
 80023b8:	f104 0619 	add.w	r6, r4, #25
 80023bc:	e7f5      	b.n	80023aa <_printf_i+0x22e>
 80023be:	bf00      	nop
 80023c0:	080026c3 	.word	0x080026c3
 80023c4:	080026d4 	.word	0x080026d4

080023c8 <memcpy>:
 80023c8:	440a      	add	r2, r1
 80023ca:	4291      	cmp	r1, r2
 80023cc:	f100 33ff 	add.w	r3, r0, #4294967295
 80023d0:	d100      	bne.n	80023d4 <memcpy+0xc>
 80023d2:	4770      	bx	lr
 80023d4:	b510      	push	{r4, lr}
 80023d6:	f811 4b01 	ldrb.w	r4, [r1], #1
 80023da:	f803 4f01 	strb.w	r4, [r3, #1]!
 80023de:	4291      	cmp	r1, r2
 80023e0:	d1f9      	bne.n	80023d6 <memcpy+0xe>
 80023e2:	bd10      	pop	{r4, pc}

080023e4 <memmove>:
 80023e4:	4288      	cmp	r0, r1
 80023e6:	b510      	push	{r4, lr}
 80023e8:	eb01 0402 	add.w	r4, r1, r2
 80023ec:	d902      	bls.n	80023f4 <memmove+0x10>
 80023ee:	4284      	cmp	r4, r0
 80023f0:	4623      	mov	r3, r4
 80023f2:	d807      	bhi.n	8002404 <memmove+0x20>
 80023f4:	1e43      	subs	r3, r0, #1
 80023f6:	42a1      	cmp	r1, r4
 80023f8:	d008      	beq.n	800240c <memmove+0x28>
 80023fa:	f811 2b01 	ldrb.w	r2, [r1], #1
 80023fe:	f803 2f01 	strb.w	r2, [r3, #1]!
 8002402:	e7f8      	b.n	80023f6 <memmove+0x12>
 8002404:	4402      	add	r2, r0
 8002406:	4601      	mov	r1, r0
 8002408:	428a      	cmp	r2, r1
 800240a:	d100      	bne.n	800240e <memmove+0x2a>
 800240c:	bd10      	pop	{r4, pc}
 800240e:	f813 4d01 	ldrb.w	r4, [r3, #-1]!
 8002412:	f802 4d01 	strb.w	r4, [r2, #-1]!
 8002416:	e7f7      	b.n	8002408 <memmove+0x24>

08002418 <_free_r>:
 8002418:	b537      	push	{r0, r1, r2, r4, r5, lr}
 800241a:	2900      	cmp	r1, #0
 800241c:	d048      	beq.n	80024b0 <_free_r+0x98>
 800241e:	f851 3c04 	ldr.w	r3, [r1, #-4]
 8002422:	9001      	str	r0, [sp, #4]
 8002424:	2b00      	cmp	r3, #0
 8002426:	f1a1 0404 	sub.w	r4, r1, #4
 800242a:	bfb8      	it	lt
 800242c:	18e4      	addlt	r4, r4, r3
 800242e:	f000 f8d3 	bl	80025d8 <__malloc_lock>
 8002432:	4a20      	ldr	r2, [pc, #128]	; (80024b4 <_free_r+0x9c>)
 8002434:	9801      	ldr	r0, [sp, #4]
 8002436:	6813      	ldr	r3, [r2, #0]
 8002438:	4615      	mov	r5, r2
 800243a:	b933      	cbnz	r3, 800244a <_free_r+0x32>
 800243c:	6063      	str	r3, [r4, #4]
 800243e:	6014      	str	r4, [r2, #0]
 8002440:	b003      	add	sp, #12
 8002442:	e8bd 4030 	ldmia.w	sp!, {r4, r5, lr}
 8002446:	f000 b8cd 	b.w	80025e4 <__malloc_unlock>
 800244a:	42a3      	cmp	r3, r4
 800244c:	d90b      	bls.n	8002466 <_free_r+0x4e>
 800244e:	6821      	ldr	r1, [r4, #0]
 8002450:	1862      	adds	r2, r4, r1
 8002452:	4293      	cmp	r3, r2
 8002454:	bf04      	itt	eq
 8002456:	681a      	ldreq	r2, [r3, #0]
 8002458:	685b      	ldreq	r3, [r3, #4]
 800245a:	6063      	str	r3, [r4, #4]
 800245c:	bf04      	itt	eq
 800245e:	1852      	addeq	r2, r2, r1
 8002460:	6022      	streq	r2, [r4, #0]
 8002462:	602c      	str	r4, [r5, #0]
 8002464:	e7ec      	b.n	8002440 <_free_r+0x28>
 8002466:	461a      	mov	r2, r3
 8002468:	685b      	ldr	r3, [r3, #4]
 800246a:	b10b      	cbz	r3, 8002470 <_free_r+0x58>
 800246c:	42a3      	cmp	r3, r4
 800246e:	d9fa      	bls.n	8002466 <_free_r+0x4e>
 8002470:	6811      	ldr	r1, [r2, #0]
 8002472:	1855      	adds	r5, r2, r1
 8002474:	42a5      	cmp	r5, r4
 8002476:	d10b      	bne.n	8002490 <_free_r+0x78>
 8002478:	6824      	ldr	r4, [r4, #0]
 800247a:	4421      	add	r1, r4
 800247c:	1854      	adds	r4, r2, r1
 800247e:	42a3      	cmp	r3, r4
 8002480:	6011      	str	r1, [r2, #0]
 8002482:	d1dd      	bne.n	8002440 <_free_r+0x28>
 8002484:	681c      	ldr	r4, [r3, #0]
 8002486:	685b      	ldr	r3, [r3, #4]
 8002488:	6053      	str	r3, [r2, #4]
 800248a:	4421      	add	r1, r4
 800248c:	6011      	str	r1, [r2, #0]
 800248e:	e7d7      	b.n	8002440 <_free_r+0x28>
 8002490:	d902      	bls.n	8002498 <_free_r+0x80>
 8002492:	230c      	movs	r3, #12
 8002494:	6003      	str	r3, [r0, #0]
 8002496:	e7d3      	b.n	8002440 <_free_r+0x28>
 8002498:	6825      	ldr	r5, [r4, #0]
 800249a:	1961      	adds	r1, r4, r5
 800249c:	428b      	cmp	r3, r1
 800249e:	bf04      	itt	eq
 80024a0:	6819      	ldreq	r1, [r3, #0]
 80024a2:	685b      	ldreq	r3, [r3, #4]
 80024a4:	6063      	str	r3, [r4, #4]
 80024a6:	bf04      	itt	eq
 80024a8:	1949      	addeq	r1, r1, r5
 80024aa:	6021      	streq	r1, [r4, #0]
 80024ac:	6054      	str	r4, [r2, #4]
 80024ae:	e7c7      	b.n	8002440 <_free_r+0x28>
 80024b0:	b003      	add	sp, #12
 80024b2:	bd30      	pop	{r4, r5, pc}
 80024b4:	200000a4 	.word	0x200000a4

080024b8 <_malloc_r>:
 80024b8:	b5f8      	push	{r3, r4, r5, r6, r7, lr}
 80024ba:	1ccd      	adds	r5, r1, #3
 80024bc:	f025 0503 	bic.w	r5, r5, #3
 80024c0:	3508      	adds	r5, #8
 80024c2:	2d0c      	cmp	r5, #12
 80024c4:	bf38      	it	cc
 80024c6:	250c      	movcc	r5, #12
 80024c8:	2d00      	cmp	r5, #0
 80024ca:	4606      	mov	r6, r0
 80024cc:	db01      	blt.n	80024d2 <_malloc_r+0x1a>
 80024ce:	42a9      	cmp	r1, r5
 80024d0:	d903      	bls.n	80024da <_malloc_r+0x22>
 80024d2:	230c      	movs	r3, #12
 80024d4:	6033      	str	r3, [r6, #0]
 80024d6:	2000      	movs	r0, #0
 80024d8:	bdf8      	pop	{r3, r4, r5, r6, r7, pc}
 80024da:	f000 f87d 	bl	80025d8 <__malloc_lock>
 80024de:	4921      	ldr	r1, [pc, #132]	; (8002564 <_malloc_r+0xac>)
 80024e0:	680a      	ldr	r2, [r1, #0]
 80024e2:	4614      	mov	r4, r2
 80024e4:	b99c      	cbnz	r4, 800250e <_malloc_r+0x56>
 80024e6:	4f20      	ldr	r7, [pc, #128]	; (8002568 <_malloc_r+0xb0>)
 80024e8:	683b      	ldr	r3, [r7, #0]
 80024ea:	b923      	cbnz	r3, 80024f6 <_malloc_r+0x3e>
 80024ec:	4621      	mov	r1, r4
 80024ee:	4630      	mov	r0, r6
 80024f0:	f000 f862 	bl	80025b8 <_sbrk_r>
 80024f4:	6038      	str	r0, [r7, #0]
 80024f6:	4629      	mov	r1, r5
 80024f8:	4630      	mov	r0, r6
 80024fa:	f000 f85d 	bl	80025b8 <_sbrk_r>
 80024fe:	1c43      	adds	r3, r0, #1
 8002500:	d123      	bne.n	800254a <_malloc_r+0x92>
 8002502:	230c      	movs	r3, #12
 8002504:	6033      	str	r3, [r6, #0]
 8002506:	4630      	mov	r0, r6
 8002508:	f000 f86c 	bl	80025e4 <__malloc_unlock>
 800250c:	e7e3      	b.n	80024d6 <_malloc_r+0x1e>
 800250e:	6823      	ldr	r3, [r4, #0]
 8002510:	1b5b      	subs	r3, r3, r5
 8002512:	d417      	bmi.n	8002544 <_malloc_r+0x8c>
 8002514:	2b0b      	cmp	r3, #11
 8002516:	d903      	bls.n	8002520 <_malloc_r+0x68>
 8002518:	6023      	str	r3, [r4, #0]
 800251a:	441c      	add	r4, r3
 800251c:	6025      	str	r5, [r4, #0]
 800251e:	e004      	b.n	800252a <_malloc_r+0x72>
 8002520:	6863      	ldr	r3, [r4, #4]
 8002522:	42a2      	cmp	r2, r4
 8002524:	bf0c      	ite	eq
 8002526:	600b      	streq	r3, [r1, #0]
 8002528:	6053      	strne	r3, [r2, #4]
 800252a:	4630      	mov	r0, r6
 800252c:	f000 f85a 	bl	80025e4 <__malloc_unlock>
 8002530:	f104 000b 	add.w	r0, r4, #11
 8002534:	1d23      	adds	r3, r4, #4
 8002536:	f020 0007 	bic.w	r0, r0, #7
 800253a:	1ac2      	subs	r2, r0, r3
 800253c:	d0cc      	beq.n	80024d8 <_malloc_r+0x20>
 800253e:	1a1b      	subs	r3, r3, r0
 8002540:	50a3      	str	r3, [r4, r2]
 8002542:	e7c9      	b.n	80024d8 <_malloc_r+0x20>
 8002544:	4622      	mov	r2, r4
 8002546:	6864      	ldr	r4, [r4, #4]
 8002548:	e7cc      	b.n	80024e4 <_malloc_r+0x2c>
 800254a:	1cc4      	adds	r4, r0, #3
 800254c:	f024 0403 	bic.w	r4, r4, #3
 8002550:	42a0      	cmp	r0, r4
 8002552:	d0e3      	beq.n	800251c <_malloc_r+0x64>
 8002554:	1a21      	subs	r1, r4, r0
 8002556:	4630      	mov	r0, r6
 8002558:	f000 f82e 	bl	80025b8 <_sbrk_r>
 800255c:	3001      	adds	r0, #1
 800255e:	d1dd      	bne.n	800251c <_malloc_r+0x64>
 8002560:	e7cf      	b.n	8002502 <_malloc_r+0x4a>
 8002562:	bf00      	nop
 8002564:	200000a4 	.word	0x200000a4
 8002568:	200000a8 	.word	0x200000a8

0800256c <_realloc_r>:
 800256c:	b5f8      	push	{r3, r4, r5, r6, r7, lr}
 800256e:	4607      	mov	r7, r0
 8002570:	4614      	mov	r4, r2
 8002572:	460e      	mov	r6, r1
 8002574:	b921      	cbnz	r1, 8002580 <_realloc_r+0x14>
 8002576:	e8bd 40f8 	ldmia.w	sp!, {r3, r4, r5, r6, r7, lr}
 800257a:	4611      	mov	r1, r2
 800257c:	f7ff bf9c 	b.w	80024b8 <_malloc_r>
 8002580:	b922      	cbnz	r2, 800258c <_realloc_r+0x20>
 8002582:	f7ff ff49 	bl	8002418 <_free_r>
 8002586:	4625      	mov	r5, r4
 8002588:	4628      	mov	r0, r5
 800258a:	bdf8      	pop	{r3, r4, r5, r6, r7, pc}
 800258c:	f000 f830 	bl	80025f0 <_malloc_usable_size_r>
 8002590:	42a0      	cmp	r0, r4
 8002592:	d20f      	bcs.n	80025b4 <_realloc_r+0x48>
 8002594:	4621      	mov	r1, r4
 8002596:	4638      	mov	r0, r7
 8002598:	f7ff ff8e 	bl	80024b8 <_malloc_r>
 800259c:	4605      	mov	r5, r0
 800259e:	2800      	cmp	r0, #0
 80025a0:	d0f2      	beq.n	8002588 <_realloc_r+0x1c>
 80025a2:	4631      	mov	r1, r6
 80025a4:	4622      	mov	r2, r4
 80025a6:	f7ff ff0f 	bl	80023c8 <memcpy>
 80025aa:	4631      	mov	r1, r6
 80025ac:	4638      	mov	r0, r7
 80025ae:	f7ff ff33 	bl	8002418 <_free_r>
 80025b2:	e7e9      	b.n	8002588 <_realloc_r+0x1c>
 80025b4:	4635      	mov	r5, r6
 80025b6:	e7e7      	b.n	8002588 <_realloc_r+0x1c>

080025b8 <_sbrk_r>:
 80025b8:	b538      	push	{r3, r4, r5, lr}
 80025ba:	4d06      	ldr	r5, [pc, #24]	; (80025d4 <_sbrk_r+0x1c>)
 80025bc:	2300      	movs	r3, #0
 80025be:	4604      	mov	r4, r0
 80025c0:	4608      	mov	r0, r1
 80025c2:	602b      	str	r3, [r5, #0]
 80025c4:	f7fe fa20 	bl	8000a08 <_sbrk>
 80025c8:	1c43      	adds	r3, r0, #1
 80025ca:	d102      	bne.n	80025d2 <_sbrk_r+0x1a>
 80025cc:	682b      	ldr	r3, [r5, #0]
 80025ce:	b103      	cbz	r3, 80025d2 <_sbrk_r+0x1a>
 80025d0:	6023      	str	r3, [r4, #0]
 80025d2:	bd38      	pop	{r3, r4, r5, pc}
 80025d4:	20000114 	.word	0x20000114

080025d8 <__malloc_lock>:
 80025d8:	4801      	ldr	r0, [pc, #4]	; (80025e0 <__malloc_lock+0x8>)
 80025da:	f000 b811 	b.w	8002600 <__retarget_lock_acquire_recursive>
 80025de:	bf00      	nop
 80025e0:	2000011c 	.word	0x2000011c

080025e4 <__malloc_unlock>:
 80025e4:	4801      	ldr	r0, [pc, #4]	; (80025ec <__malloc_unlock+0x8>)
 80025e6:	f000 b80c 	b.w	8002602 <__retarget_lock_release_recursive>
 80025ea:	bf00      	nop
 80025ec:	2000011c 	.word	0x2000011c

080025f0 <_malloc_usable_size_r>:
 80025f0:	f851 3c04 	ldr.w	r3, [r1, #-4]
 80025f4:	1f18      	subs	r0, r3, #4
 80025f6:	2b00      	cmp	r3, #0
 80025f8:	bfbc      	itt	lt
 80025fa:	580b      	ldrlt	r3, [r1, r0]
 80025fc:	18c0      	addlt	r0, r0, r3
 80025fe:	4770      	bx	lr

08002600 <__retarget_lock_acquire_recursive>:
 8002600:	4770      	bx	lr

08002602 <__retarget_lock_release_recursive>:
 8002602:	4770      	bx	lr

08002604 <_init>:
 8002604:	b5f8      	push	{r3, r4, r5, r6, r7, lr}
 8002606:	bf00      	nop
 8002608:	bcf8      	pop	{r3, r4, r5, r6, r7}
 800260a:	bc08      	pop	{r3}
 800260c:	469e      	mov	lr, r3
 800260e:	4770      	bx	lr

08002610 <_fini>:
 8002610:	b5f8      	push	{r3, r4, r5, r6, r7, lr}
 8002612:	bf00      	nop
 8002614:	bcf8      	pop	{r3, r4, r5, r6, r7}
 8002616:	bc08      	pop	{r3}
 8002618:	469e      	mov	lr, r3
 800261a:	4770      	bx	lr
